{
	"contracts/TextStorage.sol": {
		"TextStorage": {
			"abi": [
				{
					"inputs": [],
					"stateMutability": "nonpayable",
					"type": "constructor"
				},
				{
					"anonymous": false,
					"inputs": [
						{
							"indexed": true,
							"internalType": "address",
							"name": "sender",
							"type": "address"
						},
						{
							"indexed": false,
							"internalType": "string",
							"name": "text",
							"type": "string"
						}
					],
					"name": "TextStored",
					"type": "event"
				},
				{
					"inputs": [],
					"name": "getText",
					"outputs": [
						{
							"internalType": "string",
							"name": "",
							"type": "string"
						}
					],
					"stateMutability": "view",
					"type": "function"
				},
				{
					"inputs": [
						{
							"internalType": "string",
							"name": "_text",
							"type": "string"
						}
					],
					"name": "storeText",
					"outputs": [],
					"stateMutability": "nonpayable",
					"type": "function"
				}
			],
			"devdoc": {
				"kind": "dev",
				"methods": {},
				"version": 1
			},
			"evm": {
				"assembly": "    /* \"contracts/TextStorage.sol\":60:642  contract TextStorage {... */\n  mstore(0x40, 0x80)\n    /* \"contracts/TextStorage.sol\":212:263  constructor() {... */\n  callvalue\n  dup1\n  iszero\n  tag_1\n  jumpi\n  0x00\n  dup1\n  revert\ntag_1:\n  pop\n    /* \"contracts/TextStorage.sol\":245:255  msg.sender */\n  caller\n    /* \"contracts/TextStorage.sol\":237:242  owner */\n  0x01\n  0x00\n    /* \"contracts/TextStorage.sol\":237:255  owner = msg.sender */\n  0x0100\n  exp\n  dup2\n  sload\n  dup2\n  0xffffffffffffffffffffffffffffffffffffffff\n  mul\n  not\n  and\n  swap1\n  dup4\n  0xffffffffffffffffffffffffffffffffffffffff\n  and\n  mul\n  or\n  swap1\n  sstore\n  pop\n    /* \"contracts/TextStorage.sol\":60:642  contract TextStorage {... */\n  dataSize(sub_0)\n  dup1\n  dataOffset(sub_0)\n  0x00\n  codecopy\n  0x00\n  return\nstop\n\nsub_0: assembly {\n        /* \"contracts/TextStorage.sol\":60:642  contract TextStorage {... */\n      mstore(0x40, 0x80)\n      callvalue\n      dup1\n      iszero\n      tag_1\n      jumpi\n      0x00\n      dup1\n      revert\n    tag_1:\n      pop\n      jumpi(tag_2, lt(calldatasize, 0x04))\n      shr(0xe0, calldataload(0x00))\n      dup1\n      0xd9290e48\n      eq\n      tag_3\n      jumpi\n      dup1\n      0xe00fe2eb\n      eq\n      tag_4\n      jumpi\n    tag_2:\n      0x00\n      dup1\n      revert\n        /* \"contracts/TextStorage.sol\":401:540  function storeText(string memory _text) public onlyOwner {... */\n    tag_3:\n      tag_5\n      0x04\n      dup1\n      calldatasize\n      sub\n      dup2\n      add\n      swap1\n      tag_6\n      swap2\n      swap1\n      tag_7\n      jump\t// in\n    tag_6:\n      tag_8\n      jump\t// in\n    tag_5:\n      stop\n        /* \"contracts/TextStorage.sol\":548:639  function getText() public view returns (string memory) {... */\n    tag_4:\n      tag_9\n      tag_10\n      jump\t// in\n    tag_9:\n      mload(0x40)\n      tag_11\n      swap2\n      swap1\n      tag_12\n      jump\t// in\n    tag_11:\n      mload(0x40)\n      dup1\n      swap2\n      sub\n      swap1\n      return\n        /* \"contracts/TextStorage.sol\":401:540  function storeText(string memory _text) public onlyOwner {... */\n    tag_8:\n        /* \"contracts/TextStorage.sol\":325:330  owner */\n      0x01\n      0x00\n      swap1\n      sload\n      swap1\n      0x0100\n      exp\n      swap1\n      div\n      0xffffffffffffffffffffffffffffffffffffffff\n      and\n        /* \"contracts/TextStorage.sol\":311:330  msg.sender == owner */\n      0xffffffffffffffffffffffffffffffffffffffff\n      and\n        /* \"contracts/TextStorage.sol\":311:321  msg.sender */\n      caller\n        /* \"contracts/TextStorage.sol\":311:330  msg.sender == owner */\n      0xffffffffffffffffffffffffffffffffffffffff\n      and\n      eq\n        /* \"contracts/TextStorage.sol\":303:373  require(msg.sender == owner, \"Only the owner can call this function.\") */\n      tag_14\n      jumpi\n      mload(0x40)\n      0x08c379a000000000000000000000000000000000000000000000000000000000\n      dup2\n      mstore\n      0x04\n      add\n      tag_15\n      swap1\n      tag_16\n      jump\t// in\n    tag_15:\n      mload(0x40)\n      dup1\n      swap2\n      sub\n      swap1\n      revert\n    tag_14:\n        /* \"contracts/TextStorage.sol\":482:487  _text */\n      dup1\n        /* \"contracts/TextStorage.sol\":469:479  storedText */\n      0x00\n        /* \"contracts/TextStorage.sol\":469:487  storedText = _text */\n      swap1\n      dup2\n      tag_18\n      swap2\n      swap1\n      tag_19\n      jump\t// in\n    tag_18:\n      pop\n        /* \"contracts/TextStorage.sol\":514:524  msg.sender */\n      caller\n        /* \"contracts/TextStorage.sol\":503:532  TextStored(msg.sender, _text) */\n      0xffffffffffffffffffffffffffffffffffffffff\n      and\n      0xf600f68efdb8b734fcfd638ce924adddba9fbd69e4ff8421b76a81c7df87cb28\n        /* \"contracts/TextStorage.sol\":526:531  _text */\n      dup3\n        /* \"contracts/TextStorage.sol\":503:532  TextStored(msg.sender, _text) */\n      mload(0x40)\n      tag_20\n      swap2\n      swap1\n      tag_12\n      jump\t// in\n    tag_20:\n      mload(0x40)\n      dup1\n      swap2\n      sub\n      swap1\n      log2\n        /* \"contracts/TextStorage.sol\":401:540  function storeText(string memory _text) public onlyOwner {... */\n      pop\n      jump\t// out\n        /* \"contracts/TextStorage.sol\":548:639  function getText() public view returns (string memory) {... */\n    tag_10:\n        /* \"contracts/TextStorage.sol\":588:601  string memory */\n      0x60\n        /* \"contracts/TextStorage.sol\":621:631  storedText */\n      0x00\n        /* \"contracts/TextStorage.sol\":614:631  return storedText */\n      dup1\n      sload\n      tag_22\n      swap1\n      tag_23\n      jump\t// in\n    tag_22:\n      dup1\n      0x1f\n      add\n      0x20\n      dup1\n      swap2\n      div\n      mul\n      0x20\n      add\n      mload(0x40)\n      swap1\n      dup2\n      add\n      0x40\n      mstore\n      dup1\n      swap3\n      swap2\n      swap1\n      dup2\n      dup2\n      mstore\n      0x20\n      add\n      dup3\n      dup1\n      sload\n      tag_24\n      swap1\n      tag_23\n      jump\t// in\n    tag_24:\n      dup1\n      iszero\n      tag_25\n      jumpi\n      dup1\n      0x1f\n      lt\n      tag_26\n      jumpi\n      0x0100\n      dup1\n      dup4\n      sload\n      div\n      mul\n      dup4\n      mstore\n      swap2\n      0x20\n      add\n      swap2\n      jump(tag_25)\n    tag_26:\n      dup3\n      add\n      swap2\n      swap1\n      0x00\n      mstore\n      keccak256(0x00, 0x20)\n      swap1\n    tag_27:\n      dup2\n      sload\n      dup2\n      mstore\n      swap1\n      0x01\n      add\n      swap1\n      0x20\n      add\n      dup1\n      dup4\n      gt\n      tag_27\n      jumpi\n      dup3\n      swap1\n      sub\n      0x1f\n      and\n      dup3\n      add\n      swap2\n    tag_25:\n      pop\n      pop\n      pop\n      pop\n      pop\n      swap1\n      pop\n        /* \"contracts/TextStorage.sol\":548:639  function getText() public view returns (string memory) {... */\n      swap1\n      jump\t// out\n        /* \"#utility.yul\":7:82   */\n    tag_28:\n        /* \"#utility.yul\":40:46   */\n      0x00\n        /* \"#utility.yul\":73:75   */\n      0x40\n        /* \"#utility.yul\":67:76   */\n      mload\n        /* \"#utility.yul\":57:76   */\n      swap1\n      pop\n        /* \"#utility.yul\":7:82   */\n      swap1\n      jump\t// out\n        /* \"#utility.yul\":88:205   */\n    tag_29:\n        /* \"#utility.yul\":197:198   */\n      0x00\n        /* \"#utility.yul\":194:195   */\n      dup1\n        /* \"#utility.yul\":187:199   */\n      revert\n        /* \"#utility.yul\":211:328   */\n    tag_30:\n        /* \"#utility.yul\":320:321   */\n      0x00\n        /* \"#utility.yul\":317:318   */\n      dup1\n        /* \"#utility.yul\":310:322   */\n      revert\n        /* \"#utility.yul\":334:451   */\n    tag_31:\n        /* \"#utility.yul\":443:444   */\n      0x00\n        /* \"#utility.yul\":440:441   */\n      dup1\n        /* \"#utility.yul\":433:445   */\n      revert\n        /* \"#utility.yul\":457:574   */\n    tag_32:\n        /* \"#utility.yul\":566:567   */\n      0x00\n        /* \"#utility.yul\":563:564   */\n      dup1\n        /* \"#utility.yul\":556:568   */\n      revert\n        /* \"#utility.yul\":580:682   */\n    tag_33:\n        /* \"#utility.yul\":621:627   */\n      0x00\n        /* \"#utility.yul\":672:674   */\n      0x1f\n        /* \"#utility.yul\":668:675   */\n      not\n        /* \"#utility.yul\":663:665   */\n      0x1f\n        /* \"#utility.yul\":656:661   */\n      dup4\n        /* \"#utility.yul\":652:666   */\n      add\n        /* \"#utility.yul\":648:676   */\n      and\n        /* \"#utility.yul\":638:676   */\n      swap1\n      pop\n        /* \"#utility.yul\":580:682   */\n      swap2\n      swap1\n      pop\n      jump\t// out\n        /* \"#utility.yul\":688:868   */\n    tag_34:\n        /* \"#utility.yul\":736:813   */\n      0x4e487b7100000000000000000000000000000000000000000000000000000000\n        /* \"#utility.yul\":733:734   */\n      0x00\n        /* \"#utility.yul\":726:814   */\n      mstore\n        /* \"#utility.yul\":833:837   */\n      0x41\n        /* \"#utility.yul\":830:831   */\n      0x04\n        /* \"#utility.yul\":823:838   */\n      mstore\n        /* \"#utility.yul\":857:861   */\n      0x24\n        /* \"#utility.yul\":854:855   */\n      0x00\n        /* \"#utility.yul\":847:862   */\n      revert\n        /* \"#utility.yul\":874:1155   */\n    tag_35:\n        /* \"#utility.yul\":957:984   */\n      tag_73\n        /* \"#utility.yul\":979:983   */\n      dup3\n        /* \"#utility.yul\":957:984   */\n      tag_33\n      jump\t// in\n    tag_73:\n        /* \"#utility.yul\":949:955   */\n      dup2\n        /* \"#utility.yul\":945:985   */\n      add\n        /* \"#utility.yul\":1087:1093   */\n      dup2\n        /* \"#utility.yul\":1075:1085   */\n      dup2\n        /* \"#utility.yul\":1072:1094   */\n      lt\n        /* \"#utility.yul\":1051:1069   */\n      0xffffffffffffffff\n        /* \"#utility.yul\":1039:1049   */\n      dup3\n        /* \"#utility.yul\":1036:1070   */\n      gt\n        /* \"#utility.yul\":1033:1095   */\n      or\n        /* \"#utility.yul\":1030:1118   */\n      iszero\n      tag_74\n      jumpi\n        /* \"#utility.yul\":1098:1116   */\n      tag_75\n      tag_34\n      jump\t// in\n    tag_75:\n        /* \"#utility.yul\":1030:1118   */\n    tag_74:\n        /* \"#utility.yul\":1138:1148   */\n      dup1\n        /* \"#utility.yul\":1134:1136   */\n      0x40\n        /* \"#utility.yul\":1127:1149   */\n      mstore\n        /* \"#utility.yul\":917:1155   */\n      pop\n        /* \"#utility.yul\":874:1155   */\n      pop\n      pop\n      jump\t// out\n        /* \"#utility.yul\":1161:1290   */\n    tag_36:\n        /* \"#utility.yul\":1195:1201   */\n      0x00\n        /* \"#utility.yul\":1222:1242   */\n      tag_77\n      tag_28\n      jump\t// in\n    tag_77:\n        /* \"#utility.yul\":1212:1242   */\n      swap1\n      pop\n        /* \"#utility.yul\":1251:1284   */\n      tag_78\n        /* \"#utility.yul\":1279:1283   */\n      dup3\n        /* \"#utility.yul\":1271:1277   */\n      dup3\n        /* \"#utility.yul\":1251:1284   */\n      tag_35\n      jump\t// in\n    tag_78:\n        /* \"#utility.yul\":1161:1290   */\n      swap2\n      swap1\n      pop\n      jump\t// out\n        /* \"#utility.yul\":1296:1604   */\n    tag_37:\n        /* \"#utility.yul\":1358:1362   */\n      0x00\n        /* \"#utility.yul\":1448:1466   */\n      0xffffffffffffffff\n        /* \"#utility.yul\":1440:1446   */\n      dup3\n        /* \"#utility.yul\":1437:1467   */\n      gt\n        /* \"#utility.yul\":1434:1490   */\n      iszero\n      tag_80\n      jumpi\n        /* \"#utility.yul\":1470:1488   */\n      tag_81\n      tag_34\n      jump\t// in\n    tag_81:\n        /* \"#utility.yul\":1434:1490   */\n    tag_80:\n        /* \"#utility.yul\":1508:1537   */\n      tag_82\n        /* \"#utility.yul\":1530:1536   */\n      dup3\n        /* \"#utility.yul\":1508:1537   */\n      tag_33\n      jump\t// in\n    tag_82:\n        /* \"#utility.yul\":1500:1537   */\n      swap1\n      pop\n        /* \"#utility.yul\":1592:1596   */\n      0x20\n        /* \"#utility.yul\":1586:1590   */\n      dup2\n        /* \"#utility.yul\":1582:1597   */\n      add\n        /* \"#utility.yul\":1574:1597   */\n      swap1\n      pop\n        /* \"#utility.yul\":1296:1604   */\n      swap2\n      swap1\n      pop\n      jump\t// out\n        /* \"#utility.yul\":1610:1758   */\n    tag_38:\n        /* \"#utility.yul\":1708:1714   */\n      dup3\n        /* \"#utility.yul\":1703:1706   */\n      dup2\n        /* \"#utility.yul\":1698:1701   */\n      dup4\n        /* \"#utility.yul\":1685:1715   */\n      calldatacopy\n        /* \"#utility.yul\":1749:1750   */\n      0x00\n        /* \"#utility.yul\":1740:1746   */\n      dup4\n        /* \"#utility.yul\":1735:1738   */\n      dup4\n        /* \"#utility.yul\":1731:1747   */\n      add\n        /* \"#utility.yul\":1724:1751   */\n      mstore\n        /* \"#utility.yul\":1610:1758   */\n      pop\n      pop\n      pop\n      jump\t// out\n        /* \"#utility.yul\":1764:2189   */\n    tag_39:\n        /* \"#utility.yul\":1842:1847   */\n      0x00\n        /* \"#utility.yul\":1867:1933   */\n      tag_85\n        /* \"#utility.yul\":1883:1932   */\n      tag_86\n        /* \"#utility.yul\":1925:1931   */\n      dup5\n        /* \"#utility.yul\":1883:1932   */\n      tag_37\n      jump\t// in\n    tag_86:\n        /* \"#utility.yul\":1867:1933   */\n      tag_36\n      jump\t// in\n    tag_85:\n        /* \"#utility.yul\":1858:1933   */\n      swap1\n      pop\n        /* \"#utility.yul\":1956:1962   */\n      dup3\n        /* \"#utility.yul\":1949:1954   */\n      dup2\n        /* \"#utility.yul\":1942:1963   */\n      mstore\n        /* \"#utility.yul\":1994:1998   */\n      0x20\n        /* \"#utility.yul\":1987:1992   */\n      dup2\n        /* \"#utility.yul\":1983:1999   */\n      add\n        /* \"#utility.yul\":2032:2035   */\n      dup5\n        /* \"#utility.yul\":2023:2029   */\n      dup5\n        /* \"#utility.yul\":2018:2021   */\n      dup5\n        /* \"#utility.yul\":2014:2030   */\n      add\n        /* \"#utility.yul\":2011:2036   */\n      gt\n        /* \"#utility.yul\":2008:2120   */\n      iszero\n      tag_87\n      jumpi\n        /* \"#utility.yul\":2039:2118   */\n      tag_88\n      tag_32\n      jump\t// in\n    tag_88:\n        /* \"#utility.yul\":2008:2120   */\n    tag_87:\n        /* \"#utility.yul\":2129:2183   */\n      tag_89\n        /* \"#utility.yul\":2176:2182   */\n      dup5\n        /* \"#utility.yul\":2171:2174   */\n      dup3\n        /* \"#utility.yul\":2166:2169   */\n      dup6\n        /* \"#utility.yul\":2129:2183   */\n      tag_38\n      jump\t// in\n    tag_89:\n        /* \"#utility.yul\":1848:2189   */\n      pop\n        /* \"#utility.yul\":1764:2189   */\n      swap4\n      swap3\n      pop\n      pop\n      pop\n      jump\t// out\n        /* \"#utility.yul\":2209:2549   */\n    tag_40:\n        /* \"#utility.yul\":2265:2270   */\n      0x00\n        /* \"#utility.yul\":2314:2317   */\n      dup3\n        /* \"#utility.yul\":2307:2311   */\n      0x1f\n        /* \"#utility.yul\":2299:2305   */\n      dup4\n        /* \"#utility.yul\":2295:2312   */\n      add\n        /* \"#utility.yul\":2291:2318   */\n      slt\n        /* \"#utility.yul\":2281:2403   */\n      tag_91\n      jumpi\n        /* \"#utility.yul\":2322:2401   */\n      tag_92\n      tag_31\n      jump\t// in\n    tag_92:\n        /* \"#utility.yul\":2281:2403   */\n    tag_91:\n        /* \"#utility.yul\":2439:2445   */\n      dup2\n        /* \"#utility.yul\":2426:2446   */\n      calldataload\n        /* \"#utility.yul\":2464:2543   */\n      tag_93\n        /* \"#utility.yul\":2539:2542   */\n      dup5\n        /* \"#utility.yul\":2531:2537   */\n      dup3\n        /* \"#utility.yul\":2524:2528   */\n      0x20\n        /* \"#utility.yul\":2516:2522   */\n      dup7\n        /* \"#utility.yul\":2512:2529   */\n      add\n        /* \"#utility.yul\":2464:2543   */\n      tag_39\n      jump\t// in\n    tag_93:\n        /* \"#utility.yul\":2455:2543   */\n      swap2\n      pop\n        /* \"#utility.yul\":2271:2549   */\n      pop\n        /* \"#utility.yul\":2209:2549   */\n      swap3\n      swap2\n      pop\n      pop\n      jump\t// out\n        /* \"#utility.yul\":2555:3064   */\n    tag_7:\n        /* \"#utility.yul\":2624:2630   */\n      0x00\n        /* \"#utility.yul\":2673:2675   */\n      0x20\n        /* \"#utility.yul\":2661:2670   */\n      dup3\n        /* \"#utility.yul\":2652:2659   */\n      dup5\n        /* \"#utility.yul\":2648:2671   */\n      sub\n        /* \"#utility.yul\":2644:2676   */\n      slt\n        /* \"#utility.yul\":2641:2760   */\n      iszero\n      tag_95\n      jumpi\n        /* \"#utility.yul\":2679:2758   */\n      tag_96\n      tag_29\n      jump\t// in\n    tag_96:\n        /* \"#utility.yul\":2641:2760   */\n    tag_95:\n        /* \"#utility.yul\":2827:2828   */\n      0x00\n        /* \"#utility.yul\":2816:2825   */\n      dup3\n        /* \"#utility.yul\":2812:2829   */\n      add\n        /* \"#utility.yul\":2799:2830   */\n      calldataload\n        /* \"#utility.yul\":2857:2875   */\n      0xffffffffffffffff\n        /* \"#utility.yul\":2849:2855   */\n      dup2\n        /* \"#utility.yul\":2846:2876   */\n      gt\n        /* \"#utility.yul\":2843:2960   */\n      iszero\n      tag_97\n      jumpi\n        /* \"#utility.yul\":2879:2958   */\n      tag_98\n      tag_30\n      jump\t// in\n    tag_98:\n        /* \"#utility.yul\":2843:2960   */\n    tag_97:\n        /* \"#utility.yul\":2984:3047   */\n      tag_99\n        /* \"#utility.yul\":3039:3046   */\n      dup5\n        /* \"#utility.yul\":3030:3036   */\n      dup3\n        /* \"#utility.yul\":3019:3028   */\n      dup6\n        /* \"#utility.yul\":3015:3037   */\n      add\n        /* \"#utility.yul\":2984:3047   */\n      tag_40\n      jump\t// in\n    tag_99:\n        /* \"#utility.yul\":2974:3047   */\n      swap2\n      pop\n        /* \"#utility.yul\":2770:3057   */\n      pop\n        /* \"#utility.yul\":2555:3064   */\n      swap3\n      swap2\n      pop\n      pop\n      jump\t// out\n        /* \"#utility.yul\":3070:3169   */\n    tag_41:\n        /* \"#utility.yul\":3122:3128   */\n      0x00\n        /* \"#utility.yul\":3156:3161   */\n      dup2\n        /* \"#utility.yul\":3150:3162   */\n      mload\n        /* \"#utility.yul\":3140:3162   */\n      swap1\n      pop\n        /* \"#utility.yul\":3070:3169   */\n      swap2\n      swap1\n      pop\n      jump\t// out\n        /* \"#utility.yul\":3175:3344   */\n    tag_42:\n        /* \"#utility.yul\":3259:3270   */\n      0x00\n        /* \"#utility.yul\":3293:3299   */\n      dup3\n        /* \"#utility.yul\":3288:3291   */\n      dup3\n        /* \"#utility.yul\":3281:3300   */\n      mstore\n        /* \"#utility.yul\":3333:3337   */\n      0x20\n        /* \"#utility.yul\":3328:3331   */\n      dup3\n        /* \"#utility.yul\":3324:3338   */\n      add\n        /* \"#utility.yul\":3309:3338   */\n      swap1\n      pop\n        /* \"#utility.yul\":3175:3344   */\n      swap3\n      swap2\n      pop\n      pop\n      jump\t// out\n        /* \"#utility.yul\":3350:3489   */\n    tag_43:\n        /* \"#utility.yul\":3439:3445   */\n      dup3\n        /* \"#utility.yul\":3434:3437   */\n      dup2\n        /* \"#utility.yul\":3429:3432   */\n      dup4\n        /* \"#utility.yul\":3423:3446   */\n      mcopy\n        /* \"#utility.yul\":3480:3481   */\n      0x00\n        /* \"#utility.yul\":3471:3477   */\n      dup4\n        /* \"#utility.yul\":3466:3469   */\n      dup4\n        /* \"#utility.yul\":3462:3478   */\n      add\n        /* \"#utility.yul\":3455:3482   */\n      mstore\n        /* \"#utility.yul\":3350:3489   */\n      pop\n      pop\n      pop\n      jump\t// out\n        /* \"#utility.yul\":3495:3872   */\n    tag_44:\n        /* \"#utility.yul\":3583:3586   */\n      0x00\n        /* \"#utility.yul\":3611:3650   */\n      tag_104\n        /* \"#utility.yul\":3644:3649   */\n      dup3\n        /* \"#utility.yul\":3611:3650   */\n      tag_41\n      jump\t// in\n    tag_104:\n        /* \"#utility.yul\":3666:3737   */\n      tag_105\n        /* \"#utility.yul\":3730:3736   */\n      dup2\n        /* \"#utility.yul\":3725:3728   */\n      dup6\n        /* \"#utility.yul\":3666:3737   */\n      tag_42\n      jump\t// in\n    tag_105:\n        /* \"#utility.yul\":3659:3737   */\n      swap4\n      pop\n        /* \"#utility.yul\":3746:3811   */\n      tag_106\n        /* \"#utility.yul\":3804:3810   */\n      dup2\n        /* \"#utility.yul\":3799:3802   */\n      dup6\n        /* \"#utility.yul\":3792:3796   */\n      0x20\n        /* \"#utility.yul\":3785:3790   */\n      dup7\n        /* \"#utility.yul\":3781:3797   */\n      add\n        /* \"#utility.yul\":3746:3811   */\n      tag_43\n      jump\t// in\n    tag_106:\n        /* \"#utility.yul\":3836:3865   */\n      tag_107\n        /* \"#utility.yul\":3858:3864   */\n      dup2\n        /* \"#utility.yul\":3836:3865   */\n      tag_33\n      jump\t// in\n    tag_107:\n        /* \"#utility.yul\":3831:3834   */\n      dup5\n        /* \"#utility.yul\":3827:3866   */\n      add\n        /* \"#utility.yul\":3820:3866   */\n      swap2\n      pop\n        /* \"#utility.yul\":3587:3872   */\n      pop\n        /* \"#utility.yul\":3495:3872   */\n      swap3\n      swap2\n      pop\n      pop\n      jump\t// out\n        /* \"#utility.yul\":3878:4191   */\n    tag_12:\n        /* \"#utility.yul\":3991:3995   */\n      0x00\n        /* \"#utility.yul\":4029:4031   */\n      0x20\n        /* \"#utility.yul\":4018:4027   */\n      dup3\n        /* \"#utility.yul\":4014:4032   */\n      add\n        /* \"#utility.yul\":4006:4032   */\n      swap1\n      pop\n        /* \"#utility.yul\":4078:4087   */\n      dup2\n        /* \"#utility.yul\":4072:4076   */\n      dup2\n        /* \"#utility.yul\":4068:4088   */\n      sub\n        /* \"#utility.yul\":4064:4065   */\n      0x00\n        /* \"#utility.yul\":4053:4062   */\n      dup4\n        /* \"#utility.yul\":4049:4066   */\n      add\n        /* \"#utility.yul\":4042:4089   */\n      mstore\n        /* \"#utility.yul\":4106:4184   */\n      tag_109\n        /* \"#utility.yul\":4179:4183   */\n      dup2\n        /* \"#utility.yul\":4170:4176   */\n      dup5\n        /* \"#utility.yul\":4106:4184   */\n      tag_44\n      jump\t// in\n    tag_109:\n        /* \"#utility.yul\":4098:4184   */\n      swap1\n      pop\n        /* \"#utility.yul\":3878:4191   */\n      swap3\n      swap2\n      pop\n      pop\n      jump\t// out\n        /* \"#utility.yul\":4197:4422   */\n    tag_45:\n        /* \"#utility.yul\":4337:4371   */\n      0x4f6e6c7920746865206f776e65722063616e2063616c6c20746869732066756e\n        /* \"#utility.yul\":4333:4334   */\n      0x00\n        /* \"#utility.yul\":4325:4331   */\n      dup3\n        /* \"#utility.yul\":4321:4335   */\n      add\n        /* \"#utility.yul\":4314:4372   */\n      mstore\n        /* \"#utility.yul\":4406:4414   */\n      0x6374696f6e2e0000000000000000000000000000000000000000000000000000\n        /* \"#utility.yul\":4401:4403   */\n      0x20\n        /* \"#utility.yul\":4393:4399   */\n      dup3\n        /* \"#utility.yul\":4389:4404   */\n      add\n        /* \"#utility.yul\":4382:4415   */\n      mstore\n        /* \"#utility.yul\":4197:4422   */\n      pop\n      jump\t// out\n        /* \"#utility.yul\":4428:4794   */\n    tag_46:\n        /* \"#utility.yul\":4570:4573   */\n      0x00\n        /* \"#utility.yul\":4591:4658   */\n      tag_112\n        /* \"#utility.yul\":4655:4657   */\n      0x26\n        /* \"#utility.yul\":4650:4653   */\n      dup4\n        /* \"#utility.yul\":4591:4658   */\n      tag_42\n      jump\t// in\n    tag_112:\n        /* \"#utility.yul\":4584:4658   */\n      swap2\n      pop\n        /* \"#utility.yul\":4667:4760   */\n      tag_113\n        /* \"#utility.yul\":4756:4759   */\n      dup3\n        /* \"#utility.yul\":4667:4760   */\n      tag_45\n      jump\t// in\n    tag_113:\n        /* \"#utility.yul\":4785:4787   */\n      0x40\n        /* \"#utility.yul\":4780:4783   */\n      dup3\n        /* \"#utility.yul\":4776:4788   */\n      add\n        /* \"#utility.yul\":4769:4788   */\n      swap1\n      pop\n        /* \"#utility.yul\":4428:4794   */\n      swap2\n      swap1\n      pop\n      jump\t// out\n        /* \"#utility.yul\":4800:5219   */\n    tag_16:\n        /* \"#utility.yul\":4966:4970   */\n      0x00\n        /* \"#utility.yul\":5004:5006   */\n      0x20\n        /* \"#utility.yul\":4993:5002   */\n      dup3\n        /* \"#utility.yul\":4989:5007   */\n      add\n        /* \"#utility.yul\":4981:5007   */\n      swap1\n      pop\n        /* \"#utility.yul\":5053:5062   */\n      dup2\n        /* \"#utility.yul\":5047:5051   */\n      dup2\n        /* \"#utility.yul\":5043:5063   */\n      sub\n        /* \"#utility.yul\":5039:5040   */\n      0x00\n        /* \"#utility.yul\":5028:5037   */\n      dup4\n        /* \"#utility.yul\":5024:5041   */\n      add\n        /* \"#utility.yul\":5017:5064   */\n      mstore\n        /* \"#utility.yul\":5081:5212   */\n      tag_115\n        /* \"#utility.yul\":5207:5211   */\n      dup2\n        /* \"#utility.yul\":5081:5212   */\n      tag_46\n      jump\t// in\n    tag_115:\n        /* \"#utility.yul\":5073:5212   */\n      swap1\n      pop\n        /* \"#utility.yul\":4800:5219   */\n      swap2\n      swap1\n      pop\n      jump\t// out\n        /* \"#utility.yul\":5225:5405   */\n    tag_47:\n        /* \"#utility.yul\":5273:5350   */\n      0x4e487b7100000000000000000000000000000000000000000000000000000000\n        /* \"#utility.yul\":5270:5271   */\n      0x00\n        /* \"#utility.yul\":5263:5351   */\n      mstore\n        /* \"#utility.yul\":5370:5374   */\n      0x22\n        /* \"#utility.yul\":5367:5368   */\n      0x04\n        /* \"#utility.yul\":5360:5375   */\n      mstore\n        /* \"#utility.yul\":5394:5398   */\n      0x24\n        /* \"#utility.yul\":5391:5392   */\n      0x00\n        /* \"#utility.yul\":5384:5399   */\n      revert\n        /* \"#utility.yul\":5411:5731   */\n    tag_23:\n        /* \"#utility.yul\":5455:5461   */\n      0x00\n        /* \"#utility.yul\":5492:5493   */\n      0x02\n        /* \"#utility.yul\":5486:5490   */\n      dup3\n        /* \"#utility.yul\":5482:5494   */\n      div\n        /* \"#utility.yul\":5472:5494   */\n      swap1\n      pop\n        /* \"#utility.yul\":5539:5540   */\n      0x01\n        /* \"#utility.yul\":5533:5537   */\n      dup3\n        /* \"#utility.yul\":5529:5541   */\n      and\n        /* \"#utility.yul\":5560:5578   */\n      dup1\n        /* \"#utility.yul\":5550:5631   */\n      tag_118\n      jumpi\n        /* \"#utility.yul\":5616:5620   */\n      0x7f\n        /* \"#utility.yul\":5608:5614   */\n      dup3\n        /* \"#utility.yul\":5604:5621   */\n      and\n        /* \"#utility.yul\":5594:5621   */\n      swap2\n      pop\n        /* \"#utility.yul\":5550:5631   */\n    tag_118:\n        /* \"#utility.yul\":5678:5680   */\n      0x20\n        /* \"#utility.yul\":5670:5676   */\n      dup3\n        /* \"#utility.yul\":5667:5681   */\n      lt\n        /* \"#utility.yul\":5647:5665   */\n      dup2\n        /* \"#utility.yul\":5644:5682   */\n      sub\n        /* \"#utility.yul\":5641:5725   */\n      tag_119\n      jumpi\n        /* \"#utility.yul\":5697:5715   */\n      tag_120\n      tag_47\n      jump\t// in\n    tag_120:\n        /* \"#utility.yul\":5641:5725   */\n    tag_119:\n        /* \"#utility.yul\":5462:5731   */\n      pop\n        /* \"#utility.yul\":5411:5731   */\n      swap2\n      swap1\n      pop\n      jump\t// out\n        /* \"#utility.yul\":5737:5878   */\n    tag_48:\n        /* \"#utility.yul\":5786:5790   */\n      0x00\n        /* \"#utility.yul\":5809:5812   */\n      dup2\n        /* \"#utility.yul\":5801:5812   */\n      swap1\n      pop\n        /* \"#utility.yul\":5832:5835   */\n      dup2\n        /* \"#utility.yul\":5829:5830   */\n      0x00\n        /* \"#utility.yul\":5822:5836   */\n      mstore\n        /* \"#utility.yul\":5866:5870   */\n      0x20\n        /* \"#utility.yul\":5863:5864   */\n      0x00\n        /* \"#utility.yul\":5853:5871   */\n      keccak256\n        /* \"#utility.yul\":5845:5871   */\n      swap1\n      pop\n        /* \"#utility.yul\":5737:5878   */\n      swap2\n      swap1\n      pop\n      jump\t// out\n        /* \"#utility.yul\":5884:5977   */\n    tag_49:\n        /* \"#utility.yul\":5921:5927   */\n      0x00\n        /* \"#utility.yul\":5968:5970   */\n      0x20\n        /* \"#utility.yul\":5963:5965   */\n      0x1f\n        /* \"#utility.yul\":5956:5961   */\n      dup4\n        /* \"#utility.yul\":5952:5966   */\n      add\n        /* \"#utility.yul\":5948:5971   */\n      div\n        /* \"#utility.yul\":5938:5971   */\n      swap1\n      pop\n        /* \"#utility.yul\":5884:5977   */\n      swap2\n      swap1\n      pop\n      jump\t// out\n        /* \"#utility.yul\":5983:6090   */\n    tag_50:\n        /* \"#utility.yul\":6027:6035   */\n      0x00\n        /* \"#utility.yul\":6077:6082   */\n      dup3\n        /* \"#utility.yul\":6071:6075   */\n      dup3\n        /* \"#utility.yul\":6067:6083   */\n      shl\n        /* \"#utility.yul\":6046:6083   */\n      swap1\n      pop\n        /* \"#utility.yul\":5983:6090   */\n      swap3\n      swap2\n      pop\n      pop\n      jump\t// out\n        /* \"#utility.yul\":6096:6489   */\n    tag_51:\n        /* \"#utility.yul\":6165:6171   */\n      0x00\n        /* \"#utility.yul\":6215:6216   */\n      0x08\n        /* \"#utility.yul\":6203:6213   */\n      dup4\n        /* \"#utility.yul\":6199:6217   */\n      mul\n        /* \"#utility.yul\":6238:6335   */\n      tag_125\n        /* \"#utility.yul\":6268:6334   */\n      0xffffffffffffffffffffffffffffffffffffffffffffffffffffffffffffffff\n        /* \"#utility.yul\":6257:6266   */\n      dup3\n        /* \"#utility.yul\":6238:6335   */\n      tag_50\n      jump\t// in\n    tag_125:\n        /* \"#utility.yul\":6356:6395   */\n      tag_126\n        /* \"#utility.yul\":6386:6394   */\n      dup7\n        /* \"#utility.yul\":6375:6384   */\n      dup4\n        /* \"#utility.yul\":6356:6395   */\n      tag_50\n      jump\t// in\n    tag_126:\n        /* \"#utility.yul\":6344:6395   */\n      swap6\n      pop\n        /* \"#utility.yul\":6428:6432   */\n      dup1\n        /* \"#utility.yul\":6424:6433   */\n      not\n        /* \"#utility.yul\":6417:6422   */\n      dup5\n        /* \"#utility.yul\":6413:6434   */\n      and\n        /* \"#utility.yul\":6404:6434   */\n      swap4\n      pop\n        /* \"#utility.yul\":6477:6481   */\n      dup1\n        /* \"#utility.yul\":6467:6475   */\n      dup7\n        /* \"#utility.yul\":6463:6482   */\n      and\n        /* \"#utility.yul\":6456:6461   */\n      dup5\n        /* \"#utility.yul\":6453:6483   */\n      or\n        /* \"#utility.yul\":6443:6483   */\n      swap3\n      pop\n        /* \"#utility.yul\":6172:6489   */\n      pop\n      pop\n        /* \"#utility.yul\":6096:6489   */\n      swap4\n      swap3\n      pop\n      pop\n      pop\n      jump\t// out\n        /* \"#utility.yul\":6495:6572   */\n    tag_52:\n        /* \"#utility.yul\":6532:6539   */\n      0x00\n        /* \"#utility.yul\":6561:6566   */\n      dup2\n        /* \"#utility.yul\":6550:6566   */\n      swap1\n      pop\n        /* \"#utility.yul\":6495:6572   */\n      swap2\n      swap1\n      pop\n      jump\t// out\n        /* \"#utility.yul\":6578:6638   */\n    tag_53:\n        /* \"#utility.yul\":6606:6609   */\n      0x00\n        /* \"#utility.yul\":6627:6632   */\n      dup2\n        /* \"#utility.yul\":6620:6632   */\n      swap1\n      pop\n        /* \"#utility.yul\":6578:6638   */\n      swap2\n      swap1\n      pop\n      jump\t// out\n        /* \"#utility.yul\":6644:6786   */\n    tag_54:\n        /* \"#utility.yul\":6694:6703   */\n      0x00\n        /* \"#utility.yul\":6727:6780   */\n      tag_130\n        /* \"#utility.yul\":6745:6779   */\n      tag_131\n        /* \"#utility.yul\":6754:6778   */\n      tag_132\n        /* \"#utility.yul\":6772:6777   */\n      dup5\n        /* \"#utility.yul\":6754:6778   */\n      tag_52\n      jump\t// in\n    tag_132:\n        /* \"#utility.yul\":6745:6779   */\n      tag_53\n      jump\t// in\n    tag_131:\n        /* \"#utility.yul\":6727:6780   */\n      tag_52\n      jump\t// in\n    tag_130:\n        /* \"#utility.yul\":6714:6780   */\n      swap1\n      pop\n        /* \"#utility.yul\":6644:6786   */\n      swap2\n      swap1\n      pop\n      jump\t// out\n        /* \"#utility.yul\":6792:6867   */\n    tag_55:\n        /* \"#utility.yul\":6835:6838   */\n      0x00\n        /* \"#utility.yul\":6856:6861   */\n      dup2\n        /* \"#utility.yul\":6849:6861   */\n      swap1\n      pop\n        /* \"#utility.yul\":6792:6867   */\n      swap2\n      swap1\n      pop\n      jump\t// out\n        /* \"#utility.yul\":6873:7142   */\n    tag_56:\n        /* \"#utility.yul\":6983:7022   */\n      tag_135\n        /* \"#utility.yul\":7014:7021   */\n      dup4\n        /* \"#utility.yul\":6983:7022   */\n      tag_54\n      jump\t// in\n    tag_135:\n        /* \"#utility.yul\":7044:7135   */\n      tag_136\n        /* \"#utility.yul\":7093:7134   */\n      tag_137\n        /* \"#utility.yul\":7117:7133   */\n      dup3\n        /* \"#utility.yul\":7093:7134   */\n      tag_55\n      jump\t// in\n    tag_137:\n        /* \"#utility.yul\":7085:7091   */\n      dup5\n        /* \"#utility.yul\":7078:7082   */\n      dup5\n        /* \"#utility.yul\":7072:7083   */\n      sload\n        /* \"#utility.yul\":7044:7135   */\n      tag_51\n      jump\t// in\n    tag_136:\n        /* \"#utility.yul\":7038:7042   */\n      dup3\n        /* \"#utility.yul\":7031:7136   */\n      sstore\n        /* \"#utility.yul\":6949:7142   */\n      pop\n        /* \"#utility.yul\":6873:7142   */\n      pop\n      pop\n      pop\n      jump\t// out\n        /* \"#utility.yul\":7148:7221   */\n    tag_57:\n        /* \"#utility.yul\":7193:7196   */\n      0x00\n        /* \"#utility.yul\":7148:7221   */\n      swap1\n      jump\t// out\n        /* \"#utility.yul\":7227:7416   */\n    tag_58:\n        /* \"#utility.yul\":7304:7336   */\n      tag_140\n      tag_57\n      jump\t// in\n    tag_140:\n        /* \"#utility.yul\":7345:7410   */\n      tag_141\n        /* \"#utility.yul\":7403:7409   */\n      dup2\n        /* \"#utility.yul\":7395:7401   */\n      dup5\n        /* \"#utility.yul\":7389:7393   */\n      dup5\n        /* \"#utility.yul\":7345:7410   */\n      tag_56\n      jump\t// in\n    tag_141:\n        /* \"#utility.yul\":7280:7416   */\n      pop\n        /* \"#utility.yul\":7227:7416   */\n      pop\n      pop\n      jump\t// out\n        /* \"#utility.yul\":7422:7608   */\n    tag_59:\n        /* \"#utility.yul\":7482:7602   */\n    tag_143:\n        /* \"#utility.yul\":7499:7502   */\n      dup2\n        /* \"#utility.yul\":7492:7497   */\n      dup2\n        /* \"#utility.yul\":7489:7503   */\n      lt\n        /* \"#utility.yul\":7482:7602   */\n      iszero\n      tag_145\n      jumpi\n        /* \"#utility.yul\":7553:7592   */\n      tag_146\n        /* \"#utility.yul\":7590:7591   */\n      0x00\n        /* \"#utility.yul\":7583:7588   */\n      dup3\n        /* \"#utility.yul\":7553:7592   */\n      tag_58\n      jump\t// in\n    tag_146:\n        /* \"#utility.yul\":7526:7527   */\n      0x01\n        /* \"#utility.yul\":7519:7524   */\n      dup2\n        /* \"#utility.yul\":7515:7528   */\n      add\n        /* \"#utility.yul\":7506:7528   */\n      swap1\n      pop\n        /* \"#utility.yul\":7482:7602   */\n      jump(tag_143)\n    tag_145:\n        /* \"#utility.yul\":7422:7608   */\n      pop\n      pop\n      jump\t// out\n        /* \"#utility.yul\":7614:8157   */\n    tag_60:\n        /* \"#utility.yul\":7715:7717   */\n      0x1f\n        /* \"#utility.yul\":7710:7713   */\n      dup3\n        /* \"#utility.yul\":7707:7718   */\n      gt\n        /* \"#utility.yul\":7704:8150   */\n      iszero\n      tag_148\n      jumpi\n        /* \"#utility.yul\":7749:7787   */\n      tag_149\n        /* \"#utility.yul\":7781:7786   */\n      dup2\n        /* \"#utility.yul\":7749:7787   */\n      tag_48\n      jump\t// in\n    tag_149:\n        /* \"#utility.yul\":7833:7862   */\n      tag_150\n        /* \"#utility.yul\":7851:7861   */\n      dup5\n        /* \"#utility.yul\":7833:7862   */\n      tag_49\n      jump\t// in\n    tag_150:\n        /* \"#utility.yul\":7823:7831   */\n      dup2\n        /* \"#utility.yul\":7819:7863   */\n      add\n        /* \"#utility.yul\":8016:8018   */\n      0x20\n        /* \"#utility.yul\":8004:8014   */\n      dup6\n        /* \"#utility.yul\":8001:8019   */\n      lt\n        /* \"#utility.yul\":7998:8047   */\n      iszero\n      tag_151\n      jumpi\n        /* \"#utility.yul\":8037:8045   */\n      dup2\n        /* \"#utility.yul\":8022:8045   */\n      swap1\n      pop\n        /* \"#utility.yul\":7998:8047   */\n    tag_151:\n        /* \"#utility.yul\":8060:8140   */\n      tag_152\n        /* \"#utility.yul\":8116:8138   */\n      tag_153\n        /* \"#utility.yul\":8134:8137   */\n      dup6\n        /* \"#utility.yul\":8116:8138   */\n      tag_49\n      jump\t// in\n    tag_153:\n        /* \"#utility.yul\":8106:8114   */\n      dup4\n        /* \"#utility.yul\":8102:8139   */\n      add\n        /* \"#utility.yul\":8089:8100   */\n      dup3\n        /* \"#utility.yul\":8060:8140   */\n      tag_59\n      jump\t// in\n    tag_152:\n        /* \"#utility.yul\":7719:8150   */\n      pop\n      pop\n        /* \"#utility.yul\":7704:8150   */\n    tag_148:\n        /* \"#utility.yul\":7614:8157   */\n      pop\n      pop\n      pop\n      jump\t// out\n        /* \"#utility.yul\":8163:8280   */\n    tag_61:\n        /* \"#utility.yul\":8217:8225   */\n      0x00\n        /* \"#utility.yul\":8267:8272   */\n      dup3\n        /* \"#utility.yul\":8261:8265   */\n      dup3\n        /* \"#utility.yul\":8257:8273   */\n      shr\n        /* \"#utility.yul\":8236:8273   */\n      swap1\n      pop\n        /* \"#utility.yul\":8163:8280   */\n      swap3\n      swap2\n      pop\n      pop\n      jump\t// out\n        /* \"#utility.yul\":8286:8455   */\n    tag_62:\n        /* \"#utility.yul\":8330:8336   */\n      0x00\n        /* \"#utility.yul\":8363:8414   */\n      tag_156\n        /* \"#utility.yul\":8411:8412   */\n      0x00\n        /* \"#utility.yul\":8407:8413   */\n      not\n        /* \"#utility.yul\":8399:8404   */\n      dup5\n        /* \"#utility.yul\":8396:8397   */\n      0x08\n        /* \"#utility.yul\":8392:8405   */\n      mul\n        /* \"#utility.yul\":8363:8414   */\n      tag_61\n      jump\t// in\n    tag_156:\n        /* \"#utility.yul\":8359:8415   */\n      not\n        /* \"#utility.yul\":8444:8448   */\n      dup1\n        /* \"#utility.yul\":8438:8442   */\n      dup4\n        /* \"#utility.yul\":8434:8449   */\n      and\n        /* \"#utility.yul\":8424:8449   */\n      swap2\n      pop\n        /* \"#utility.yul\":8337:8455   */\n      pop\n        /* \"#utility.yul\":8286:8455   */\n      swap3\n      swap2\n      pop\n      pop\n      jump\t// out\n        /* \"#utility.yul\":8460:8755   */\n    tag_63:\n        /* \"#utility.yul\":8536:8540   */\n      0x00\n        /* \"#utility.yul\":8682:8711   */\n      tag_158\n        /* \"#utility.yul\":8707:8710   */\n      dup4\n        /* \"#utility.yul\":8701:8705   */\n      dup4\n        /* \"#utility.yul\":8682:8711   */\n      tag_62\n      jump\t// in\n    tag_158:\n        /* \"#utility.yul\":8674:8711   */\n      swap2\n      pop\n        /* \"#utility.yul\":8744:8747   */\n      dup3\n        /* \"#utility.yul\":8741:8742   */\n      0x02\n        /* \"#utility.yul\":8737:8748   */\n      mul\n        /* \"#utility.yul\":8731:8735   */\n      dup3\n        /* \"#utility.yul\":8728:8749   */\n      or\n        /* \"#utility.yul\":8720:8749   */\n      swap1\n      pop\n        /* \"#utility.yul\":8460:8755   */\n      swap3\n      swap2\n      pop\n      pop\n      jump\t// out\n        /* \"#utility.yul\":8760:10155   */\n    tag_19:\n        /* \"#utility.yul\":8877:8914   */\n      tag_160\n        /* \"#utility.yul\":8910:8913   */\n      dup3\n        /* \"#utility.yul\":8877:8914   */\n      tag_41\n      jump\t// in\n    tag_160:\n        /* \"#utility.yul\":8979:8997   */\n      0xffffffffffffffff\n        /* \"#utility.yul\":8971:8977   */\n      dup2\n        /* \"#utility.yul\":8968:8998   */\n      gt\n        /* \"#utility.yul\":8965:9021   */\n      iszero\n      tag_161\n      jumpi\n        /* \"#utility.yul\":9001:9019   */\n      tag_162\n      tag_34\n      jump\t// in\n    tag_162:\n        /* \"#utility.yul\":8965:9021   */\n    tag_161:\n        /* \"#utility.yul\":9045:9083   */\n      tag_163\n        /* \"#utility.yul\":9077:9081   */\n      dup3\n        /* \"#utility.yul\":9071:9082   */\n      sload\n        /* \"#utility.yul\":9045:9083   */\n      tag_23\n      jump\t// in\n    tag_163:\n        /* \"#utility.yul\":9130:9197   */\n      tag_164\n        /* \"#utility.yul\":9190:9196   */\n      dup3\n        /* \"#utility.yul\":9182:9188   */\n      dup3\n        /* \"#utility.yul\":9176:9180   */\n      dup6\n        /* \"#utility.yul\":9130:9197   */\n      tag_60\n      jump\t// in\n    tag_164:\n        /* \"#utility.yul\":9224:9225   */\n      0x00\n        /* \"#utility.yul\":9248:9252   */\n      0x20\n        /* \"#utility.yul\":9235:9252   */\n      swap1\n      pop\n        /* \"#utility.yul\":9280:9282   */\n      0x1f\n        /* \"#utility.yul\":9272:9278   */\n      dup4\n        /* \"#utility.yul\":9269:9283   */\n      gt\n        /* \"#utility.yul\":9297:9298   */\n      0x01\n        /* \"#utility.yul\":9292:9910   */\n      dup2\n      eq\n      tag_166\n      jumpi\n        /* \"#utility.yul\":9954:9955   */\n      0x00\n        /* \"#utility.yul\":9971:9977   */\n      dup5\n        /* \"#utility.yul\":9968:10045   */\n      iszero\n      tag_167\n      jumpi\n        /* \"#utility.yul\":10020:10029   */\n      dup3\n        /* \"#utility.yul\":10015:10018   */\n      dup8\n        /* \"#utility.yul\":10011:10030   */\n      add\n        /* \"#utility.yul\":10005:10031   */\n      mload\n        /* \"#utility.yul\":9996:10031   */\n      swap1\n      pop\n        /* \"#utility.yul\":9968:10045   */\n    tag_167:\n        /* \"#utility.yul\":10071:10138   */\n      tag_168\n        /* \"#utility.yul\":10131:10137   */\n      dup6\n        /* \"#utility.yul\":10124:10129   */\n      dup3\n        /* \"#utility.yul\":10071:10138   */\n      tag_63\n      jump\t// in\n    tag_168:\n        /* \"#utility.yul\":10065:10069   */\n      dup7\n        /* \"#utility.yul\":10058:10139   */\n      sstore\n        /* \"#utility.yul\":9927:10149   */\n      pop\n        /* \"#utility.yul\":9262:10149   */\n      jump(tag_165)\n        /* \"#utility.yul\":9292:9910   */\n    tag_166:\n        /* \"#utility.yul\":9344:9348   */\n      0x1f\n        /* \"#utility.yul\":9340:9349   */\n      not\n        /* \"#utility.yul\":9332:9338   */\n      dup5\n        /* \"#utility.yul\":9328:9350   */\n      and\n        /* \"#utility.yul\":9378:9415   */\n      tag_169\n        /* \"#utility.yul\":9410:9414   */\n      dup7\n        /* \"#utility.yul\":9378:9415   */\n      tag_48\n      jump\t// in\n    tag_169:\n        /* \"#utility.yul\":9437:9438   */\n      0x00\n        /* \"#utility.yul\":9451:9659   */\n    tag_170:\n        /* \"#utility.yul\":9465:9472   */\n      dup3\n        /* \"#utility.yul\":9462:9463   */\n      dup2\n        /* \"#utility.yul\":9459:9473   */\n      lt\n        /* \"#utility.yul\":9451:9659   */\n      iszero\n      tag_172\n      jumpi\n        /* \"#utility.yul\":9544:9553   */\n      dup5\n        /* \"#utility.yul\":9539:9542   */\n      dup10\n        /* \"#utility.yul\":9535:9554   */\n      add\n        /* \"#utility.yul\":9529:9555   */\n      mload\n        /* \"#utility.yul\":9521:9527   */\n      dup3\n        /* \"#utility.yul\":9514:9556   */\n      sstore\n        /* \"#utility.yul\":9595:9596   */\n      0x01\n        /* \"#utility.yul\":9587:9593   */\n      dup3\n        /* \"#utility.yul\":9583:9597   */\n      add\n        /* \"#utility.yul\":9573:9597   */\n      swap2\n      pop\n        /* \"#utility.yul\":9642:9644   */\n      0x20\n        /* \"#utility.yul\":9631:9640   */\n      dup6\n        /* \"#utility.yul\":9627:9645   */\n      add\n        /* \"#utility.yul\":9614:9645   */\n      swap5\n      pop\n        /* \"#utility.yul\":9488:9492   */\n      0x20\n        /* \"#utility.yul\":9485:9486   */\n      dup2\n        /* \"#utility.yul\":9481:9493   */\n      add\n        /* \"#utility.yul\":9476:9493   */\n      swap1\n      pop\n        /* \"#utility.yul\":9451:9659   */\n      jump(tag_170)\n    tag_172:\n        /* \"#utility.yul\":9687:9693   */\n      dup7\n        /* \"#utility.yul\":9678:9685   */\n      dup4\n        /* \"#utility.yul\":9675:9694   */\n      lt\n        /* \"#utility.yul\":9672:9851   */\n      iszero\n      tag_173\n      jumpi\n        /* \"#utility.yul\":9745:9754   */\n      dup5\n        /* \"#utility.yul\":9740:9743   */\n      dup10\n        /* \"#utility.yul\":9736:9755   */\n      add\n        /* \"#utility.yul\":9730:9756   */\n      mload\n        /* \"#utility.yul\":9788:9836   */\n      tag_174\n        /* \"#utility.yul\":9830:9834   */\n      0x1f\n        /* \"#utility.yul\":9822:9828   */\n      dup10\n        /* \"#utility.yul\":9818:9835   */\n      and\n        /* \"#utility.yul\":9807:9816   */\n      dup3\n        /* \"#utility.yul\":9788:9836   */\n      tag_62\n      jump\t// in\n    tag_174:\n        /* \"#utility.yul\":9780:9786   */\n      dup4\n        /* \"#utility.yul\":9773:9837   */\n      sstore\n        /* \"#utility.yul\":9695:9851   */\n      pop\n        /* \"#utility.yul\":9672:9851   */\n    tag_173:\n        /* \"#utility.yul\":9897:9898   */\n      0x01\n        /* \"#utility.yul\":9893:9894   */\n      0x02\n        /* \"#utility.yul\":9885:9891   */\n      dup9\n        /* \"#utility.yul\":9881:9895   */\n      mul\n        /* \"#utility.yul\":9877:9899   */\n      add\n        /* \"#utility.yul\":9871:9875   */\n      dup9\n        /* \"#utility.yul\":9864:9900   */\n      sstore\n        /* \"#utility.yul\":9299:9910   */\n      pop\n      pop\n      pop\n        /* \"#utility.yul\":9262:10149   */\n    tag_165:\n      pop\n        /* \"#utility.yul\":8852:10155   */\n      pop\n      pop\n      pop\n        /* \"#utility.yul\":8760:10155   */\n      pop\n      pop\n      jump\t// out\n\n    auxdata: 0xa2646970667358221220a1cf9359580ff2843534fd446f3c151b13d4d4ff3ec8b7a7481925e876d2a61964736f6c634300081a0033\n}\n",
				"bytecode": {
					"linkReferences": {},
					"object": "6080604052348015600e575f80fd5b503360015f6101000a81548173ffffffffffffffffffffffffffffffffffffffff021916908373ffffffffffffffffffffffffffffffffffffffff16021790555061079a8061005c5f395ff3fe608060405234801561000f575f80fd5b5060043610610034575f3560e01c8063d9290e4814610038578063e00fe2eb14610054575b5f80fd5b610052600480360381019061004d919061033d565b610072565b005b61005c610161565b60405161006991906103e4565b60405180910390f35b60015f9054906101000a900473ffffffffffffffffffffffffffffffffffffffff1673ffffffffffffffffffffffffffffffffffffffff163373ffffffffffffffffffffffffffffffffffffffff1614610101576040517f08c379a00000000000000000000000000000000000000000000000000000000081526004016100f890610474565b60405180910390fd5b805f908161010f9190610695565b503373ffffffffffffffffffffffffffffffffffffffff167ff600f68efdb8b734fcfd638ce924adddba9fbd69e4ff8421b76a81c7df87cb288260405161015691906103e4565b60405180910390a250565b60605f805461016f906104bf565b80601f016020809104026020016040519081016040528092919081815260200182805461019b906104bf565b80156101e65780601f106101bd576101008083540402835291602001916101e6565b820191905f5260205f20905b8154815290600101906020018083116101c957829003601f168201915b5050505050905090565b5f604051905090565b5f80fd5b5f80fd5b5f80fd5b5f80fd5b5f601f19601f8301169050919050565b7f4e487b71000000000000000000000000000000000000000000000000000000005f52604160045260245ffd5b61024f82610209565b810181811067ffffffffffffffff8211171561026e5761026d610219565b5b80604052505050565b5f6102806101f0565b905061028c8282610246565b919050565b5f67ffffffffffffffff8211156102ab576102aa610219565b5b6102b482610209565b9050602081019050919050565b828183375f83830152505050565b5f6102e16102dc84610291565b610277565b9050828152602081018484840111156102fd576102fc610205565b5b6103088482856102c1565b509392505050565b5f82601f83011261032457610323610201565b5b81356103348482602086016102cf565b91505092915050565b5f60208284031215610352576103516101f9565b5b5f82013567ffffffffffffffff81111561036f5761036e6101fd565b5b61037b84828501610310565b91505092915050565b5f81519050919050565b5f82825260208201905092915050565b8281835e5f83830152505050565b5f6103b682610384565b6103c0818561038e565b93506103d081856020860161039e565b6103d981610209565b840191505092915050565b5f6020820190508181035f8301526103fc81846103ac565b905092915050565b7f4f6e6c7920746865206f776e65722063616e2063616c6c20746869732066756e5f8201527f6374696f6e2e0000000000000000000000000000000000000000000000000000602082015250565b5f61045e60268361038e565b915061046982610404565b604082019050919050565b5f6020820190508181035f83015261048b81610452565b9050919050565b7f4e487b71000000000000000000000000000000000000000000000000000000005f52602260045260245ffd5b5f60028204905060018216806104d657607f821691505b6020821081036104e9576104e8610492565b5b50919050565b5f819050815f5260205f209050919050565b5f6020601f8301049050919050565b5f82821b905092915050565b5f6008830261054b7fffffffffffffffffffffffffffffffffffffffffffffffffffffffffffffffff82610510565b6105558683610510565b95508019841693508086168417925050509392505050565b5f819050919050565b5f819050919050565b5f61059961059461058f8461056d565b610576565b61056d565b9050919050565b5f819050919050565b6105b28361057f565b6105c66105be826105a0565b84845461051c565b825550505050565b5f90565b6105da6105ce565b6105e58184846105a9565b505050565b5b81811015610608576105fd5f826105d2565b6001810190506105eb565b5050565b601f82111561064d5761061e816104ef565b61062784610501565b81016020851015610636578190505b61064a61064285610501565b8301826105ea565b50505b505050565b5f82821c905092915050565b5f61066d5f1984600802610652565b1980831691505092915050565b5f610685838361065e565b9150826002028217905092915050565b61069e82610384565b67ffffffffffffffff8111156106b7576106b6610219565b5b6106c182546104bf565b6106cc82828561060c565b5f60209050601f8311600181146106fd575f84156106eb578287015190505b6106f5858261067a565b86555061075c565b601f19841661070b866104ef565b5f5b828110156107325784890151825560018201915060208501945060208101905061070d565b8683101561074f578489015161074b601f89168261065e565b8355505b6001600288020188555050505b50505050505056fea2646970667358221220a1cf9359580ff2843534fd446f3c151b13d4d4ff3ec8b7a7481925e876d2a61964736f6c634300081a0033",
					"opcodes": "PUSH1 0x80 PUSH1 0x40 MSTORE CALLVALUE DUP1 ISZERO PUSH1 0xE JUMPI PUSH0 DUP1 REVERT JUMPDEST POP CALLER PUSH1 0x1 PUSH0 PUSH2 0x100 EXP DUP2 SLOAD DUP2 PUSH20 0xFFFFFFFFFFFFFFFFFFFFFFFFFFFFFFFFFFFFFFFF MUL NOT AND SWAP1 DUP4 PUSH20 0xFFFFFFFFFFFFFFFFFFFFFFFFFFFFFFFFFFFFFFFF AND MUL OR SWAP1 SSTORE POP PUSH2 0x79A DUP1 PUSH2 0x5C PUSH0 CODECOPY PUSH0 RETURN INVALID PUSH1 0x80 PUSH1 0x40 MSTORE CALLVALUE DUP1 ISZERO PUSH2 0xF JUMPI PUSH0 DUP1 REVERT JUMPDEST POP PUSH1 0x4 CALLDATASIZE LT PUSH2 0x34 JUMPI PUSH0 CALLDATALOAD PUSH1 0xE0 SHR DUP1 PUSH4 0xD9290E48 EQ PUSH2 0x38 JUMPI DUP1 PUSH4 0xE00FE2EB EQ PUSH2 0x54 JUMPI JUMPDEST PUSH0 DUP1 REVERT JUMPDEST PUSH2 0x52 PUSH1 0x4 DUP1 CALLDATASIZE SUB DUP2 ADD SWAP1 PUSH2 0x4D SWAP2 SWAP1 PUSH2 0x33D JUMP JUMPDEST PUSH2 0x72 JUMP JUMPDEST STOP JUMPDEST PUSH2 0x5C PUSH2 0x161 JUMP JUMPDEST PUSH1 0x40 MLOAD PUSH2 0x69 SWAP2 SWAP1 PUSH2 0x3E4 JUMP JUMPDEST PUSH1 0x40 MLOAD DUP1 SWAP2 SUB SWAP1 RETURN JUMPDEST PUSH1 0x1 PUSH0 SWAP1 SLOAD SWAP1 PUSH2 0x100 EXP SWAP1 DIV PUSH20 0xFFFFFFFFFFFFFFFFFFFFFFFFFFFFFFFFFFFFFFFF AND PUSH20 0xFFFFFFFFFFFFFFFFFFFFFFFFFFFFFFFFFFFFFFFF AND CALLER PUSH20 0xFFFFFFFFFFFFFFFFFFFFFFFFFFFFFFFFFFFFFFFF AND EQ PUSH2 0x101 JUMPI PUSH1 0x40 MLOAD PUSH32 0x8C379A000000000000000000000000000000000000000000000000000000000 DUP2 MSTORE PUSH1 0x4 ADD PUSH2 0xF8 SWAP1 PUSH2 0x474 JUMP JUMPDEST PUSH1 0x40 MLOAD DUP1 SWAP2 SUB SWAP1 REVERT JUMPDEST DUP1 PUSH0 SWAP1 DUP2 PUSH2 0x10F SWAP2 SWAP1 PUSH2 0x695 JUMP JUMPDEST POP CALLER PUSH20 0xFFFFFFFFFFFFFFFFFFFFFFFFFFFFFFFFFFFFFFFF AND PUSH32 0xF600F68EFDB8B734FCFD638CE924ADDDBA9FBD69E4FF8421B76A81C7DF87CB28 DUP3 PUSH1 0x40 MLOAD PUSH2 0x156 SWAP2 SWAP1 PUSH2 0x3E4 JUMP JUMPDEST PUSH1 0x40 MLOAD DUP1 SWAP2 SUB SWAP1 LOG2 POP JUMP JUMPDEST PUSH1 0x60 PUSH0 DUP1 SLOAD PUSH2 0x16F SWAP1 PUSH2 0x4BF JUMP JUMPDEST DUP1 PUSH1 0x1F ADD PUSH1 0x20 DUP1 SWAP2 DIV MUL PUSH1 0x20 ADD PUSH1 0x40 MLOAD SWAP1 DUP2 ADD PUSH1 0x40 MSTORE DUP1 SWAP3 SWAP2 SWAP1 DUP2 DUP2 MSTORE PUSH1 0x20 ADD DUP3 DUP1 SLOAD PUSH2 0x19B SWAP1 PUSH2 0x4BF JUMP JUMPDEST DUP1 ISZERO PUSH2 0x1E6 JUMPI DUP1 PUSH1 0x1F LT PUSH2 0x1BD JUMPI PUSH2 0x100 DUP1 DUP4 SLOAD DIV MUL DUP4 MSTORE SWAP2 PUSH1 0x20 ADD SWAP2 PUSH2 0x1E6 JUMP JUMPDEST DUP3 ADD SWAP2 SWAP1 PUSH0 MSTORE PUSH1 0x20 PUSH0 KECCAK256 SWAP1 JUMPDEST DUP2 SLOAD DUP2 MSTORE SWAP1 PUSH1 0x1 ADD SWAP1 PUSH1 0x20 ADD DUP1 DUP4 GT PUSH2 0x1C9 JUMPI DUP3 SWAP1 SUB PUSH1 0x1F AND DUP3 ADD SWAP2 JUMPDEST POP POP POP POP POP SWAP1 POP SWAP1 JUMP JUMPDEST PUSH0 PUSH1 0x40 MLOAD SWAP1 POP SWAP1 JUMP JUMPDEST PUSH0 DUP1 REVERT JUMPDEST PUSH0 DUP1 REVERT JUMPDEST PUSH0 DUP1 REVERT JUMPDEST PUSH0 DUP1 REVERT JUMPDEST PUSH0 PUSH1 0x1F NOT PUSH1 0x1F DUP4 ADD AND SWAP1 POP SWAP2 SWAP1 POP JUMP JUMPDEST PUSH32 0x4E487B7100000000000000000000000000000000000000000000000000000000 PUSH0 MSTORE PUSH1 0x41 PUSH1 0x4 MSTORE PUSH1 0x24 PUSH0 REVERT JUMPDEST PUSH2 0x24F DUP3 PUSH2 0x209 JUMP JUMPDEST DUP2 ADD DUP2 DUP2 LT PUSH8 0xFFFFFFFFFFFFFFFF DUP3 GT OR ISZERO PUSH2 0x26E JUMPI PUSH2 0x26D PUSH2 0x219 JUMP JUMPDEST JUMPDEST DUP1 PUSH1 0x40 MSTORE POP POP POP JUMP JUMPDEST PUSH0 PUSH2 0x280 PUSH2 0x1F0 JUMP JUMPDEST SWAP1 POP PUSH2 0x28C DUP3 DUP3 PUSH2 0x246 JUMP JUMPDEST SWAP2 SWAP1 POP JUMP JUMPDEST PUSH0 PUSH8 0xFFFFFFFFFFFFFFFF DUP3 GT ISZERO PUSH2 0x2AB JUMPI PUSH2 0x2AA PUSH2 0x219 JUMP JUMPDEST JUMPDEST PUSH2 0x2B4 DUP3 PUSH2 0x209 JUMP JUMPDEST SWAP1 POP PUSH1 0x20 DUP2 ADD SWAP1 POP SWAP2 SWAP1 POP JUMP JUMPDEST DUP3 DUP2 DUP4 CALLDATACOPY PUSH0 DUP4 DUP4 ADD MSTORE POP POP POP JUMP JUMPDEST PUSH0 PUSH2 0x2E1 PUSH2 0x2DC DUP5 PUSH2 0x291 JUMP JUMPDEST PUSH2 0x277 JUMP JUMPDEST SWAP1 POP DUP3 DUP2 MSTORE PUSH1 0x20 DUP2 ADD DUP5 DUP5 DUP5 ADD GT ISZERO PUSH2 0x2FD JUMPI PUSH2 0x2FC PUSH2 0x205 JUMP JUMPDEST JUMPDEST PUSH2 0x308 DUP5 DUP3 DUP6 PUSH2 0x2C1 JUMP JUMPDEST POP SWAP4 SWAP3 POP POP POP JUMP JUMPDEST PUSH0 DUP3 PUSH1 0x1F DUP4 ADD SLT PUSH2 0x324 JUMPI PUSH2 0x323 PUSH2 0x201 JUMP JUMPDEST JUMPDEST DUP2 CALLDATALOAD PUSH2 0x334 DUP5 DUP3 PUSH1 0x20 DUP7 ADD PUSH2 0x2CF JUMP JUMPDEST SWAP2 POP POP SWAP3 SWAP2 POP POP JUMP JUMPDEST PUSH0 PUSH1 0x20 DUP3 DUP5 SUB SLT ISZERO PUSH2 0x352 JUMPI PUSH2 0x351 PUSH2 0x1F9 JUMP JUMPDEST JUMPDEST PUSH0 DUP3 ADD CALLDATALOAD PUSH8 0xFFFFFFFFFFFFFFFF DUP2 GT ISZERO PUSH2 0x36F JUMPI PUSH2 0x36E PUSH2 0x1FD JUMP JUMPDEST JUMPDEST PUSH2 0x37B DUP5 DUP3 DUP6 ADD PUSH2 0x310 JUMP JUMPDEST SWAP2 POP POP SWAP3 SWAP2 POP POP JUMP JUMPDEST PUSH0 DUP2 MLOAD SWAP1 POP SWAP2 SWAP1 POP JUMP JUMPDEST PUSH0 DUP3 DUP3 MSTORE PUSH1 0x20 DUP3 ADD SWAP1 POP SWAP3 SWAP2 POP POP JUMP JUMPDEST DUP3 DUP2 DUP4 MCOPY PUSH0 DUP4 DUP4 ADD MSTORE POP POP POP JUMP JUMPDEST PUSH0 PUSH2 0x3B6 DUP3 PUSH2 0x384 JUMP JUMPDEST PUSH2 0x3C0 DUP2 DUP6 PUSH2 0x38E JUMP JUMPDEST SWAP4 POP PUSH2 0x3D0 DUP2 DUP6 PUSH1 0x20 DUP7 ADD PUSH2 0x39E JUMP JUMPDEST PUSH2 0x3D9 DUP2 PUSH2 0x209 JUMP JUMPDEST DUP5 ADD SWAP2 POP POP SWAP3 SWAP2 POP POP JUMP JUMPDEST PUSH0 PUSH1 0x20 DUP3 ADD SWAP1 POP DUP2 DUP2 SUB PUSH0 DUP4 ADD MSTORE PUSH2 0x3FC DUP2 DUP5 PUSH2 0x3AC JUMP JUMPDEST SWAP1 POP SWAP3 SWAP2 POP POP JUMP JUMPDEST PUSH32 0x4F6E6C7920746865206F776E65722063616E2063616C6C20746869732066756E PUSH0 DUP3 ADD MSTORE PUSH32 0x6374696F6E2E0000000000000000000000000000000000000000000000000000 PUSH1 0x20 DUP3 ADD MSTORE POP JUMP JUMPDEST PUSH0 PUSH2 0x45E PUSH1 0x26 DUP4 PUSH2 0x38E JUMP JUMPDEST SWAP2 POP PUSH2 0x469 DUP3 PUSH2 0x404 JUMP JUMPDEST PUSH1 0x40 DUP3 ADD SWAP1 POP SWAP2 SWAP1 POP JUMP JUMPDEST PUSH0 PUSH1 0x20 DUP3 ADD SWAP1 POP DUP2 DUP2 SUB PUSH0 DUP4 ADD MSTORE PUSH2 0x48B DUP2 PUSH2 0x452 JUMP JUMPDEST SWAP1 POP SWAP2 SWAP1 POP JUMP JUMPDEST PUSH32 0x4E487B7100000000000000000000000000000000000000000000000000000000 PUSH0 MSTORE PUSH1 0x22 PUSH1 0x4 MSTORE PUSH1 0x24 PUSH0 REVERT JUMPDEST PUSH0 PUSH1 0x2 DUP3 DIV SWAP1 POP PUSH1 0x1 DUP3 AND DUP1 PUSH2 0x4D6 JUMPI PUSH1 0x7F DUP3 AND SWAP2 POP JUMPDEST PUSH1 0x20 DUP3 LT DUP2 SUB PUSH2 0x4E9 JUMPI PUSH2 0x4E8 PUSH2 0x492 JUMP JUMPDEST JUMPDEST POP SWAP2 SWAP1 POP JUMP JUMPDEST PUSH0 DUP2 SWAP1 POP DUP2 PUSH0 MSTORE PUSH1 0x20 PUSH0 KECCAK256 SWAP1 POP SWAP2 SWAP1 POP JUMP JUMPDEST PUSH0 PUSH1 0x20 PUSH1 0x1F DUP4 ADD DIV SWAP1 POP SWAP2 SWAP1 POP JUMP JUMPDEST PUSH0 DUP3 DUP3 SHL SWAP1 POP SWAP3 SWAP2 POP POP JUMP JUMPDEST PUSH0 PUSH1 0x8 DUP4 MUL PUSH2 0x54B PUSH32 0xFFFFFFFFFFFFFFFFFFFFFFFFFFFFFFFFFFFFFFFFFFFFFFFFFFFFFFFFFFFFFFFF DUP3 PUSH2 0x510 JUMP JUMPDEST PUSH2 0x555 DUP7 DUP4 PUSH2 0x510 JUMP JUMPDEST SWAP6 POP DUP1 NOT DUP5 AND SWAP4 POP DUP1 DUP7 AND DUP5 OR SWAP3 POP POP POP SWAP4 SWAP3 POP POP POP JUMP JUMPDEST PUSH0 DUP2 SWAP1 POP SWAP2 SWAP1 POP JUMP JUMPDEST PUSH0 DUP2 SWAP1 POP SWAP2 SWAP1 POP JUMP JUMPDEST PUSH0 PUSH2 0x599 PUSH2 0x594 PUSH2 0x58F DUP5 PUSH2 0x56D JUMP JUMPDEST PUSH2 0x576 JUMP JUMPDEST PUSH2 0x56D JUMP JUMPDEST SWAP1 POP SWAP2 SWAP1 POP JUMP JUMPDEST PUSH0 DUP2 SWAP1 POP SWAP2 SWAP1 POP JUMP JUMPDEST PUSH2 0x5B2 DUP4 PUSH2 0x57F JUMP JUMPDEST PUSH2 0x5C6 PUSH2 0x5BE DUP3 PUSH2 0x5A0 JUMP JUMPDEST DUP5 DUP5 SLOAD PUSH2 0x51C JUMP JUMPDEST DUP3 SSTORE POP POP POP POP JUMP JUMPDEST PUSH0 SWAP1 JUMP JUMPDEST PUSH2 0x5DA PUSH2 0x5CE JUMP JUMPDEST PUSH2 0x5E5 DUP2 DUP5 DUP5 PUSH2 0x5A9 JUMP JUMPDEST POP POP POP JUMP JUMPDEST JUMPDEST DUP2 DUP2 LT ISZERO PUSH2 0x608 JUMPI PUSH2 0x5FD PUSH0 DUP3 PUSH2 0x5D2 JUMP JUMPDEST PUSH1 0x1 DUP2 ADD SWAP1 POP PUSH2 0x5EB JUMP JUMPDEST POP POP JUMP JUMPDEST PUSH1 0x1F DUP3 GT ISZERO PUSH2 0x64D JUMPI PUSH2 0x61E DUP2 PUSH2 0x4EF JUMP JUMPDEST PUSH2 0x627 DUP5 PUSH2 0x501 JUMP JUMPDEST DUP2 ADD PUSH1 0x20 DUP6 LT ISZERO PUSH2 0x636 JUMPI DUP2 SWAP1 POP JUMPDEST PUSH2 0x64A PUSH2 0x642 DUP6 PUSH2 0x501 JUMP JUMPDEST DUP4 ADD DUP3 PUSH2 0x5EA JUMP JUMPDEST POP POP JUMPDEST POP POP POP JUMP JUMPDEST PUSH0 DUP3 DUP3 SHR SWAP1 POP SWAP3 SWAP2 POP POP JUMP JUMPDEST PUSH0 PUSH2 0x66D PUSH0 NOT DUP5 PUSH1 0x8 MUL PUSH2 0x652 JUMP JUMPDEST NOT DUP1 DUP4 AND SWAP2 POP POP SWAP3 SWAP2 POP POP JUMP JUMPDEST PUSH0 PUSH2 0x685 DUP4 DUP4 PUSH2 0x65E JUMP JUMPDEST SWAP2 POP DUP3 PUSH1 0x2 MUL DUP3 OR SWAP1 POP SWAP3 SWAP2 POP POP JUMP JUMPDEST PUSH2 0x69E DUP3 PUSH2 0x384 JUMP JUMPDEST PUSH8 0xFFFFFFFFFFFFFFFF DUP2 GT ISZERO PUSH2 0x6B7 JUMPI PUSH2 0x6B6 PUSH2 0x219 JUMP JUMPDEST JUMPDEST PUSH2 0x6C1 DUP3 SLOAD PUSH2 0x4BF JUMP JUMPDEST PUSH2 0x6CC DUP3 DUP3 DUP6 PUSH2 0x60C JUMP JUMPDEST PUSH0 PUSH1 0x20 SWAP1 POP PUSH1 0x1F DUP4 GT PUSH1 0x1 DUP2 EQ PUSH2 0x6FD JUMPI PUSH0 DUP5 ISZERO PUSH2 0x6EB JUMPI DUP3 DUP8 ADD MLOAD SWAP1 POP JUMPDEST PUSH2 0x6F5 DUP6 DUP3 PUSH2 0x67A JUMP JUMPDEST DUP7 SSTORE POP PUSH2 0x75C JUMP JUMPDEST PUSH1 0x1F NOT DUP5 AND PUSH2 0x70B DUP7 PUSH2 0x4EF JUMP JUMPDEST PUSH0 JUMPDEST DUP3 DUP2 LT ISZERO PUSH2 0x732 JUMPI DUP5 DUP10 ADD MLOAD DUP3 SSTORE PUSH1 0x1 DUP3 ADD SWAP2 POP PUSH1 0x20 DUP6 ADD SWAP5 POP PUSH1 0x20 DUP2 ADD SWAP1 POP PUSH2 0x70D JUMP JUMPDEST DUP7 DUP4 LT ISZERO PUSH2 0x74F JUMPI DUP5 DUP10 ADD MLOAD PUSH2 0x74B PUSH1 0x1F DUP10 AND DUP3 PUSH2 0x65E JUMP JUMPDEST DUP4 SSTORE POP JUMPDEST PUSH1 0x1 PUSH1 0x2 DUP9 MUL ADD DUP9 SSTORE POP POP POP JUMPDEST POP POP POP POP POP POP JUMP INVALID LOG2 PUSH5 0x6970667358 0x22 SLT KECCAK256 LOG1 0xCF SWAP4 MSIZE PC 0xF CALLCODE DUP5 CALLDATALOAD CALLVALUE REVERT PREVRANDAO PUSH16 0x3C151B13D4D4FF3EC8B7A7481925E876 0xD2 0xA6 NOT PUSH5 0x736F6C6343 STOP ADDMOD BYTE STOP CALLER "
				},
				"gasEstimates": {
					"creation": {
						"codeDepositCost": "389200",
						"executionCost": "24687",
						"totalCost": "413887"
					},
					"external": {
						"getText()": "infinite",
						"storeText(string)": "infinite"
					}
				},
				"methodIdentifiers": {
					"getText()": "e00fe2eb",
					"storeText(string)": "d9290e48"
				}
			},
			"storageLayout": {
				"storage": [
					{
						"astId": 3,
						"contract": "contracts/TextStorage.sol:TextStorage",
						"label": "storedText",
						"offset": 0,
						"slot": "0",
						"type": "t_string_storage"
					},
					{
						"astId": 5,
						"contract": "contracts/TextStorage.sol:TextStorage",
						"label": "owner",
						"offset": 0,
						"slot": "1",
						"type": "t_address"
					}
				],
				"types": {
					"t_address": {
						"encoding": "inplace",
						"label": "address",
						"numberOfBytes": "20"
					},
					"t_string_storage": {
						"encoding": "bytes",
						"label": "string",
						"numberOfBytes": "32"
					}
				}
			},
			"userdoc": {
				"kind": "user",
				"methods": {},
				"version": 1
			}
		}
	}
}