{
	"data": {
		"bytecode": {
			"linkReferences": {},
			"object": "6080604052346103d257604080519081016001600160401b038111828210176102e85760409081526008825267111bdc1d5b13919560c21b602083015280519081016001600160401b038111828210176102e85760405260038152620444f560ec1b602082015281516001600160401b0381116102e8575f54600181811c911680156103c8575b60208210146102ca57601f8111610366575b50602092601f821160011461030757928192935f926102fc575b50508160011b915f199060031b1c1916175f555b80516001600160401b0381116102e857600154600181811c911680156102de575b60208210146102ca57601f8111610267575b50602091601f8211600114610207579181925f926101fc575b50508160011b915f199060031b1c1916176001555b33156101e95760068054336001600160a01b03198216811790925560405160269290916001600160a01b03167f8be0079c531659141344cd1fd0a4f28419497f9722a3daafe3b4186f6b6457e05f80a3600360ff1960095416176009556045600c5560b4600d556032600e556529b4b63b32b960d11b8152600f60068201522060015f52602052600260405f205560246040516311dbdb1960e21b8152600f60048201522060015f52602052600660405f205560405161309b90816103d78239f35b631e4fbdf760e01b5f525f60045260245ffd5b015190505f80610112565b601f1982169260015f52805f20915f5b85811061024f57508360019510610237575b505050811b01600155610127565b01515f1960f88460031b161c191690555f8080610229565b91926020600181928685015181550194019201610217565b60015f527fb10e2d527612073b26eecdfd717e6a320cf44b4afac2b0732d9fcbe2b7fa0cf6601f830160051c810191602084106102c0575b601f0160051c01905b8181106102b557506100f9565b5f81556001016102a8565b909150819061029f565b634e487b7160e01b5f52602260045260245ffd5b90607f16906100e7565b634e487b7160e01b5f52604160045260245ffd5b015190505f806100b2565b601f198216935f8052805f20915f5b86811061034e5750836001959610610336575b505050811b015f556100c6565b01515f1960f88460031b161c191690555f8080610329565b91926020600181928685015181550194019201610316565b5f80527f290decd9548b62a8d60345a988386fc84ba6bc95484008f6362f93160ef3e563601f830160051c810191602084106103be575b601f0160051c01905b8181106103b35750610098565b5f81556001016103a6565b909150819061039d565b90607f1690610086565b5f80fdfe6080806040526004361015610012575f80fd5b5f3560e01c90816301ffc9a7146128345750806306fdde0314612792578063081812fc14612756578063095ea7b31461266c57806323b872dd146126555780632766bd811461263457806335aa2e44146125f257806338c6fe20146125d157806340a141ff146125a857806341b994c3146116fa57806342842e0e146116cb578063495410151461158b5780634d238c8e146114195780634ee3c5ec14610dc357806357c8f5ba146113fc5780635c952782146113db5780635cf13ec314611374578063632f96051461132b5780636352211e146112fb57806370a08231146112aa578063715018a61461124f57806382260f3514610f0d5780638da5cb5b14610ee557806395d89b4114610e1b57806399c1aadc14610dfb5780639f12736514610dc3578063a22cb46514610d22578063b1ab7df814610d07578063b7ab4db514610c76578063b88d4fde14610c0b578063be4d2cf814610bee578063c4c2e1af14610b0a578063c87b56dd14610906578063c88388e8146108aa578063db129fe61461088d578063dfe9ac8214610484578063e79442f714610422578063e985e9c5146103cb578063f235a7aa1461025e5763f2fde38b146101d4575f80fd5b3461025a57602036600319011261025a576101ed6128c3565b6101f5612f08565b6001600160a01b0316801561024757600680546001600160a01b0319811683179091556001600160a01b03167f8be0079c531659141344cd1fd0a4f28419497f9722a3daafe3b4186f6b6457e05f80a3005b631e4fbdf760e01b5f525f60045260245ffd5b5f80fd5b3461025a57602036600319011261025a576004355f81815260026020526040902054610299906001600160a01b03161515612e6c565b612e6c565b600854906102a682612a10565b916102b46040519384612971565b808352601f196102c382612a10565b013660208501376102d381612a10565b906102e16040519283612971565b8082526102ed81612a10565b602083019390601f19013685375f5b82811061035a5761031f8686866020604051948594604086526040860190612b0c565b918483038286015251918281520191905f5b81811061033f575050500390f35b82511515845285945060209384019390920191600101610331565b80610366600192612929565b838060a01b0391549060031b1c1661037e8289612ec0565b52825f52600a60205260405f2061039482612929565b848060a01b0391549060031b1c16838060a01b03165f5260205260ff60405f2054166103c08287612ec0565b9015159052016102fc565b3461025a57604036600319011261025a576103e46128c3565b6103ec6128d9565b9060018060a01b03165f52600560205260405f209060018060a01b03165f52602052602060ff60405f2054166040519015158152f35b3461025a57604036600319011261025a576004356001600160401b03811161025a576020610455819236906004016129e3565b604051928184925191829101835e8101600f8152030190206024355f52602052602060405f2054604051908152f35b3461025a57604036600319011261025a576004356104a0612a01565b5f80600854905b818110610858575b50501561080457815f526010602052600b60405f20019060ff825460b01c1660038110156106d9576107bf575f838152600a6020908152604080832033845290915290205460ff1661076a575f838152600a602090815260408083203384529091529020805460ff191660ff831515161790557f84a90096ac427a0c37b4c63f7546a8c108d286a2295af0fdeabdef76b41a3aeb9060609080156107385761057a61056060ff865460a01c16612eaf565b855460ff60a01b191660a09190911b60ff60a01b16178555565b6040519085825233602083015215156040820152a1805460ff8160a01c169060ff60095416821091821580610721575b15610650575050815460ff60b01b1916600160b01b179091555060408051918252600160208301527fb7f4f9e3ed59fb76002e13568e790e82dee2b19f7e250697201014540e46929291a1600e54335f52600b60205261060f60405f20918254612e5f565b9055600e546040805133815260208101929092527ff9f00d0c5a2885acbe30ed68e369e4dc8014646b6e65ba0a4498da35e0d69c1c9190819081015b0390a1005b826106ed575b50816106c1575b50610665575b005b805460ff60b01b1916600160b11b17905560408051918252600260208301527fb7f4f9e3ed59fb76002e13568e790e82dee2b19f7e250697201014540e46929291a1600e54335f52600b60205261060f60405f20918254612e5f565b60ff915060b01c1660038110156106d957158361065d565b634e487b7160e01b5f52602160045260245ffd5b90915060ff8260a81c160160ff811161070d5760ff166005149084610656565b634e487b7160e01b5f52601160045260245ffd5b5060ff8260b01c1660038110156106d957156105aa565b61076561074b60ff865460a81c16612eaf565b855460ff60a81b191660a89190911b60ff60a81b16178555565b61057a565b60405162461bcd60e51b815260206004820152602760248201527f56616c696461746f722068617320616c726561647920766f746564206f6e20746044820152661a1a5cc813919560ca1b6064820152608490fd5b60405162461bcd60e51b815260206004820152601c60248201527f4e4654206973206e6f7420696e2050656e64696e6720737461747573000000006044820152606490fd5b60405162461bcd60e51b815260206004820152602660248201527f4f6e6c792076616c696461746f72732063616e2063616c6c20746869732066756044820152653731ba34b7b760d11b6064820152608490fd5b61086181612929565b905460039190911b1c6001600160a01b03163314610881576001016104a7565b505050600183806104af565b3461025a575f36600319011261025a576020600d54604051908152f35b3461025a57602036600319011261025a576004355f818152600260205260409020546108e0906001600160a01b03161515612e6c565b5f526010602052602060ff600b60405f20015460b01c166109046040518092612aff565bf35b3461025a57602036600319011261025a576004355f8181526002602052604090205461093c906001600160a01b03161515612e6c565b5f818072184f03e93ff9f4daa797ed6e38ed64bf6a1f0160401b811015610ae4575b50806d04ee2d6d415b85acef8100000000600a921015610ac9575b662386f26fc10000811015610ab5575b6305f5e100811015610aa4575b612710811015610a95575b6064811015610a87575b1015610a7f575b6001810191600a60216109dd6109c786612992565b956109d56040519788612971565b808752612992565b602086019490601f19013686378501015b5f1901916f181899199a1a9b1b9c1cb0b131b232b360811b8282061a835304908115610a1c57600a906109ee565b610a7b83610a6760358760405193849174697066733a2f2f796f75725f697066735f6369642f60581b60208401525180918484015e81015f838201520301601f198101835282612971565b60405191829160208352602083019061289f565b0390f35b6001016109b2565b6064600291049201916109ab565b612710600491049201916109a1565b6305f5e10060089104920191610996565b662386f26fc1000060109104920191610989565b6d04ee2d6d415b85acef810000000060209104920191610979565b6040925072184f03e93ff9f4daa797ed6e38ed64bf6a1f0160401b90049050600a61095e565b3461025a57602036600319011261025a5760043560ff811680910361025a57610b31612f08565b80151580610be3575b15610b78576020817f79ec809341d81e6a3a27ec5b6293d952d27a819e0fc5ed2481299495846aa5a89260ff196009541617600955604051908152a1005b60405162461bcd60e51b815260206004820152603d60248201527f526571756972656420617070726f76616c73206d75737420626520626574776560448201527f656e203120616e64206e756d626572206f662076616c696461746f72730000006064820152608490fd5b506005811115610b3a565b3461025a575f36600319011261025a576020600c54604051908152f35b3461025a57608036600319011261025a57610c246128c3565b610c2c6128d9565b90604435606435926001600160401b03841161025a573660238501121561025a57610c646106639436906024816004013591016129ad565b92610c70838383612b48565b33612f2f565b3461025a575f36600319011261025a5760405180602060085491828152019060085f527ff3f7a9fe364faab93b216da50a3214154f22a0a2b415b23a84c8169e8b636ee3905f5b818110610ce857610a7b85610cd481870382612971565b604051918291602083526020830190612b0c565b82546001600160a01b0316845260209093019260019283019201610cbd565b3461025a575f36600319011261025a57602060405160058152f35b3461025a57604036600319011261025a57610d3b6128c3565b610d43612a01565b6001600160a01b03909116908115610db057335f52600560205260405f20825f52602052610d808160405f209060ff801983541691151516179055565b60405190151581527f17307eab39ab6107e8899845ad3d59bd9653f200f220920489ca2b5937696c3160203392a3005b50630b61174360e31b5f5260045260245ffd5b3461025a57602036600319011261025a576001600160a01b03610de46128c3565b165f52600b602052602060405f2054604051908152f35b3461025a575f36600319011261025a57602060ff60095416604051908152f35b3461025a575f36600319011261025a576040515f600154610e3b81612a27565b8084529060018116908115610ec15750600114610e63575b610a7b83610a6781850382612971565b60015f9081527fb10e2d527612073b26eecdfd717e6a320cf44b4afac2b0732d9fcbe2b7fa0cf6939250905b808210610ea757509091508101602001610a67610e53565b919260018160209254838588010152019101909291610e8f565b60ff191660208086019190915291151560051b84019091019150610a679050610e53565b3461025a575f36600319011261025a576006546040516001600160a01b039091168152602090f35b3461025a57602036600319011261025a576004355f6101c0604051610f3181612955565b6060815260606020820152826040820152606080820152606060808201528260a0820152606060c08201528260e0820152826101008201528261012082015260606101408201528261016082015282610180820152826101a08201520152610faf610294825f52600260205260018060a01b0360405f205416151590565b5f52601060205260405f20604051610fc681612955565b610fcf82612a5f565b8152610fdd60018301612a5f565b906020810191825260028301549060408101918252610ffe60038501612a5f565b6060820190815261101160048601612a5f565b906080830191825260058601549560a0840196875261103260068201612a5f565b60c0850190815260078201549760e08601988952600883015490610100870191825260ff6009850154169261012088019315158452600a850194855461107781612a10565b966110856040519889612971565b81885260208801905f5260205f205f915b8383106112325750505050600b906101408a0196875201549661016089019960018060a01b0389168b526101808a019760ff8a60a01c16895260ff6101a08c019a818160a81c168c5260b01c169a6101c081019b60038110156106d9578c526040519d8e916020835251602083016101e0905261020083016111179161289f565b9051828203601f1901604084015261112f919061289f565b9251606090910152518c8203601f190160808e015261114e919061289f565b90518b8203601f190160a08d0152611166919061289f565b915160c08b015251898203601f190160e08b0152611184919061289f565b9851610100890152516101208801525115156101408701525193601f1986880301610160870152845180885260208801908060051b890160200196602001915f905b8282106112065789808a610a7b8b60ff8c818d8d60018060a01b0390511661018089015251166101a087015251166101c0850152516101e0840190612aff565b909192976020806112246001938e601f199082030186528c5161289f565b9a01920192019092916111c6565b60016020819261124185612a5f565b815201920192019190611096565b3461025a575f36600319011261025a57611267612f08565b600680546001600160a01b031981169091555f906001600160a01b03167f8be0079c531659141344cd1fd0a4f28419497f9722a3daafe3b4186f6b6457e08280a3005b3461025a57602036600319011261025a576001600160a01b036112cb6128c3565b1680156112e8575f526003602052602060405f2054604051908152f35b6322718ad960e21b5f525f60045260245ffd5b3461025a57602036600319011261025a576020611319600435612ed4565b6040516001600160a01b039091168152f35b3461025a57604036600319011261025a576113446128d9565b6004355f52600a60205260405f209060018060a01b03165f52602052602060ff60405f2054166040519015158152f35b3461025a57606036600319011261025a576004356001600160401b03811161025a5760206113a7819236906004016129e3565b6113af612f08565b604051928184925191829101835e8101600f8152030190206024355f5260205260443560405f20555f80f35b3461025a57602036600319011261025a576113f4612f08565b600435600d55005b3461025a575f36600319011261025a576020600e54604051908152f35b3461025a57602036600319011261025a576114326128c3565b61143a612f08565b60085490600582101561154d576001600160a01b0381165f5b8381106114df5750600160401b8310156114cb576114c260209261149e8560017fe366c1c0452ed8eec96861e9e54141ebff23c9ec89fe27b996b45f5ec38849879701600855612929565b81546001600160a01b0393841660039290921b91821b9390911b1916919091179055565b604051908152a1005b634e487b7160e01b5f52604160045260245ffd5b816114e982612929565b905460039190911b1c6001600160a01b03161461150857600101611453565b60405162461bcd60e51b815260206004820152601860248201527f56616c696461746f7220616c72656164792065786973747300000000000000006044820152606490fd5b60405162461bcd60e51b815260206004820152601660248201527515985b1a59185d1bdc881b1a5cdd081a5cc8199d5b1b60521b6044820152606490fd5b3461025a57602036600319011261025a576004355f52601060205260405f206115b381612a5f565b6115bf60018301612a5f565b916002810154600382016115d290612a5f565b916115df60048201612a5f565b926005820154600683016115f290612a5f565b90600784015495600885015493600986015460ff1695600b0154966040519a8b9a6101c08c526101c08c016116269161289f565b8b810360208d01526116379161289f565b9060408b015289810360608b015261164e9161289f565b88810360808a015261165f9161289f565b9060a088015286810360c08801526116769161289f565b9360e08601526101008501521515610120840152600160a01b6001900381166101408401528060a01c60ff166101608401528060a81c60ff166101808401526101a083019060b01c60ff1690610a7b91612aff565b3461025a576106636116dc366128ef565b90604051926116ec602085612971565b5f8452610c70838383612b48565b61016036600319011261025a576004356001600160401b03811161025a576117269036906004016129e3565b6024356001600160401b03811161025a576117459036906004016129e3565b6064356001600160401b03811161025a576117649036906004016129e3565b906084356001600160401b03811161025a576117849036906004016129e3565b9160a4359360c4356001600160401b03811161025a576117a89036906004016129e3565b60e4356101243580151580910361025a5761014435916001600160401b03831161025a573660238401121561025a5782600401356117e581612a10565b936117f36040519586612971565b8185526024602086019260051b8201019036821161025a5760248101925b8284106125795750505050600283511061253457620186a081116124e3576298968089116124935760075493600185016007556020986040516118548b82612971565b5f81523315612480575f87815260028c5260409020546001600160a01b0316801515908161244f575b335f5260038d5260405f2060018154019055885f5260028d5260405f2060018060a01b0333166bffffffffffffffffffffffff60a01b8254161790558833827fddf252ad1be2c89b69c2b068fc378daa952ba7f163c4a11628f55a4df523b3ef5f80a45061243c578a333b612333575b505088518a8a01206118fd612df0565b8051908c01200361229a576127108b028b8104612710148c15171561070d576127106301da99a88c808d604051928184925191829101835e600f908201908152030190209204045f528a525b6040519761195689612955565b878952898b8a015260443560408a0152606089015260808801528960a088015260c087015260e086015261010435610100860152610120850152610140840152336101608401525f6101808401525f6101a08401525f6101c0840152805f526010855260405f2083518051906001600160401b0382116114cb576119da8354612a27565b601f811161226c575b508790601f831160011461220557611a1292915f9183611f82575b50508160011b915f199060031b1c19161790565b81555b858401518051906001600160401b0382116114cb57611a376001840154612a27565b601f81116121d4575b508790601f831160011461216757611a6e92915f9183611f825750508160011b915f199060031b1c19161790565b60018201555b6040840151600282015560608401518051906001600160401b0382116114cb57611aa16003840154612a27565b601f8111612136575b508790601f83116001146120c957611ad892915f9183611f825750508160011b915f199060031b1c19161790565b60038201555b60808401518051906001600160401b0382116114cb57611b016004840154612a27565b601f8111612098575b508790601f831160011461202b57611b3892915f9183611f825750508160011b915f199060031b1c19161790565b60048201555b60a0840151600582015560c08401518051906001600160401b0382116114cb57611b6b6006840154612a27565b601f8111611ffa575b508790601f8311600114611f8d57611ba292915f9183611f825750508160011b915f199060031b1c19161790565b60068201555b60e084015160078201556101008401516008820155611bdd6101208501511515600983019060ff801983541691151516179055565b600a8101610140850151805190600160401b82116114cb5788908354838555808410611f06575b5001915f52875f205f925b828410611dea5750505050610160840151600b91909101805461018086015160ff60a01b60a09190911b166001600160a01b039093166001600160a81b031990911617919091178155926101c0906101a0810151855460ff60a81b191660a89190911b60ff60a81b1617855501519260038410156106d9577f06becd955c918828f6e985541acbf49cc842c9e9bd569fffc7698e721ef135759381549060ff60b01b9060b01b169060ff60b01b1916179055611ce26040519283928352338784015260606040840152606083019061289f565b0390a1805182820120611cf3612df0565b80519084012003611d7557506301da99a8611d5c7ff9f00d0c5a2885acbe30ed68e369e4dc8014646b6e65ba0a4498da35e0d69c1c9361064b93600b84611d3c600c5485612e4c565b0491335f5252611d5160405f20918254612e5f565b9055600c5490612e4c565b6040805133815292909104602083015290918291820190565b818151910120611d83612e14565b82815191012014611d9057005b6064611d5c7ff9f00d0c5a2885acbe30ed68e369e4dc8014646b6e65ba0a4498da35e0d69c1c9361064b93600b84611dca600d5485612e4c565b0491335f5252611ddf60405f20918254612e5f565b9055600d5490612e4c565b80519081516001600160401b0381116114cb578b92611e098554612a27565b601f8111611ecd575b508390601f8311600114611e60578260019593869593611e46935f92611e555750508160011b915f199060031b1c19161790565b85555b01920193019290611c0f565b015190505f806119fe565b90855f95949552835f20915f5b601f1985168110611eb55750926001959286959492869383601f19811610611e9d575b505050811b018555611e49565b01515f1960f88460031b161c191690555f8080611e90565b8183015184558f956001909401939283019201611e6d565b611ef690865f52855f20601f850160051c810191878610611efc575b601f0160051c0190612e36565b8e611e12565b9091508190611ee9565b845f5283835f2091820191015b818110611f205750611c04565b6001919293611f2f8254612a27565b80611f41575b505001908a9291611f13565b601f81118414611f585750505f81555b8b8e611f35565b83601f611f7293855f525f20920160051c82019101612e36565b805f525f8c812081835555611f51565b015190508a806119fe565b9190600684015f52885f20905f935b8a601f1985168610611fe157506001945083601f19811610611fc9575b505050811b016006820155611ba8565b01515f1960f88460031b161c19169055898080611fb9565b8282015184559485019460019093019290910190611f9c565b61202590600685015f52895f20601f850160051c8101918b8610611efc57601f0160051c0190612e36565b89611b74565b9190600484015f52885f20905f935b8a601f198516861061207f57506001945083601f19811610612067575b505050811b016004820155611b3e565b01515f1960f88460031b161c19169055898080612057565b828201518455948501946001909301929091019061203a565b6120c390600485015f52895f20601f850160051c8101918b8610611efc57601f0160051c0190612e36565b89611b0a565b9190600384015f52885f20905f935b8a601f198516861061211d57506001945083601f19811610612105575b505050811b016003820155611ade565b01515f1960f88460031b161c191690558980806120f5565b82820151845594850194600190930192909101906120d8565b61216190600385015f52895f20601f850160051c8101918b8610611efc57601f0160051c0190612e36565b89611aaa565b9190600184015f52885f20905f935b8a601f19851686106121bb57506001945083601f198116106121a3575b505050811b016001820155611a74565b01515f1960f88460031b161c19169055898080612193565b8282015184559485019460019093019290910190612176565b6121ff90600185015f52895f20601f850160051c8101918b8610611efc57601f0160051c0190612e36565b89611a40565b9190835f52885f20905f935b8a601f198516861061225357506001945083601f1981161061223b575b505050811b018155611a15565b01515f1960f88460031b161c1916905589808061222e565b8282015184559485019460019093019290910190612211565b61229490845f52895f20601f850160051c8101918b8610611efc57601f0160051c0190612e36565b896119e3565b88518a8a01206122a8612e14565b8051908c0120036122db576040518a81818c805191829101835e600f9082019081520301902060648c045f528a52611949565b60405162461bcd60e51b8152600481018b9052602a60248201527f556e737570706f72746564206173736574207479706520666f7220666565206360448201526930b631bab630ba34b7b760b11b6064820152608490fd5b61236b9160405180938192630a85bd0160e11b83523360048401525f60248401528b604484015260806064840152608483019061289f565b03815f335af15f91816123fc575b506123cb578a3d156123c4573d61238f81612992565b9061239d6040519283612971565b81523d5f8383013e5b805191826123c157633250574960e11b5f523360045260245ffd5b01fd5b60606123a6565b6001600160e01b03191663757a42ff60e11b016123e9578b8a6118ed565b633250574960e11b5f523360045260245ffd5b9091508b81813d8311612435575b6124148183612971565b8101031261025a57516001600160e01b03198116810361025a57908d612379565b503d61240a565b6339e3563760e11b5f525f60045260245ffd5b5f8981526004602052604080822080546001600160a01b031916905582825260038f52902080545f1901905561187d565b633250574960e11b5f525f60045260245ffd5b60405162461bcd60e51b815260206004820152602260248201527f5765696768742063616e6e6f7420657863656564203130302c303030206772616044820152616d7360f01b6064820152608490fd5b60405162461bcd60e51b8152602060048201526024808201527f5075726974792070657263656e746167652063616e6e6f7420657863656564206044820152633130302560e01b6064820152608490fd5b60405162461bcd60e51b815260206004820152601e60248201527f4d7573742070726f76696465206174206c65617374203220696d6167657300006044820152606490fd5b83356001600160401b03811161025a5760209161259d8392602436918701016129e3565b815201930192611811565b3461025a57602036600319011261025a576106636125c46128c3565b6125cc612f08565b612cd5565b3461025a57602036600319011261025a576125ea612f08565b600435600c55005b3461025a57602036600319011261025a5760043560085481101561025a5761261b602091612929565b905460405160039290921b1c6001600160a01b03168152f35b3461025a57602036600319011261025a5761264d612f08565b600435600e55005b3461025a57610663612666366128ef565b91612b48565b3461025a57604036600319011261025a576126856128c3565b60243561269181612ed4565b33151580612743575b80612716575b6127035781906001600160a01b0384811691167f8c5be1e5ebec7d5bd14f71427d1e84f3dd0314c0f7b2291e5b200ac8c7c3b9255f80a45f90815260046020526040902080546001600160a01b0319166001600160a01b03909216919091179055005b63a9fbf51f60e01b5f523360045260245ffd5b506001600160a01b0381165f90815260056020908152604080832033845290915290205460ff16156126a0565b506001600160a01b03811633141561269a565b3461025a57602036600319011261025a5760043561277381612ed4565b505f526004602052602060018060a01b0360405f205416604051908152f35b3461025a575f36600319011261025a576040515f80546127b181612a27565b8084529060018116908115610ec157506001146127d857610a7b83610a6781850382612971565b5f8080527f290decd9548b62a8d60345a988386fc84ba6bc95484008f6362f93160ef3e563939250905b80821061281a57509091508101602001610a67610e53565b919260018160209254838588010152019101909291612802565b3461025a57602036600319011261025a576004359063ffffffff60e01b821680920361025a576020916380ac58cd60e01b811490811561288e575b811561287d575b5015158152f35b6301ffc9a760e01b14905083612876565b635b5e139f60e01b8114915061286f565b805180835260209291819084018484015e5f828201840152601f01601f1916010190565b600435906001600160a01b038216820361025a57565b602435906001600160a01b038216820361025a57565b606090600319011261025a576004356001600160a01b038116810361025a57906024356001600160a01b038116810361025a579060443590565b6008548110156129415760085f5260205f2001905f90565b634e487b7160e01b5f52603260045260245ffd5b6101e081019081106001600160401b038211176114cb57604052565b90601f801991011681019081106001600160401b038211176114cb57604052565b6001600160401b0381116114cb57601f01601f191660200190565b9291926129b982612992565b916129c76040519384612971565b82948184528183011161025a578281602093845f960137010152565b9080601f8301121561025a578160206129fe933591016129ad565b90565b60243590811515820361025a57565b6001600160401b0381116114cb5760051b60200190565b90600182811c92168015612a55575b6020831014612a4157565b634e487b7160e01b5f52602260045260245ffd5b91607f1691612a36565b9060405191825f825492612a7284612a27565b8084529360018116908115612add5750600114612a99575b50612a9792500383612971565b565b90505f9291925260205f20905f915b818310612ac1575050906020612a97928201015f612a8a565b6020919350806001915483858901015201910190918492612aa8565b905060209250612a9794915060ff191682840152151560051b8201015f612a8a565b9060038210156106d95752565b90602080835192838152019201905f5b818110612b295750505090565b82516001600160a01b0316845260209384019390920191600101612b1c565b6001600160a01b0390911691908215612480575f828152600260205260409020546001600160a01b031692829033151580612c40575b5084612c0d575b805f52600360205260405f2060018154019055815f52600260205260405f20816bffffffffffffffffffffffff60a01b825416179055847fddf252ad1be2c89b69c2b068fc378daa952ba7f163c4a11628f55a4df523b3ef5f80a46001600160a01b0316808303612bf557505050565b6364283d7b60e01b5f5260045260245260445260645ffd5b5f82815260046020526040902080546001600160a01b0319169055845f52600360205260405f205f198154019055612b85565b90915080612c84575b15612c565782905f612b7e565b8284612c6e57637e27328960e01b5f5260045260245ffd5b63177e802f60e01b5f523360045260245260445ffd5b503384148015612cb3575b80612c4957505f838152600460205260409020546001600160a01b03163314612c49565b505f84815260056020908152604080832033845290915290205460ff16612c8f565b5f905b6008549182811015612db557612ced81612929565b90546001600160a01b03848116959260031b9190911c168414612d1557506001019150612cd8565b5f1981019250821161070d5761149e612d30612d4893612929565b905460039190911b1c6001600160a01b031691612929565b6008548015612da1577fe1434e25d6611e0db941968fdc97811c982ac1602e951637d206f5fdda9dd8f1916020915f1901612d8281612929565b81549060018060a01b039060031b1b19169055600855604051908152a1565b634e487b7160e01b5f52603160045260245ffd5b60405162461bcd60e51b815260206004820152601360248201527215985b1a59185d1bdc881b9bdd08199bdd5b99606a1b6044820152606490fd5b60405190612dff604083612971565b600682526529b4b63b32b960d11b6020830152565b60405190612e23604083612971565b600482526311dbdb1960e21b6020830152565b818110612e41575050565b5f8155600101612e36565b8181029291811591840414171561070d57565b9190820180921161070d57565b15612e7357565b60405162461bcd60e51b8152602060048201526014602482015273151bdad95b88191bd95cc81b9bdd08195e1a5cdd60621b6044820152606490fd5b60ff1660ff811461070d5760010190565b80518210156129415760209160051b010190565b5f818152600260205260409020546001600160a01b0316908115612ef6575090565b637e27328960e01b5f5260045260245ffd5b6006546001600160a01b03163303612f1c57565b63118cdaa760e01b5f523360045260245ffd5b823b612f3d575b5050505050565b604051630a85bd0160e11b81526001600160a01b039182166004820152918116602483015260448201939093526080606482015291169160209082908190612f8990608483019061289f565b03815f865af15f9181613020575b50612fec57503d15612fe5573d612fad81612992565b90612fbb6040519283612971565b81523d5f602083013e5b80519081612fe05782633250574960e11b5f5260045260245ffd5b602001fd5b6060612fc5565b6001600160e01b03191663757a42ff60e11b0161300e57505f80808080612f36565b633250574960e11b5f5260045260245ffd5b9091506020813d60201161305d575b8161303c60209383612971565b8101031261025a57516001600160e01b03198116810361025a57905f612f97565b3d915061302f56fea264697066735822122095f6dd0f21187f934f9b3f606d85ae1cb5fa8ca100c4bf13c9480ab7eb71c7c464736f6c634300081a0033",
			"opcodes": "PUSH1 0x80 PUSH1 0x40 MSTORE CALLVALUE PUSH2 0x3D2 JUMPI PUSH1 0x40 DUP1 MLOAD SWAP1 DUP2 ADD PUSH1 0x1 PUSH1 0x1 PUSH1 0x40 SHL SUB DUP2 GT DUP3 DUP3 LT OR PUSH2 0x2E8 JUMPI PUSH1 0x40 SWAP1 DUP2 MSTORE PUSH1 0x8 DUP3 MSTORE PUSH8 0x111BDC1D5B139195 PUSH1 0xC2 SHL PUSH1 0x20 DUP4 ADD MSTORE DUP1 MLOAD SWAP1 DUP2 ADD PUSH1 0x1 PUSH1 0x1 PUSH1 0x40 SHL SUB DUP2 GT DUP3 DUP3 LT OR PUSH2 0x2E8 JUMPI PUSH1 0x40 MSTORE PUSH1 0x3 DUP2 MSTORE PUSH3 0x444F5 PUSH1 0xEC SHL PUSH1 0x20 DUP3 ADD MSTORE DUP2 MLOAD PUSH1 0x1 PUSH1 0x1 PUSH1 0x40 SHL SUB DUP2 GT PUSH2 0x2E8 JUMPI PUSH0 SLOAD PUSH1 0x1 DUP2 DUP2 SHR SWAP2 AND DUP1 ISZERO PUSH2 0x3C8 JUMPI JUMPDEST PUSH1 0x20 DUP3 LT EQ PUSH2 0x2CA JUMPI PUSH1 0x1F DUP2 GT PUSH2 0x366 JUMPI JUMPDEST POP PUSH1 0x20 SWAP3 PUSH1 0x1F DUP3 GT PUSH1 0x1 EQ PUSH2 0x307 JUMPI SWAP3 DUP2 SWAP3 SWAP4 PUSH0 SWAP3 PUSH2 0x2FC JUMPI JUMPDEST POP POP DUP2 PUSH1 0x1 SHL SWAP2 PUSH0 NOT SWAP1 PUSH1 0x3 SHL SHR NOT AND OR PUSH0 SSTORE JUMPDEST DUP1 MLOAD PUSH1 0x1 PUSH1 0x1 PUSH1 0x40 SHL SUB DUP2 GT PUSH2 0x2E8 JUMPI PUSH1 0x1 SLOAD PUSH1 0x1 DUP2 DUP2 SHR SWAP2 AND DUP1 ISZERO PUSH2 0x2DE JUMPI JUMPDEST PUSH1 0x20 DUP3 LT EQ PUSH2 0x2CA JUMPI PUSH1 0x1F DUP2 GT PUSH2 0x267 JUMPI JUMPDEST POP PUSH1 0x20 SWAP2 PUSH1 0x1F DUP3 GT PUSH1 0x1 EQ PUSH2 0x207 JUMPI SWAP2 DUP2 SWAP3 PUSH0 SWAP3 PUSH2 0x1FC JUMPI JUMPDEST POP POP DUP2 PUSH1 0x1 SHL SWAP2 PUSH0 NOT SWAP1 PUSH1 0x3 SHL SHR NOT AND OR PUSH1 0x1 SSTORE JUMPDEST CALLER ISZERO PUSH2 0x1E9 JUMPI PUSH1 0x6 DUP1 SLOAD CALLER PUSH1 0x1 PUSH1 0x1 PUSH1 0xA0 SHL SUB NOT DUP3 AND DUP2 OR SWAP1 SWAP3 SSTORE PUSH1 0x40 MLOAD PUSH1 0x26 SWAP3 SWAP1 SWAP2 PUSH1 0x1 PUSH1 0x1 PUSH1 0xA0 SHL SUB AND PUSH32 0x8BE0079C531659141344CD1FD0A4F28419497F9722A3DAAFE3B4186F6B6457E0 PUSH0 DUP1 LOG3 PUSH1 0x3 PUSH1 0xFF NOT PUSH1 0x9 SLOAD AND OR PUSH1 0x9 SSTORE PUSH1 0x45 PUSH1 0xC SSTORE PUSH1 0xB4 PUSH1 0xD SSTORE PUSH1 0x32 PUSH1 0xE SSTORE PUSH6 0x29B4B63B32B9 PUSH1 0xD1 SHL DUP2 MSTORE PUSH1 0xF PUSH1 0x6 DUP3 ADD MSTORE KECCAK256 PUSH1 0x1 PUSH0 MSTORE PUSH1 0x20 MSTORE PUSH1 0x2 PUSH1 0x40 PUSH0 KECCAK256 SSTORE PUSH1 0x24 PUSH1 0x40 MLOAD PUSH4 0x11DBDB19 PUSH1 0xE2 SHL DUP2 MSTORE PUSH1 0xF PUSH1 0x4 DUP3 ADD MSTORE KECCAK256 PUSH1 0x1 PUSH0 MSTORE PUSH1 0x20 MSTORE PUSH1 0x6 PUSH1 0x40 PUSH0 KECCAK256 SSTORE PUSH1 0x40 MLOAD PUSH2 0x309B SWAP1 DUP2 PUSH2 0x3D7 DUP3 CODECOPY RETURN JUMPDEST PUSH4 0x1E4FBDF7 PUSH1 0xE0 SHL PUSH0 MSTORE PUSH0 PUSH1 0x4 MSTORE PUSH1 0x24 PUSH0 REVERT JUMPDEST ADD MLOAD SWAP1 POP PUSH0 DUP1 PUSH2 0x112 JUMP JUMPDEST PUSH1 0x1F NOT DUP3 AND SWAP3 PUSH1 0x1 PUSH0 MSTORE DUP1 PUSH0 KECCAK256 SWAP2 PUSH0 JUMPDEST DUP6 DUP2 LT PUSH2 0x24F JUMPI POP DUP4 PUSH1 0x1 SWAP6 LT PUSH2 0x237 JUMPI JUMPDEST POP POP POP DUP2 SHL ADD PUSH1 0x1 SSTORE PUSH2 0x127 JUMP JUMPDEST ADD MLOAD PUSH0 NOT PUSH1 0xF8 DUP5 PUSH1 0x3 SHL AND SHR NOT AND SWAP1 SSTORE PUSH0 DUP1 DUP1 PUSH2 0x229 JUMP JUMPDEST SWAP2 SWAP3 PUSH1 0x20 PUSH1 0x1 DUP2 SWAP3 DUP7 DUP6 ADD MLOAD DUP2 SSTORE ADD SWAP5 ADD SWAP3 ADD PUSH2 0x217 JUMP JUMPDEST PUSH1 0x1 PUSH0 MSTORE PUSH32 0xB10E2D527612073B26EECDFD717E6A320CF44B4AFAC2B0732D9FCBE2B7FA0CF6 PUSH1 0x1F DUP4 ADD PUSH1 0x5 SHR DUP2 ADD SWAP2 PUSH1 0x20 DUP5 LT PUSH2 0x2C0 JUMPI JUMPDEST PUSH1 0x1F ADD PUSH1 0x5 SHR ADD SWAP1 JUMPDEST DUP2 DUP2 LT PUSH2 0x2B5 JUMPI POP PUSH2 0xF9 JUMP JUMPDEST PUSH0 DUP2 SSTORE PUSH1 0x1 ADD PUSH2 0x2A8 JUMP JUMPDEST SWAP1 SWAP2 POP DUP2 SWAP1 PUSH2 0x29F JUMP JUMPDEST PUSH4 0x4E487B71 PUSH1 0xE0 SHL PUSH0 MSTORE PUSH1 0x22 PUSH1 0x4 MSTORE PUSH1 0x24 PUSH0 REVERT JUMPDEST SWAP1 PUSH1 0x7F AND SWAP1 PUSH2 0xE7 JUMP JUMPDEST PUSH4 0x4E487B71 PUSH1 0xE0 SHL PUSH0 MSTORE PUSH1 0x41 PUSH1 0x4 MSTORE PUSH1 0x24 PUSH0 REVERT JUMPDEST ADD MLOAD SWAP1 POP PUSH0 DUP1 PUSH2 0xB2 JUMP JUMPDEST PUSH1 0x1F NOT DUP3 AND SWAP4 PUSH0 DUP1 MSTORE DUP1 PUSH0 KECCAK256 SWAP2 PUSH0 JUMPDEST DUP7 DUP2 LT PUSH2 0x34E JUMPI POP DUP4 PUSH1 0x1 SWAP6 SWAP7 LT PUSH2 0x336 JUMPI JUMPDEST POP POP POP DUP2 SHL ADD PUSH0 SSTORE PUSH2 0xC6 JUMP JUMPDEST ADD MLOAD PUSH0 NOT PUSH1 0xF8 DUP5 PUSH1 0x3 SHL AND SHR NOT AND SWAP1 SSTORE PUSH0 DUP1 DUP1 PUSH2 0x329 JUMP JUMPDEST SWAP2 SWAP3 PUSH1 0x20 PUSH1 0x1 DUP2 SWAP3 DUP7 DUP6 ADD MLOAD DUP2 SSTORE ADD SWAP5 ADD SWAP3 ADD PUSH2 0x316 JUMP JUMPDEST PUSH0 DUP1 MSTORE PUSH32 0x290DECD9548B62A8D60345A988386FC84BA6BC95484008F6362F93160EF3E563 PUSH1 0x1F DUP4 ADD PUSH1 0x5 SHR DUP2 ADD SWAP2 PUSH1 0x20 DUP5 LT PUSH2 0x3BE JUMPI JUMPDEST PUSH1 0x1F ADD PUSH1 0x5 SHR ADD SWAP1 JUMPDEST DUP2 DUP2 LT PUSH2 0x3B3 JUMPI POP PUSH2 0x98 JUMP JUMPDEST PUSH0 DUP2 SSTORE PUSH1 0x1 ADD PUSH2 0x3A6 JUMP JUMPDEST SWAP1 SWAP2 POP DUP2 SWAP1 PUSH2 0x39D JUMP JUMPDEST SWAP1 PUSH1 0x7F AND SWAP1 PUSH2 0x86 JUMP JUMPDEST PUSH0 DUP1 REVERT INVALID PUSH1 0x80 DUP1 PUSH1 0x40 MSTORE PUSH1 0x4 CALLDATASIZE LT ISZERO PUSH2 0x12 JUMPI PUSH0 DUP1 REVERT JUMPDEST PUSH0 CALLDATALOAD PUSH1 0xE0 SHR SWAP1 DUP2 PUSH4 0x1FFC9A7 EQ PUSH2 0x2834 JUMPI POP DUP1 PUSH4 0x6FDDE03 EQ PUSH2 0x2792 JUMPI DUP1 PUSH4 0x81812FC EQ PUSH2 0x2756 JUMPI DUP1 PUSH4 0x95EA7B3 EQ PUSH2 0x266C JUMPI DUP1 PUSH4 0x23B872DD EQ PUSH2 0x2655 JUMPI DUP1 PUSH4 0x2766BD81 EQ PUSH2 0x2634 JUMPI DUP1 PUSH4 0x35AA2E44 EQ PUSH2 0x25F2 JUMPI DUP1 PUSH4 0x38C6FE20 EQ PUSH2 0x25D1 JUMPI DUP1 PUSH4 0x40A141FF EQ PUSH2 0x25A8 JUMPI DUP1 PUSH4 0x41B994C3 EQ PUSH2 0x16FA JUMPI DUP1 PUSH4 0x42842E0E EQ PUSH2 0x16CB JUMPI DUP1 PUSH4 0x49541015 EQ PUSH2 0x158B JUMPI DUP1 PUSH4 0x4D238C8E EQ PUSH2 0x1419 JUMPI DUP1 PUSH4 0x4EE3C5EC EQ PUSH2 0xDC3 JUMPI DUP1 PUSH4 0x57C8F5BA EQ PUSH2 0x13FC JUMPI DUP1 PUSH4 0x5C952782 EQ PUSH2 0x13DB JUMPI DUP1 PUSH4 0x5CF13EC3 EQ PUSH2 0x1374 JUMPI DUP1 PUSH4 0x632F9605 EQ PUSH2 0x132B JUMPI DUP1 PUSH4 0x6352211E EQ PUSH2 0x12FB JUMPI DUP1 PUSH4 0x70A08231 EQ PUSH2 0x12AA JUMPI DUP1 PUSH4 0x715018A6 EQ PUSH2 0x124F JUMPI DUP1 PUSH4 0x82260F35 EQ PUSH2 0xF0D JUMPI DUP1 PUSH4 0x8DA5CB5B EQ PUSH2 0xEE5 JUMPI DUP1 PUSH4 0x95D89B41 EQ PUSH2 0xE1B JUMPI DUP1 PUSH4 0x99C1AADC EQ PUSH2 0xDFB JUMPI DUP1 PUSH4 0x9F127365 EQ PUSH2 0xDC3 JUMPI DUP1 PUSH4 0xA22CB465 EQ PUSH2 0xD22 JUMPI DUP1 PUSH4 0xB1AB7DF8 EQ PUSH2 0xD07 JUMPI DUP1 PUSH4 0xB7AB4DB5 EQ PUSH2 0xC76 JUMPI DUP1 PUSH4 0xB88D4FDE EQ PUSH2 0xC0B JUMPI DUP1 PUSH4 0xBE4D2CF8 EQ PUSH2 0xBEE JUMPI DUP1 PUSH4 0xC4C2E1AF EQ PUSH2 0xB0A JUMPI DUP1 PUSH4 0xC87B56DD EQ PUSH2 0x906 JUMPI DUP1 PUSH4 0xC88388E8 EQ PUSH2 0x8AA JUMPI DUP1 PUSH4 0xDB129FE6 EQ PUSH2 0x88D JUMPI DUP1 PUSH4 0xDFE9AC82 EQ PUSH2 0x484 JUMPI DUP1 PUSH4 0xE79442F7 EQ PUSH2 0x422 JUMPI DUP1 PUSH4 0xE985E9C5 EQ PUSH2 0x3CB JUMPI DUP1 PUSH4 0xF235A7AA EQ PUSH2 0x25E JUMPI PUSH4 0xF2FDE38B EQ PUSH2 0x1D4 JUMPI PUSH0 DUP1 REVERT JUMPDEST CALLVALUE PUSH2 0x25A JUMPI PUSH1 0x20 CALLDATASIZE PUSH1 0x3 NOT ADD SLT PUSH2 0x25A JUMPI PUSH2 0x1ED PUSH2 0x28C3 JUMP JUMPDEST PUSH2 0x1F5 PUSH2 0x2F08 JUMP JUMPDEST PUSH1 0x1 PUSH1 0x1 PUSH1 0xA0 SHL SUB AND DUP1 ISZERO PUSH2 0x247 JUMPI PUSH1 0x6 DUP1 SLOAD PUSH1 0x1 PUSH1 0x1 PUSH1 0xA0 SHL SUB NOT DUP2 AND DUP4 OR SWAP1 SWAP2 SSTORE PUSH1 0x1 PUSH1 0x1 PUSH1 0xA0 SHL SUB AND PUSH32 0x8BE0079C531659141344CD1FD0A4F28419497F9722A3DAAFE3B4186F6B6457E0 PUSH0 DUP1 LOG3 STOP JUMPDEST PUSH4 0x1E4FBDF7 PUSH1 0xE0 SHL PUSH0 MSTORE PUSH0 PUSH1 0x4 MSTORE PUSH1 0x24 PUSH0 REVERT JUMPDEST PUSH0 DUP1 REVERT JUMPDEST CALLVALUE PUSH2 0x25A JUMPI PUSH1 0x20 CALLDATASIZE PUSH1 0x3 NOT ADD SLT PUSH2 0x25A JUMPI PUSH1 0x4 CALLDATALOAD PUSH0 DUP2 DUP2 MSTORE PUSH1 0x2 PUSH1 0x20 MSTORE PUSH1 0x40 SWAP1 KECCAK256 SLOAD PUSH2 0x299 SWAP1 PUSH1 0x1 PUSH1 0x1 PUSH1 0xA0 SHL SUB AND ISZERO ISZERO PUSH2 0x2E6C JUMP JUMPDEST PUSH2 0x2E6C JUMP JUMPDEST PUSH1 0x8 SLOAD SWAP1 PUSH2 0x2A6 DUP3 PUSH2 0x2A10 JUMP JUMPDEST SWAP2 PUSH2 0x2B4 PUSH1 0x40 MLOAD SWAP4 DUP5 PUSH2 0x2971 JUMP JUMPDEST DUP1 DUP4 MSTORE PUSH1 0x1F NOT PUSH2 0x2C3 DUP3 PUSH2 0x2A10 JUMP JUMPDEST ADD CALLDATASIZE PUSH1 0x20 DUP6 ADD CALLDATACOPY PUSH2 0x2D3 DUP2 PUSH2 0x2A10 JUMP JUMPDEST SWAP1 PUSH2 0x2E1 PUSH1 0x40 MLOAD SWAP3 DUP4 PUSH2 0x2971 JUMP JUMPDEST DUP1 DUP3 MSTORE PUSH2 0x2ED DUP2 PUSH2 0x2A10 JUMP JUMPDEST PUSH1 0x20 DUP4 ADD SWAP4 SWAP1 PUSH1 0x1F NOT ADD CALLDATASIZE DUP6 CALLDATACOPY PUSH0 JUMPDEST DUP3 DUP2 LT PUSH2 0x35A JUMPI PUSH2 0x31F DUP7 DUP7 DUP7 PUSH1 0x20 PUSH1 0x40 MLOAD SWAP5 DUP6 SWAP5 PUSH1 0x40 DUP7 MSTORE PUSH1 0x40 DUP7 ADD SWAP1 PUSH2 0x2B0C JUMP JUMPDEST SWAP2 DUP5 DUP4 SUB DUP3 DUP7 ADD MSTORE MLOAD SWAP2 DUP3 DUP2 MSTORE ADD SWAP2 SWAP1 PUSH0 JUMPDEST DUP2 DUP2 LT PUSH2 0x33F JUMPI POP POP POP SUB SWAP1 RETURN JUMPDEST DUP3 MLOAD ISZERO ISZERO DUP5 MSTORE DUP6 SWAP5 POP PUSH1 0x20 SWAP4 DUP5 ADD SWAP4 SWAP1 SWAP3 ADD SWAP2 PUSH1 0x1 ADD PUSH2 0x331 JUMP JUMPDEST DUP1 PUSH2 0x366 PUSH1 0x1 SWAP3 PUSH2 0x2929 JUMP JUMPDEST DUP4 DUP1 PUSH1 0xA0 SHL SUB SWAP2 SLOAD SWAP1 PUSH1 0x3 SHL SHR AND PUSH2 0x37E DUP3 DUP10 PUSH2 0x2EC0 JUMP JUMPDEST MSTORE DUP3 PUSH0 MSTORE PUSH1 0xA PUSH1 0x20 MSTORE PUSH1 0x40 PUSH0 KECCAK256 PUSH2 0x394 DUP3 PUSH2 0x2929 JUMP JUMPDEST DUP5 DUP1 PUSH1 0xA0 SHL SUB SWAP2 SLOAD SWAP1 PUSH1 0x3 SHL SHR AND DUP4 DUP1 PUSH1 0xA0 SHL SUB AND PUSH0 MSTORE PUSH1 0x20 MSTORE PUSH1 0xFF PUSH1 0x40 PUSH0 KECCAK256 SLOAD AND PUSH2 0x3C0 DUP3 DUP8 PUSH2 0x2EC0 JUMP JUMPDEST SWAP1 ISZERO ISZERO SWAP1 MSTORE ADD PUSH2 0x2FC JUMP JUMPDEST CALLVALUE PUSH2 0x25A JUMPI PUSH1 0x40 CALLDATASIZE PUSH1 0x3 NOT ADD SLT PUSH2 0x25A JUMPI PUSH2 0x3E4 PUSH2 0x28C3 JUMP JUMPDEST PUSH2 0x3EC PUSH2 0x28D9 JUMP JUMPDEST SWAP1 PUSH1 0x1 DUP1 PUSH1 0xA0 SHL SUB AND PUSH0 MSTORE PUSH1 0x5 PUSH1 0x20 MSTORE PUSH1 0x40 PUSH0 KECCAK256 SWAP1 PUSH1 0x1 DUP1 PUSH1 0xA0 SHL SUB AND PUSH0 MSTORE PUSH1 0x20 MSTORE PUSH1 0x20 PUSH1 0xFF PUSH1 0x40 PUSH0 KECCAK256 SLOAD AND PUSH1 0x40 MLOAD SWAP1 ISZERO ISZERO DUP2 MSTORE RETURN JUMPDEST CALLVALUE PUSH2 0x25A JUMPI PUSH1 0x40 CALLDATASIZE PUSH1 0x3 NOT ADD SLT PUSH2 0x25A JUMPI PUSH1 0x4 CALLDATALOAD PUSH1 0x1 PUSH1 0x1 PUSH1 0x40 SHL SUB DUP2 GT PUSH2 0x25A JUMPI PUSH1 0x20 PUSH2 0x455 DUP2 SWAP3 CALLDATASIZE SWAP1 PUSH1 0x4 ADD PUSH2 0x29E3 JUMP JUMPDEST PUSH1 0x40 MLOAD SWAP3 DUP2 DUP5 SWAP3 MLOAD SWAP2 DUP3 SWAP2 ADD DUP4 MCOPY DUP2 ADD PUSH1 0xF DUP2 MSTORE SUB ADD SWAP1 KECCAK256 PUSH1 0x24 CALLDATALOAD PUSH0 MSTORE PUSH1 0x20 MSTORE PUSH1 0x20 PUSH1 0x40 PUSH0 KECCAK256 SLOAD PUSH1 0x40 MLOAD SWAP1 DUP2 MSTORE RETURN JUMPDEST CALLVALUE PUSH2 0x25A JUMPI PUSH1 0x40 CALLDATASIZE PUSH1 0x3 NOT ADD SLT PUSH2 0x25A JUMPI PUSH1 0x4 CALLDATALOAD PUSH2 0x4A0 PUSH2 0x2A01 JUMP JUMPDEST PUSH0 DUP1 PUSH1 0x8 SLOAD SWAP1 JUMPDEST DUP2 DUP2 LT PUSH2 0x858 JUMPI JUMPDEST POP POP ISZERO PUSH2 0x804 JUMPI DUP2 PUSH0 MSTORE PUSH1 0x10 PUSH1 0x20 MSTORE PUSH1 0xB PUSH1 0x40 PUSH0 KECCAK256 ADD SWAP1 PUSH1 0xFF DUP3 SLOAD PUSH1 0xB0 SHR AND PUSH1 0x3 DUP2 LT ISZERO PUSH2 0x6D9 JUMPI PUSH2 0x7BF JUMPI PUSH0 DUP4 DUP2 MSTORE PUSH1 0xA PUSH1 0x20 SWAP1 DUP2 MSTORE PUSH1 0x40 DUP1 DUP4 KECCAK256 CALLER DUP5 MSTORE SWAP1 SWAP2 MSTORE SWAP1 KECCAK256 SLOAD PUSH1 0xFF AND PUSH2 0x76A JUMPI PUSH0 DUP4 DUP2 MSTORE PUSH1 0xA PUSH1 0x20 SWAP1 DUP2 MSTORE PUSH1 0x40 DUP1 DUP4 KECCAK256 CALLER DUP5 MSTORE SWAP1 SWAP2 MSTORE SWAP1 KECCAK256 DUP1 SLOAD PUSH1 0xFF NOT AND PUSH1 0xFF DUP4 ISZERO ISZERO AND OR SWAP1 SSTORE PUSH32 0x84A90096AC427A0C37B4C63F7546A8C108D286A2295AF0FDEABDEF76B41A3AEB SWAP1 PUSH1 0x60 SWAP1 DUP1 ISZERO PUSH2 0x738 JUMPI PUSH2 0x57A PUSH2 0x560 PUSH1 0xFF DUP7 SLOAD PUSH1 0xA0 SHR AND PUSH2 0x2EAF JUMP JUMPDEST DUP6 SLOAD PUSH1 0xFF PUSH1 0xA0 SHL NOT AND PUSH1 0xA0 SWAP2 SWAP1 SWAP2 SHL PUSH1 0xFF PUSH1 0xA0 SHL AND OR DUP6 SSTORE JUMP JUMPDEST PUSH1 0x40 MLOAD SWAP1 DUP6 DUP3 MSTORE CALLER PUSH1 0x20 DUP4 ADD MSTORE ISZERO ISZERO PUSH1 0x40 DUP3 ADD MSTORE LOG1 DUP1 SLOAD PUSH1 0xFF DUP2 PUSH1 0xA0 SHR AND SWAP1 PUSH1 0xFF PUSH1 0x9 SLOAD AND DUP3 LT SWAP2 DUP3 ISZERO DUP1 PUSH2 0x721 JUMPI JUMPDEST ISZERO PUSH2 0x650 JUMPI POP POP DUP2 SLOAD PUSH1 0xFF PUSH1 0xB0 SHL NOT AND PUSH1 0x1 PUSH1 0xB0 SHL OR SWAP1 SWAP2 SSTORE POP PUSH1 0x40 DUP1 MLOAD SWAP2 DUP3 MSTORE PUSH1 0x1 PUSH1 0x20 DUP4 ADD MSTORE PUSH32 0xB7F4F9E3ED59FB76002E13568E790E82DEE2B19F7E250697201014540E469292 SWAP2 LOG1 PUSH1 0xE SLOAD CALLER PUSH0 MSTORE PUSH1 0xB PUSH1 0x20 MSTORE PUSH2 0x60F PUSH1 0x40 PUSH0 KECCAK256 SWAP2 DUP3 SLOAD PUSH2 0x2E5F JUMP JUMPDEST SWAP1 SSTORE PUSH1 0xE SLOAD PUSH1 0x40 DUP1 MLOAD CALLER DUP2 MSTORE PUSH1 0x20 DUP2 ADD SWAP3 SWAP1 SWAP3 MSTORE PUSH32 0xF9F00D0C5A2885ACBE30ED68E369E4DC8014646B6E65BA0A4498DA35E0D69C1C SWAP2 SWAP1 DUP2 SWAP1 DUP2 ADD JUMPDEST SUB SWAP1 LOG1 STOP JUMPDEST DUP3 PUSH2 0x6ED JUMPI JUMPDEST POP DUP2 PUSH2 0x6C1 JUMPI JUMPDEST POP PUSH2 0x665 JUMPI JUMPDEST STOP JUMPDEST DUP1 SLOAD PUSH1 0xFF PUSH1 0xB0 SHL NOT AND PUSH1 0x1 PUSH1 0xB1 SHL OR SWAP1 SSTORE PUSH1 0x40 DUP1 MLOAD SWAP2 DUP3 MSTORE PUSH1 0x2 PUSH1 0x20 DUP4 ADD MSTORE PUSH32 0xB7F4F9E3ED59FB76002E13568E790E82DEE2B19F7E250697201014540E469292 SWAP2 LOG1 PUSH1 0xE SLOAD CALLER PUSH0 MSTORE PUSH1 0xB PUSH1 0x20 MSTORE PUSH2 0x60F PUSH1 0x40 PUSH0 KECCAK256 SWAP2 DUP3 SLOAD PUSH2 0x2E5F JUMP JUMPDEST PUSH1 0xFF SWAP2 POP PUSH1 0xB0 SHR AND PUSH1 0x3 DUP2 LT ISZERO PUSH2 0x6D9 JUMPI ISZERO DUP4 PUSH2 0x65D JUMP JUMPDEST PUSH4 0x4E487B71 PUSH1 0xE0 SHL PUSH0 MSTORE PUSH1 0x21 PUSH1 0x4 MSTORE PUSH1 0x24 PUSH0 REVERT JUMPDEST SWAP1 SWAP2 POP PUSH1 0xFF DUP3 PUSH1 0xA8 SHR AND ADD PUSH1 0xFF DUP2 GT PUSH2 0x70D JUMPI PUSH1 0xFF AND PUSH1 0x5 EQ SWAP1 DUP5 PUSH2 0x656 JUMP JUMPDEST PUSH4 0x4E487B71 PUSH1 0xE0 SHL PUSH0 MSTORE PUSH1 0x11 PUSH1 0x4 MSTORE PUSH1 0x24 PUSH0 REVERT JUMPDEST POP PUSH1 0xFF DUP3 PUSH1 0xB0 SHR AND PUSH1 0x3 DUP2 LT ISZERO PUSH2 0x6D9 JUMPI ISZERO PUSH2 0x5AA JUMP JUMPDEST PUSH2 0x765 PUSH2 0x74B PUSH1 0xFF DUP7 SLOAD PUSH1 0xA8 SHR AND PUSH2 0x2EAF JUMP JUMPDEST DUP6 SLOAD PUSH1 0xFF PUSH1 0xA8 SHL NOT AND PUSH1 0xA8 SWAP2 SWAP1 SWAP2 SHL PUSH1 0xFF PUSH1 0xA8 SHL AND OR DUP6 SSTORE JUMP JUMPDEST PUSH2 0x57A JUMP JUMPDEST PUSH1 0x40 MLOAD PUSH3 0x461BCD PUSH1 0xE5 SHL DUP2 MSTORE PUSH1 0x20 PUSH1 0x4 DUP3 ADD MSTORE PUSH1 0x27 PUSH1 0x24 DUP3 ADD MSTORE PUSH32 0x56616C696461746F722068617320616C726561647920766F746564206F6E2074 PUSH1 0x44 DUP3 ADD MSTORE PUSH7 0x1A1A5CC8139195 PUSH1 0xCA SHL PUSH1 0x64 DUP3 ADD MSTORE PUSH1 0x84 SWAP1 REVERT JUMPDEST PUSH1 0x40 MLOAD PUSH3 0x461BCD PUSH1 0xE5 SHL DUP2 MSTORE PUSH1 0x20 PUSH1 0x4 DUP3 ADD MSTORE PUSH1 0x1C PUSH1 0x24 DUP3 ADD MSTORE PUSH32 0x4E4654206973206E6F7420696E2050656E64696E672073746174757300000000 PUSH1 0x44 DUP3 ADD MSTORE PUSH1 0x64 SWAP1 REVERT JUMPDEST PUSH1 0x40 MLOAD PUSH3 0x461BCD PUSH1 0xE5 SHL DUP2 MSTORE PUSH1 0x20 PUSH1 0x4 DUP3 ADD MSTORE PUSH1 0x26 PUSH1 0x24 DUP3 ADD MSTORE PUSH32 0x4F6E6C792076616C696461746F72732063616E2063616C6C2074686973206675 PUSH1 0x44 DUP3 ADD MSTORE PUSH6 0x3731BA34B7B7 PUSH1 0xD1 SHL PUSH1 0x64 DUP3 ADD MSTORE PUSH1 0x84 SWAP1 REVERT JUMPDEST PUSH2 0x861 DUP2 PUSH2 0x2929 JUMP JUMPDEST SWAP1 SLOAD PUSH1 0x3 SWAP2 SWAP1 SWAP2 SHL SHR PUSH1 0x1 PUSH1 0x1 PUSH1 0xA0 SHL SUB AND CALLER EQ PUSH2 0x881 JUMPI PUSH1 0x1 ADD PUSH2 0x4A7 JUMP JUMPDEST POP POP POP PUSH1 0x1 DUP4 DUP1 PUSH2 0x4AF JUMP JUMPDEST CALLVALUE PUSH2 0x25A JUMPI PUSH0 CALLDATASIZE PUSH1 0x3 NOT ADD SLT PUSH2 0x25A JUMPI PUSH1 0x20 PUSH1 0xD SLOAD PUSH1 0x40 MLOAD SWAP1 DUP2 MSTORE RETURN JUMPDEST CALLVALUE PUSH2 0x25A JUMPI PUSH1 0x20 CALLDATASIZE PUSH1 0x3 NOT ADD SLT PUSH2 0x25A JUMPI PUSH1 0x4 CALLDATALOAD PUSH0 DUP2 DUP2 MSTORE PUSH1 0x2 PUSH1 0x20 MSTORE PUSH1 0x40 SWAP1 KECCAK256 SLOAD PUSH2 0x8E0 SWAP1 PUSH1 0x1 PUSH1 0x1 PUSH1 0xA0 SHL SUB AND ISZERO ISZERO PUSH2 0x2E6C JUMP JUMPDEST PUSH0 MSTORE PUSH1 0x10 PUSH1 0x20 MSTORE PUSH1 0x20 PUSH1 0xFF PUSH1 0xB PUSH1 0x40 PUSH0 KECCAK256 ADD SLOAD PUSH1 0xB0 SHR AND PUSH2 0x904 PUSH1 0x40 MLOAD DUP1 SWAP3 PUSH2 0x2AFF JUMP JUMPDEST RETURN JUMPDEST CALLVALUE PUSH2 0x25A JUMPI PUSH1 0x20 CALLDATASIZE PUSH1 0x3 NOT ADD SLT PUSH2 0x25A JUMPI PUSH1 0x4 CALLDATALOAD PUSH0 DUP2 DUP2 MSTORE PUSH1 0x2 PUSH1 0x20 MSTORE PUSH1 0x40 SWAP1 KECCAK256 SLOAD PUSH2 0x93C SWAP1 PUSH1 0x1 PUSH1 0x1 PUSH1 0xA0 SHL SUB AND ISZERO ISZERO PUSH2 0x2E6C JUMP JUMPDEST PUSH0 DUP2 DUP1 PUSH19 0x184F03E93FF9F4DAA797ED6E38ED64BF6A1F01 PUSH1 0x40 SHL DUP2 LT ISZERO PUSH2 0xAE4 JUMPI JUMPDEST POP DUP1 PUSH14 0x4EE2D6D415B85ACEF8100000000 PUSH1 0xA SWAP3 LT ISZERO PUSH2 0xAC9 JUMPI JUMPDEST PUSH7 0x2386F26FC10000 DUP2 LT ISZERO PUSH2 0xAB5 JUMPI JUMPDEST PUSH4 0x5F5E100 DUP2 LT ISZERO PUSH2 0xAA4 JUMPI JUMPDEST PUSH2 0x2710 DUP2 LT ISZERO PUSH2 0xA95 JUMPI JUMPDEST PUSH1 0x64 DUP2 LT ISZERO PUSH2 0xA87 JUMPI JUMPDEST LT ISZERO PUSH2 0xA7F JUMPI JUMPDEST PUSH1 0x1 DUP2 ADD SWAP2 PUSH1 0xA PUSH1 0x21 PUSH2 0x9DD PUSH2 0x9C7 DUP7 PUSH2 0x2992 JUMP JUMPDEST SWAP6 PUSH2 0x9D5 PUSH1 0x40 MLOAD SWAP8 DUP9 PUSH2 0x2971 JUMP JUMPDEST DUP1 DUP8 MSTORE PUSH2 0x2992 JUMP JUMPDEST PUSH1 0x20 DUP7 ADD SWAP5 SWAP1 PUSH1 0x1F NOT ADD CALLDATASIZE DUP7 CALLDATACOPY DUP6 ADD ADD JUMPDEST PUSH0 NOT ADD SWAP2 PUSH16 0x181899199A1A9B1B9C1CB0B131B232B3 PUSH1 0x81 SHL DUP3 DUP3 MOD BYTE DUP4 MSTORE8 DIV SWAP1 DUP2 ISZERO PUSH2 0xA1C JUMPI PUSH1 0xA SWAP1 PUSH2 0x9EE JUMP JUMPDEST PUSH2 0xA7B DUP4 PUSH2 0xA67 PUSH1 0x35 DUP8 PUSH1 0x40 MLOAD SWAP4 DUP5 SWAP2 PUSH21 0x697066733A2F2F796F75725F697066735F6369642F PUSH1 0x58 SHL PUSH1 0x20 DUP5 ADD MSTORE MLOAD DUP1 SWAP2 DUP5 DUP5 ADD MCOPY DUP2 ADD PUSH0 DUP4 DUP3 ADD MSTORE SUB ADD PUSH1 0x1F NOT DUP2 ADD DUP4 MSTORE DUP3 PUSH2 0x2971 JUMP JUMPDEST PUSH1 0x40 MLOAD SWAP2 DUP3 SWAP2 PUSH1 0x20 DUP4 MSTORE PUSH1 0x20 DUP4 ADD SWAP1 PUSH2 0x289F JUMP JUMPDEST SUB SWAP1 RETURN JUMPDEST PUSH1 0x1 ADD PUSH2 0x9B2 JUMP JUMPDEST PUSH1 0x64 PUSH1 0x2 SWAP2 DIV SWAP3 ADD SWAP2 PUSH2 0x9AB JUMP JUMPDEST PUSH2 0x2710 PUSH1 0x4 SWAP2 DIV SWAP3 ADD SWAP2 PUSH2 0x9A1 JUMP JUMPDEST PUSH4 0x5F5E100 PUSH1 0x8 SWAP2 DIV SWAP3 ADD SWAP2 PUSH2 0x996 JUMP JUMPDEST PUSH7 0x2386F26FC10000 PUSH1 0x10 SWAP2 DIV SWAP3 ADD SWAP2 PUSH2 0x989 JUMP JUMPDEST PUSH14 0x4EE2D6D415B85ACEF8100000000 PUSH1 0x20 SWAP2 DIV SWAP3 ADD SWAP2 PUSH2 0x979 JUMP JUMPDEST PUSH1 0x40 SWAP3 POP PUSH19 0x184F03E93FF9F4DAA797ED6E38ED64BF6A1F01 PUSH1 0x40 SHL SWAP1 DIV SWAP1 POP PUSH1 0xA PUSH2 0x95E JUMP JUMPDEST CALLVALUE PUSH2 0x25A JUMPI PUSH1 0x20 CALLDATASIZE PUSH1 0x3 NOT ADD SLT PUSH2 0x25A JUMPI PUSH1 0x4 CALLDATALOAD PUSH1 0xFF DUP2 AND DUP1 SWAP2 SUB PUSH2 0x25A JUMPI PUSH2 0xB31 PUSH2 0x2F08 JUMP JUMPDEST DUP1 ISZERO ISZERO DUP1 PUSH2 0xBE3 JUMPI JUMPDEST ISZERO PUSH2 0xB78 JUMPI PUSH1 0x20 DUP2 PUSH32 0x79EC809341D81E6A3A27EC5B6293D952D27A819E0FC5ED2481299495846AA5A8 SWAP3 PUSH1 0xFF NOT PUSH1 0x9 SLOAD AND OR PUSH1 0x9 SSTORE PUSH1 0x40 MLOAD SWAP1 DUP2 MSTORE LOG1 STOP JUMPDEST PUSH1 0x40 MLOAD PUSH3 0x461BCD PUSH1 0xE5 SHL DUP2 MSTORE PUSH1 0x20 PUSH1 0x4 DUP3 ADD MSTORE PUSH1 0x3D PUSH1 0x24 DUP3 ADD MSTORE PUSH32 0x526571756972656420617070726F76616C73206D757374206265206265747765 PUSH1 0x44 DUP3 ADD MSTORE PUSH32 0x656E203120616E64206E756D626572206F662076616C696461746F7273000000 PUSH1 0x64 DUP3 ADD MSTORE PUSH1 0x84 SWAP1 REVERT JUMPDEST POP PUSH1 0x5 DUP2 GT ISZERO PUSH2 0xB3A JUMP JUMPDEST CALLVALUE PUSH2 0x25A JUMPI PUSH0 CALLDATASIZE PUSH1 0x3 NOT ADD SLT PUSH2 0x25A JUMPI PUSH1 0x20 PUSH1 0xC SLOAD PUSH1 0x40 MLOAD SWAP1 DUP2 MSTORE RETURN JUMPDEST CALLVALUE PUSH2 0x25A JUMPI PUSH1 0x80 CALLDATASIZE PUSH1 0x3 NOT ADD SLT PUSH2 0x25A JUMPI PUSH2 0xC24 PUSH2 0x28C3 JUMP JUMPDEST PUSH2 0xC2C PUSH2 0x28D9 JUMP JUMPDEST SWAP1 PUSH1 0x44 CALLDATALOAD PUSH1 0x64 CALLDATALOAD SWAP3 PUSH1 0x1 PUSH1 0x1 PUSH1 0x40 SHL SUB DUP5 GT PUSH2 0x25A JUMPI CALLDATASIZE PUSH1 0x23 DUP6 ADD SLT ISZERO PUSH2 0x25A JUMPI PUSH2 0xC64 PUSH2 0x663 SWAP5 CALLDATASIZE SWAP1 PUSH1 0x24 DUP2 PUSH1 0x4 ADD CALLDATALOAD SWAP2 ADD PUSH2 0x29AD JUMP JUMPDEST SWAP3 PUSH2 0xC70 DUP4 DUP4 DUP4 PUSH2 0x2B48 JUMP JUMPDEST CALLER PUSH2 0x2F2F JUMP JUMPDEST CALLVALUE PUSH2 0x25A JUMPI PUSH0 CALLDATASIZE PUSH1 0x3 NOT ADD SLT PUSH2 0x25A JUMPI PUSH1 0x40 MLOAD DUP1 PUSH1 0x20 PUSH1 0x8 SLOAD SWAP2 DUP3 DUP2 MSTORE ADD SWAP1 PUSH1 0x8 PUSH0 MSTORE PUSH32 0xF3F7A9FE364FAAB93B216DA50A3214154F22A0A2B415B23A84C8169E8B636EE3 SWAP1 PUSH0 JUMPDEST DUP2 DUP2 LT PUSH2 0xCE8 JUMPI PUSH2 0xA7B DUP6 PUSH2 0xCD4 DUP2 DUP8 SUB DUP3 PUSH2 0x2971 JUMP JUMPDEST PUSH1 0x40 MLOAD SWAP2 DUP3 SWAP2 PUSH1 0x20 DUP4 MSTORE PUSH1 0x20 DUP4 ADD SWAP1 PUSH2 0x2B0C JUMP JUMPDEST DUP3 SLOAD PUSH1 0x1 PUSH1 0x1 PUSH1 0xA0 SHL SUB AND DUP5 MSTORE PUSH1 0x20 SWAP1 SWAP4 ADD SWAP3 PUSH1 0x1 SWAP3 DUP4 ADD SWAP3 ADD PUSH2 0xCBD JUMP JUMPDEST CALLVALUE PUSH2 0x25A JUMPI PUSH0 CALLDATASIZE PUSH1 0x3 NOT ADD SLT PUSH2 0x25A JUMPI PUSH1 0x20 PUSH1 0x40 MLOAD PUSH1 0x5 DUP2 MSTORE RETURN JUMPDEST CALLVALUE PUSH2 0x25A JUMPI PUSH1 0x40 CALLDATASIZE PUSH1 0x3 NOT ADD SLT PUSH2 0x25A JUMPI PUSH2 0xD3B PUSH2 0x28C3 JUMP JUMPDEST PUSH2 0xD43 PUSH2 0x2A01 JUMP JUMPDEST PUSH1 0x1 PUSH1 0x1 PUSH1 0xA0 SHL SUB SWAP1 SWAP2 AND SWAP1 DUP2 ISZERO PUSH2 0xDB0 JUMPI CALLER PUSH0 MSTORE PUSH1 0x5 PUSH1 0x20 MSTORE PUSH1 0x40 PUSH0 KECCAK256 DUP3 PUSH0 MSTORE PUSH1 0x20 MSTORE PUSH2 0xD80 DUP2 PUSH1 0x40 PUSH0 KECCAK256 SWAP1 PUSH1 0xFF DUP1 NOT DUP4 SLOAD AND SWAP2 ISZERO ISZERO AND OR SWAP1 SSTORE JUMP JUMPDEST PUSH1 0x40 MLOAD SWAP1 ISZERO ISZERO DUP2 MSTORE PUSH32 0x17307EAB39AB6107E8899845AD3D59BD9653F200F220920489CA2B5937696C31 PUSH1 0x20 CALLER SWAP3 LOG3 STOP JUMPDEST POP PUSH4 0xB611743 PUSH1 0xE3 SHL PUSH0 MSTORE PUSH1 0x4 MSTORE PUSH1 0x24 PUSH0 REVERT JUMPDEST CALLVALUE PUSH2 0x25A JUMPI PUSH1 0x20 CALLDATASIZE PUSH1 0x3 NOT ADD SLT PUSH2 0x25A JUMPI PUSH1 0x1 PUSH1 0x1 PUSH1 0xA0 SHL SUB PUSH2 0xDE4 PUSH2 0x28C3 JUMP JUMPDEST AND PUSH0 MSTORE PUSH1 0xB PUSH1 0x20 MSTORE PUSH1 0x20 PUSH1 0x40 PUSH0 KECCAK256 SLOAD PUSH1 0x40 MLOAD SWAP1 DUP2 MSTORE RETURN JUMPDEST CALLVALUE PUSH2 0x25A JUMPI PUSH0 CALLDATASIZE PUSH1 0x3 NOT ADD SLT PUSH2 0x25A JUMPI PUSH1 0x20 PUSH1 0xFF PUSH1 0x9 SLOAD AND PUSH1 0x40 MLOAD SWAP1 DUP2 MSTORE RETURN JUMPDEST CALLVALUE PUSH2 0x25A JUMPI PUSH0 CALLDATASIZE PUSH1 0x3 NOT ADD SLT PUSH2 0x25A JUMPI PUSH1 0x40 MLOAD PUSH0 PUSH1 0x1 SLOAD PUSH2 0xE3B DUP2 PUSH2 0x2A27 JUMP JUMPDEST DUP1 DUP5 MSTORE SWAP1 PUSH1 0x1 DUP2 AND SWAP1 DUP2 ISZERO PUSH2 0xEC1 JUMPI POP PUSH1 0x1 EQ PUSH2 0xE63 JUMPI JUMPDEST PUSH2 0xA7B DUP4 PUSH2 0xA67 DUP2 DUP6 SUB DUP3 PUSH2 0x2971 JUMP JUMPDEST PUSH1 0x1 PUSH0 SWAP1 DUP2 MSTORE PUSH32 0xB10E2D527612073B26EECDFD717E6A320CF44B4AFAC2B0732D9FCBE2B7FA0CF6 SWAP4 SWAP3 POP SWAP1 JUMPDEST DUP1 DUP3 LT PUSH2 0xEA7 JUMPI POP SWAP1 SWAP2 POP DUP2 ADD PUSH1 0x20 ADD PUSH2 0xA67 PUSH2 0xE53 JUMP JUMPDEST SWAP2 SWAP3 PUSH1 0x1 DUP2 PUSH1 0x20 SWAP3 SLOAD DUP4 DUP6 DUP9 ADD ADD MSTORE ADD SWAP2 ADD SWAP1 SWAP3 SWAP2 PUSH2 0xE8F JUMP JUMPDEST PUSH1 0xFF NOT AND PUSH1 0x20 DUP1 DUP7 ADD SWAP2 SWAP1 SWAP2 MSTORE SWAP2 ISZERO ISZERO PUSH1 0x5 SHL DUP5 ADD SWAP1 SWAP2 ADD SWAP2 POP PUSH2 0xA67 SWAP1 POP PUSH2 0xE53 JUMP JUMPDEST CALLVALUE PUSH2 0x25A JUMPI PUSH0 CALLDATASIZE PUSH1 0x3 NOT ADD SLT PUSH2 0x25A JUMPI PUSH1 0x6 SLOAD PUSH1 0x40 MLOAD PUSH1 0x1 PUSH1 0x1 PUSH1 0xA0 SHL SUB SWAP1 SWAP2 AND DUP2 MSTORE PUSH1 0x20 SWAP1 RETURN JUMPDEST CALLVALUE PUSH2 0x25A JUMPI PUSH1 0x20 CALLDATASIZE PUSH1 0x3 NOT ADD SLT PUSH2 0x25A JUMPI PUSH1 0x4 CALLDATALOAD PUSH0 PUSH2 0x1C0 PUSH1 0x40 MLOAD PUSH2 0xF31 DUP2 PUSH2 0x2955 JUMP JUMPDEST PUSH1 0x60 DUP2 MSTORE PUSH1 0x60 PUSH1 0x20 DUP3 ADD MSTORE DUP3 PUSH1 0x40 DUP3 ADD MSTORE PUSH1 0x60 DUP1 DUP3 ADD MSTORE PUSH1 0x60 PUSH1 0x80 DUP3 ADD MSTORE DUP3 PUSH1 0xA0 DUP3 ADD MSTORE PUSH1 0x60 PUSH1 0xC0 DUP3 ADD MSTORE DUP3 PUSH1 0xE0 DUP3 ADD MSTORE DUP3 PUSH2 0x100 DUP3 ADD MSTORE DUP3 PUSH2 0x120 DUP3 ADD MSTORE PUSH1 0x60 PUSH2 0x140 DUP3 ADD MSTORE DUP3 PUSH2 0x160 DUP3 ADD MSTORE DUP3 PUSH2 0x180 DUP3 ADD MSTORE DUP3 PUSH2 0x1A0 DUP3 ADD MSTORE ADD MSTORE PUSH2 0xFAF PUSH2 0x294 DUP3 PUSH0 MSTORE PUSH1 0x2 PUSH1 0x20 MSTORE PUSH1 0x1 DUP1 PUSH1 0xA0 SHL SUB PUSH1 0x40 PUSH0 KECCAK256 SLOAD AND ISZERO ISZERO SWAP1 JUMP JUMPDEST PUSH0 MSTORE PUSH1 0x10 PUSH1 0x20 MSTORE PUSH1 0x40 PUSH0 KECCAK256 PUSH1 0x40 MLOAD PUSH2 0xFC6 DUP2 PUSH2 0x2955 JUMP JUMPDEST PUSH2 0xFCF DUP3 PUSH2 0x2A5F JUMP JUMPDEST DUP2 MSTORE PUSH2 0xFDD PUSH1 0x1 DUP4 ADD PUSH2 0x2A5F JUMP JUMPDEST SWAP1 PUSH1 0x20 DUP2 ADD SWAP2 DUP3 MSTORE PUSH1 0x2 DUP4 ADD SLOAD SWAP1 PUSH1 0x40 DUP2 ADD SWAP2 DUP3 MSTORE PUSH2 0xFFE PUSH1 0x3 DUP6 ADD PUSH2 0x2A5F JUMP JUMPDEST PUSH1 0x60 DUP3 ADD SWAP1 DUP2 MSTORE PUSH2 0x1011 PUSH1 0x4 DUP7 ADD PUSH2 0x2A5F JUMP JUMPDEST SWAP1 PUSH1 0x80 DUP4 ADD SWAP2 DUP3 MSTORE PUSH1 0x5 DUP7 ADD SLOAD SWAP6 PUSH1 0xA0 DUP5 ADD SWAP7 DUP8 MSTORE PUSH2 0x1032 PUSH1 0x6 DUP3 ADD PUSH2 0x2A5F JUMP JUMPDEST PUSH1 0xC0 DUP6 ADD SWAP1 DUP2 MSTORE PUSH1 0x7 DUP3 ADD SLOAD SWAP8 PUSH1 0xE0 DUP7 ADD SWAP9 DUP10 MSTORE PUSH1 0x8 DUP4 ADD SLOAD SWAP1 PUSH2 0x100 DUP8 ADD SWAP2 DUP3 MSTORE PUSH1 0xFF PUSH1 0x9 DUP6 ADD SLOAD AND SWAP3 PUSH2 0x120 DUP9 ADD SWAP4 ISZERO ISZERO DUP5 MSTORE PUSH1 0xA DUP6 ADD SWAP5 DUP6 SLOAD PUSH2 0x1077 DUP2 PUSH2 0x2A10 JUMP JUMPDEST SWAP7 PUSH2 0x1085 PUSH1 0x40 MLOAD SWAP9 DUP10 PUSH2 0x2971 JUMP JUMPDEST DUP2 DUP9 MSTORE PUSH1 0x20 DUP9 ADD SWAP1 PUSH0 MSTORE PUSH1 0x20 PUSH0 KECCAK256 PUSH0 SWAP2 JUMPDEST DUP4 DUP4 LT PUSH2 0x1232 JUMPI POP POP POP POP PUSH1 0xB SWAP1 PUSH2 0x140 DUP11 ADD SWAP7 DUP8 MSTORE ADD SLOAD SWAP7 PUSH2 0x160 DUP10 ADD SWAP10 PUSH1 0x1 DUP1 PUSH1 0xA0 SHL SUB DUP10 AND DUP12 MSTORE PUSH2 0x180 DUP11 ADD SWAP8 PUSH1 0xFF DUP11 PUSH1 0xA0 SHR AND DUP10 MSTORE PUSH1 0xFF PUSH2 0x1A0 DUP13 ADD SWAP11 DUP2 DUP2 PUSH1 0xA8 SHR AND DUP13 MSTORE PUSH1 0xB0 SHR AND SWAP11 PUSH2 0x1C0 DUP2 ADD SWAP12 PUSH1 0x3 DUP2 LT ISZERO PUSH2 0x6D9 JUMPI DUP13 MSTORE PUSH1 0x40 MLOAD SWAP14 DUP15 SWAP2 PUSH1 0x20 DUP4 MSTORE MLOAD PUSH1 0x20 DUP4 ADD PUSH2 0x1E0 SWAP1 MSTORE PUSH2 0x200 DUP4 ADD PUSH2 0x1117 SWAP2 PUSH2 0x289F JUMP JUMPDEST SWAP1 MLOAD DUP3 DUP3 SUB PUSH1 0x1F NOT ADD PUSH1 0x40 DUP5 ADD MSTORE PUSH2 0x112F SWAP2 SWAP1 PUSH2 0x289F JUMP JUMPDEST SWAP3 MLOAD PUSH1 0x60 SWAP1 SWAP2 ADD MSTORE MLOAD DUP13 DUP3 SUB PUSH1 0x1F NOT ADD PUSH1 0x80 DUP15 ADD MSTORE PUSH2 0x114E SWAP2 SWAP1 PUSH2 0x289F JUMP JUMPDEST SWAP1 MLOAD DUP12 DUP3 SUB PUSH1 0x1F NOT ADD PUSH1 0xA0 DUP14 ADD MSTORE PUSH2 0x1166 SWAP2 SWAP1 PUSH2 0x289F JUMP JUMPDEST SWAP2 MLOAD PUSH1 0xC0 DUP12 ADD MSTORE MLOAD DUP10 DUP3 SUB PUSH1 0x1F NOT ADD PUSH1 0xE0 DUP12 ADD MSTORE PUSH2 0x1184 SWAP2 SWAP1 PUSH2 0x289F JUMP JUMPDEST SWAP9 MLOAD PUSH2 0x100 DUP10 ADD MSTORE MLOAD PUSH2 0x120 DUP9 ADD MSTORE MLOAD ISZERO ISZERO PUSH2 0x140 DUP8 ADD MSTORE MLOAD SWAP4 PUSH1 0x1F NOT DUP7 DUP9 SUB ADD PUSH2 0x160 DUP8 ADD MSTORE DUP5 MLOAD DUP1 DUP9 MSTORE PUSH1 0x20 DUP9 ADD SWAP1 DUP1 PUSH1 0x5 SHL DUP10 ADD PUSH1 0x20 ADD SWAP7 PUSH1 0x20 ADD SWAP2 PUSH0 SWAP1 JUMPDEST DUP3 DUP3 LT PUSH2 0x1206 JUMPI DUP10 DUP1 DUP11 PUSH2 0xA7B DUP12 PUSH1 0xFF DUP13 DUP2 DUP14 DUP14 PUSH1 0x1 DUP1 PUSH1 0xA0 SHL SUB SWAP1 MLOAD AND PUSH2 0x180 DUP10 ADD MSTORE MLOAD AND PUSH2 0x1A0 DUP8 ADD MSTORE MLOAD AND PUSH2 0x1C0 DUP6 ADD MSTORE MLOAD PUSH2 0x1E0 DUP5 ADD SWAP1 PUSH2 0x2AFF JUMP JUMPDEST SWAP1 SWAP2 SWAP3 SWAP8 PUSH1 0x20 DUP1 PUSH2 0x1224 PUSH1 0x1 SWAP4 DUP15 PUSH1 0x1F NOT SWAP1 DUP3 SUB ADD DUP7 MSTORE DUP13 MLOAD PUSH2 0x289F JUMP JUMPDEST SWAP11 ADD SWAP3 ADD SWAP3 ADD SWAP1 SWAP3 SWAP2 PUSH2 0x11C6 JUMP JUMPDEST PUSH1 0x1 PUSH1 0x20 DUP2 SWAP3 PUSH2 0x1241 DUP6 PUSH2 0x2A5F JUMP JUMPDEST DUP2 MSTORE ADD SWAP3 ADD SWAP3 ADD SWAP2 SWAP1 PUSH2 0x1096 JUMP JUMPDEST CALLVALUE PUSH2 0x25A JUMPI PUSH0 CALLDATASIZE PUSH1 0x3 NOT ADD SLT PUSH2 0x25A JUMPI PUSH2 0x1267 PUSH2 0x2F08 JUMP JUMPDEST PUSH1 0x6 DUP1 SLOAD PUSH1 0x1 PUSH1 0x1 PUSH1 0xA0 SHL SUB NOT DUP2 AND SWAP1 SWAP2 SSTORE PUSH0 SWAP1 PUSH1 0x1 PUSH1 0x1 PUSH1 0xA0 SHL SUB AND PUSH32 0x8BE0079C531659141344CD1FD0A4F28419497F9722A3DAAFE3B4186F6B6457E0 DUP3 DUP1 LOG3 STOP JUMPDEST CALLVALUE PUSH2 0x25A JUMPI PUSH1 0x20 CALLDATASIZE PUSH1 0x3 NOT ADD SLT PUSH2 0x25A JUMPI PUSH1 0x1 PUSH1 0x1 PUSH1 0xA0 SHL SUB PUSH2 0x12CB PUSH2 0x28C3 JUMP JUMPDEST AND DUP1 ISZERO PUSH2 0x12E8 JUMPI PUSH0 MSTORE PUSH1 0x3 PUSH1 0x20 MSTORE PUSH1 0x20 PUSH1 0x40 PUSH0 KECCAK256 SLOAD PUSH1 0x40 MLOAD SWAP1 DUP2 MSTORE RETURN JUMPDEST PUSH4 0x22718AD9 PUSH1 0xE2 SHL PUSH0 MSTORE PUSH0 PUSH1 0x4 MSTORE PUSH1 0x24 PUSH0 REVERT JUMPDEST CALLVALUE PUSH2 0x25A JUMPI PUSH1 0x20 CALLDATASIZE PUSH1 0x3 NOT ADD SLT PUSH2 0x25A JUMPI PUSH1 0x20 PUSH2 0x1319 PUSH1 0x4 CALLDATALOAD PUSH2 0x2ED4 JUMP JUMPDEST PUSH1 0x40 MLOAD PUSH1 0x1 PUSH1 0x1 PUSH1 0xA0 SHL SUB SWAP1 SWAP2 AND DUP2 MSTORE RETURN JUMPDEST CALLVALUE PUSH2 0x25A JUMPI PUSH1 0x40 CALLDATASIZE PUSH1 0x3 NOT ADD SLT PUSH2 0x25A JUMPI PUSH2 0x1344 PUSH2 0x28D9 JUMP JUMPDEST PUSH1 0x4 CALLDATALOAD PUSH0 MSTORE PUSH1 0xA PUSH1 0x20 MSTORE PUSH1 0x40 PUSH0 KECCAK256 SWAP1 PUSH1 0x1 DUP1 PUSH1 0xA0 SHL SUB AND PUSH0 MSTORE PUSH1 0x20 MSTORE PUSH1 0x20 PUSH1 0xFF PUSH1 0x40 PUSH0 KECCAK256 SLOAD AND PUSH1 0x40 MLOAD SWAP1 ISZERO ISZERO DUP2 MSTORE RETURN JUMPDEST CALLVALUE PUSH2 0x25A JUMPI PUSH1 0x60 CALLDATASIZE PUSH1 0x3 NOT ADD SLT PUSH2 0x25A JUMPI PUSH1 0x4 CALLDATALOAD PUSH1 0x1 PUSH1 0x1 PUSH1 0x40 SHL SUB DUP2 GT PUSH2 0x25A JUMPI PUSH1 0x20 PUSH2 0x13A7 DUP2 SWAP3 CALLDATASIZE SWAP1 PUSH1 0x4 ADD PUSH2 0x29E3 JUMP JUMPDEST PUSH2 0x13AF PUSH2 0x2F08 JUMP JUMPDEST PUSH1 0x40 MLOAD SWAP3 DUP2 DUP5 SWAP3 MLOAD SWAP2 DUP3 SWAP2 ADD DUP4 MCOPY DUP2 ADD PUSH1 0xF DUP2 MSTORE SUB ADD SWAP1 KECCAK256 PUSH1 0x24 CALLDATALOAD PUSH0 MSTORE PUSH1 0x20 MSTORE PUSH1 0x44 CALLDATALOAD PUSH1 0x40 PUSH0 KECCAK256 SSTORE PUSH0 DUP1 RETURN JUMPDEST CALLVALUE PUSH2 0x25A JUMPI PUSH1 0x20 CALLDATASIZE PUSH1 0x3 NOT ADD SLT PUSH2 0x25A JUMPI PUSH2 0x13F4 PUSH2 0x2F08 JUMP JUMPDEST PUSH1 0x4 CALLDATALOAD PUSH1 0xD SSTORE STOP JUMPDEST CALLVALUE PUSH2 0x25A JUMPI PUSH0 CALLDATASIZE PUSH1 0x3 NOT ADD SLT PUSH2 0x25A JUMPI PUSH1 0x20 PUSH1 0xE SLOAD PUSH1 0x40 MLOAD SWAP1 DUP2 MSTORE RETURN JUMPDEST CALLVALUE PUSH2 0x25A JUMPI PUSH1 0x20 CALLDATASIZE PUSH1 0x3 NOT ADD SLT PUSH2 0x25A JUMPI PUSH2 0x1432 PUSH2 0x28C3 JUMP JUMPDEST PUSH2 0x143A PUSH2 0x2F08 JUMP JUMPDEST PUSH1 0x8 SLOAD SWAP1 PUSH1 0x5 DUP3 LT ISZERO PUSH2 0x154D JUMPI PUSH1 0x1 PUSH1 0x1 PUSH1 0xA0 SHL SUB DUP2 AND PUSH0 JUMPDEST DUP4 DUP2 LT PUSH2 0x14DF JUMPI POP PUSH1 0x1 PUSH1 0x40 SHL DUP4 LT ISZERO PUSH2 0x14CB JUMPI PUSH2 0x14C2 PUSH1 0x20 SWAP3 PUSH2 0x149E DUP6 PUSH1 0x1 PUSH32 0xE366C1C0452ED8EEC96861E9E54141EBFF23C9EC89FE27B996B45F5EC3884987 SWAP8 ADD PUSH1 0x8 SSTORE PUSH2 0x2929 JUMP JUMPDEST DUP2 SLOAD PUSH1 0x1 PUSH1 0x1 PUSH1 0xA0 SHL SUB SWAP4 DUP5 AND PUSH1 0x3 SWAP3 SWAP1 SWAP3 SHL SWAP2 DUP3 SHL SWAP4 SWAP1 SWAP2 SHL NOT AND SWAP2 SWAP1 SWAP2 OR SWAP1 SSTORE JUMP JUMPDEST PUSH1 0x40 MLOAD SWAP1 DUP2 MSTORE LOG1 STOP JUMPDEST PUSH4 0x4E487B71 PUSH1 0xE0 SHL PUSH0 MSTORE PUSH1 0x41 PUSH1 0x4 MSTORE PUSH1 0x24 PUSH0 REVERT JUMPDEST DUP2 PUSH2 0x14E9 DUP3 PUSH2 0x2929 JUMP JUMPDEST SWAP1 SLOAD PUSH1 0x3 SWAP2 SWAP1 SWAP2 SHL SHR PUSH1 0x1 PUSH1 0x1 PUSH1 0xA0 SHL SUB AND EQ PUSH2 0x1508 JUMPI PUSH1 0x1 ADD PUSH2 0x1453 JUMP JUMPDEST PUSH1 0x40 MLOAD PUSH3 0x461BCD PUSH1 0xE5 SHL DUP2 MSTORE PUSH1 0x20 PUSH1 0x4 DUP3 ADD MSTORE PUSH1 0x18 PUSH1 0x24 DUP3 ADD MSTORE PUSH32 0x56616C696461746F7220616C7265616479206578697374730000000000000000 PUSH1 0x44 DUP3 ADD MSTORE PUSH1 0x64 SWAP1 REVERT JUMPDEST PUSH1 0x40 MLOAD PUSH3 0x461BCD PUSH1 0xE5 SHL DUP2 MSTORE PUSH1 0x20 PUSH1 0x4 DUP3 ADD MSTORE PUSH1 0x16 PUSH1 0x24 DUP3 ADD MSTORE PUSH22 0x15985B1A59185D1BDC881B1A5CDD081A5CC8199D5B1B PUSH1 0x52 SHL PUSH1 0x44 DUP3 ADD MSTORE PUSH1 0x64 SWAP1 REVERT JUMPDEST CALLVALUE PUSH2 0x25A JUMPI PUSH1 0x20 CALLDATASIZE PUSH1 0x3 NOT ADD SLT PUSH2 0x25A JUMPI PUSH1 0x4 CALLDATALOAD PUSH0 MSTORE PUSH1 0x10 PUSH1 0x20 MSTORE PUSH1 0x40 PUSH0 KECCAK256 PUSH2 0x15B3 DUP2 PUSH2 0x2A5F JUMP JUMPDEST PUSH2 0x15BF PUSH1 0x1 DUP4 ADD PUSH2 0x2A5F JUMP JUMPDEST SWAP2 PUSH1 0x2 DUP2 ADD SLOAD PUSH1 0x3 DUP3 ADD PUSH2 0x15D2 SWAP1 PUSH2 0x2A5F JUMP JUMPDEST SWAP2 PUSH2 0x15DF PUSH1 0x4 DUP3 ADD PUSH2 0x2A5F JUMP JUMPDEST SWAP3 PUSH1 0x5 DUP3 ADD SLOAD PUSH1 0x6 DUP4 ADD PUSH2 0x15F2 SWAP1 PUSH2 0x2A5F JUMP JUMPDEST SWAP1 PUSH1 0x7 DUP5 ADD SLOAD SWAP6 PUSH1 0x8 DUP6 ADD SLOAD SWAP4 PUSH1 0x9 DUP7 ADD SLOAD PUSH1 0xFF AND SWAP6 PUSH1 0xB ADD SLOAD SWAP7 PUSH1 0x40 MLOAD SWAP11 DUP12 SWAP11 PUSH2 0x1C0 DUP13 MSTORE PUSH2 0x1C0 DUP13 ADD PUSH2 0x1626 SWAP2 PUSH2 0x289F JUMP JUMPDEST DUP12 DUP2 SUB PUSH1 0x20 DUP14 ADD MSTORE PUSH2 0x1637 SWAP2 PUSH2 0x289F JUMP JUMPDEST SWAP1 PUSH1 0x40 DUP12 ADD MSTORE DUP10 DUP2 SUB PUSH1 0x60 DUP12 ADD MSTORE PUSH2 0x164E SWAP2 PUSH2 0x289F JUMP JUMPDEST DUP9 DUP2 SUB PUSH1 0x80 DUP11 ADD MSTORE PUSH2 0x165F SWAP2 PUSH2 0x289F JUMP JUMPDEST SWAP1 PUSH1 0xA0 DUP9 ADD MSTORE DUP7 DUP2 SUB PUSH1 0xC0 DUP9 ADD MSTORE PUSH2 0x1676 SWAP2 PUSH2 0x289F JUMP JUMPDEST SWAP4 PUSH1 0xE0 DUP7 ADD MSTORE PUSH2 0x100 DUP6 ADD MSTORE ISZERO ISZERO PUSH2 0x120 DUP5 ADD MSTORE PUSH1 0x1 PUSH1 0xA0 SHL PUSH1 0x1 SWAP1 SUB DUP2 AND PUSH2 0x140 DUP5 ADD MSTORE DUP1 PUSH1 0xA0 SHR PUSH1 0xFF AND PUSH2 0x160 DUP5 ADD MSTORE DUP1 PUSH1 0xA8 SHR PUSH1 0xFF AND PUSH2 0x180 DUP5 ADD MSTORE PUSH2 0x1A0 DUP4 ADD SWAP1 PUSH1 0xB0 SHR PUSH1 0xFF AND SWAP1 PUSH2 0xA7B SWAP2 PUSH2 0x2AFF JUMP JUMPDEST CALLVALUE PUSH2 0x25A JUMPI PUSH2 0x663 PUSH2 0x16DC CALLDATASIZE PUSH2 0x28EF JUMP JUMPDEST SWAP1 PUSH1 0x40 MLOAD SWAP3 PUSH2 0x16EC PUSH1 0x20 DUP6 PUSH2 0x2971 JUMP JUMPDEST PUSH0 DUP5 MSTORE PUSH2 0xC70 DUP4 DUP4 DUP4 PUSH2 0x2B48 JUMP JUMPDEST PUSH2 0x160 CALLDATASIZE PUSH1 0x3 NOT ADD SLT PUSH2 0x25A JUMPI PUSH1 0x4 CALLDATALOAD PUSH1 0x1 PUSH1 0x1 PUSH1 0x40 SHL SUB DUP2 GT PUSH2 0x25A JUMPI PUSH2 0x1726 SWAP1 CALLDATASIZE SWAP1 PUSH1 0x4 ADD PUSH2 0x29E3 JUMP JUMPDEST PUSH1 0x24 CALLDATALOAD PUSH1 0x1 PUSH1 0x1 PUSH1 0x40 SHL SUB DUP2 GT PUSH2 0x25A JUMPI PUSH2 0x1745 SWAP1 CALLDATASIZE SWAP1 PUSH1 0x4 ADD PUSH2 0x29E3 JUMP JUMPDEST PUSH1 0x64 CALLDATALOAD PUSH1 0x1 PUSH1 0x1 PUSH1 0x40 SHL SUB DUP2 GT PUSH2 0x25A JUMPI PUSH2 0x1764 SWAP1 CALLDATASIZE SWAP1 PUSH1 0x4 ADD PUSH2 0x29E3 JUMP JUMPDEST SWAP1 PUSH1 0x84 CALLDATALOAD PUSH1 0x1 PUSH1 0x1 PUSH1 0x40 SHL SUB DUP2 GT PUSH2 0x25A JUMPI PUSH2 0x1784 SWAP1 CALLDATASIZE SWAP1 PUSH1 0x4 ADD PUSH2 0x29E3 JUMP JUMPDEST SWAP2 PUSH1 0xA4 CALLDATALOAD SWAP4 PUSH1 0xC4 CALLDATALOAD PUSH1 0x1 PUSH1 0x1 PUSH1 0x40 SHL SUB DUP2 GT PUSH2 0x25A JUMPI PUSH2 0x17A8 SWAP1 CALLDATASIZE SWAP1 PUSH1 0x4 ADD PUSH2 0x29E3 JUMP JUMPDEST PUSH1 0xE4 CALLDATALOAD PUSH2 0x124 CALLDATALOAD DUP1 ISZERO ISZERO DUP1 SWAP2 SUB PUSH2 0x25A JUMPI PUSH2 0x144 CALLDATALOAD SWAP2 PUSH1 0x1 PUSH1 0x1 PUSH1 0x40 SHL SUB DUP4 GT PUSH2 0x25A JUMPI CALLDATASIZE PUSH1 0x23 DUP5 ADD SLT ISZERO PUSH2 0x25A JUMPI DUP3 PUSH1 0x4 ADD CALLDATALOAD PUSH2 0x17E5 DUP2 PUSH2 0x2A10 JUMP JUMPDEST SWAP4 PUSH2 0x17F3 PUSH1 0x40 MLOAD SWAP6 DUP7 PUSH2 0x2971 JUMP JUMPDEST DUP2 DUP6 MSTORE PUSH1 0x24 PUSH1 0x20 DUP7 ADD SWAP3 PUSH1 0x5 SHL DUP3 ADD ADD SWAP1 CALLDATASIZE DUP3 GT PUSH2 0x25A JUMPI PUSH1 0x24 DUP2 ADD SWAP3 JUMPDEST DUP3 DUP5 LT PUSH2 0x2579 JUMPI POP POP POP POP PUSH1 0x2 DUP4 MLOAD LT PUSH2 0x2534 JUMPI PUSH3 0x186A0 DUP2 GT PUSH2 0x24E3 JUMPI PUSH3 0x989680 DUP10 GT PUSH2 0x2493 JUMPI PUSH1 0x7 SLOAD SWAP4 PUSH1 0x1 DUP6 ADD PUSH1 0x7 SSTORE PUSH1 0x20 SWAP9 PUSH1 0x40 MLOAD PUSH2 0x1854 DUP12 DUP3 PUSH2 0x2971 JUMP JUMPDEST PUSH0 DUP2 MSTORE CALLER ISZERO PUSH2 0x2480 JUMPI PUSH0 DUP8 DUP2 MSTORE PUSH1 0x2 DUP13 MSTORE PUSH1 0x40 SWAP1 KECCAK256 SLOAD PUSH1 0x1 PUSH1 0x1 PUSH1 0xA0 SHL SUB AND DUP1 ISZERO ISZERO SWAP1 DUP2 PUSH2 0x244F JUMPI JUMPDEST CALLER PUSH0 MSTORE PUSH1 0x3 DUP14 MSTORE PUSH1 0x40 PUSH0 KECCAK256 PUSH1 0x1 DUP2 SLOAD ADD SWAP1 SSTORE DUP9 PUSH0 MSTORE PUSH1 0x2 DUP14 MSTORE PUSH1 0x40 PUSH0 KECCAK256 PUSH1 0x1 DUP1 PUSH1 0xA0 SHL SUB CALLER AND PUSH12 0xFFFFFFFFFFFFFFFFFFFFFFFF PUSH1 0xA0 SHL DUP3 SLOAD AND OR SWAP1 SSTORE DUP9 CALLER DUP3 PUSH32 0xDDF252AD1BE2C89B69C2B068FC378DAA952BA7F163C4A11628F55A4DF523B3EF PUSH0 DUP1 LOG4 POP PUSH2 0x243C JUMPI DUP11 CALLER EXTCODESIZE PUSH2 0x2333 JUMPI JUMPDEST POP POP DUP9 MLOAD DUP11 DUP11 ADD KECCAK256 PUSH2 0x18FD PUSH2 0x2DF0 JUMP JUMPDEST DUP1 MLOAD SWAP1 DUP13 ADD KECCAK256 SUB PUSH2 0x229A JUMPI PUSH2 0x2710 DUP12 MUL DUP12 DUP2 DIV PUSH2 0x2710 EQ DUP13 ISZERO OR ISZERO PUSH2 0x70D JUMPI PUSH2 0x2710 PUSH4 0x1DA99A8 DUP13 DUP1 DUP14 PUSH1 0x40 MLOAD SWAP3 DUP2 DUP5 SWAP3 MLOAD SWAP2 DUP3 SWAP2 ADD DUP4 MCOPY PUSH1 0xF SWAP1 DUP3 ADD SWAP1 DUP2 MSTORE SUB ADD SWAP1 KECCAK256 SWAP3 DIV DIV PUSH0 MSTORE DUP11 MSTORE JUMPDEST PUSH1 0x40 MLOAD SWAP8 PUSH2 0x1956 DUP10 PUSH2 0x2955 JUMP JUMPDEST DUP8 DUP10 MSTORE DUP10 DUP12 DUP11 ADD MSTORE PUSH1 0x44 CALLDATALOAD PUSH1 0x40 DUP11 ADD MSTORE PUSH1 0x60 DUP10 ADD MSTORE PUSH1 0x80 DUP9 ADD MSTORE DUP10 PUSH1 0xA0 DUP9 ADD MSTORE PUSH1 0xC0 DUP8 ADD MSTORE PUSH1 0xE0 DUP7 ADD MSTORE PUSH2 0x104 CALLDATALOAD PUSH2 0x100 DUP7 ADD MSTORE PUSH2 0x120 DUP6 ADD MSTORE PUSH2 0x140 DUP5 ADD MSTORE CALLER PUSH2 0x160 DUP5 ADD MSTORE PUSH0 PUSH2 0x180 DUP5 ADD MSTORE PUSH0 PUSH2 0x1A0 DUP5 ADD MSTORE PUSH0 PUSH2 0x1C0 DUP5 ADD MSTORE DUP1 PUSH0 MSTORE PUSH1 0x10 DUP6 MSTORE PUSH1 0x40 PUSH0 KECCAK256 DUP4 MLOAD DUP1 MLOAD SWAP1 PUSH1 0x1 PUSH1 0x1 PUSH1 0x40 SHL SUB DUP3 GT PUSH2 0x14CB JUMPI PUSH2 0x19DA DUP4 SLOAD PUSH2 0x2A27 JUMP JUMPDEST PUSH1 0x1F DUP2 GT PUSH2 0x226C JUMPI JUMPDEST POP DUP8 SWAP1 PUSH1 0x1F DUP4 GT PUSH1 0x1 EQ PUSH2 0x2205 JUMPI PUSH2 0x1A12 SWAP3 SWAP2 PUSH0 SWAP2 DUP4 PUSH2 0x1F82 JUMPI JUMPDEST POP POP DUP2 PUSH1 0x1 SHL SWAP2 PUSH0 NOT SWAP1 PUSH1 0x3 SHL SHR NOT AND OR SWAP1 JUMP JUMPDEST DUP2 SSTORE JUMPDEST DUP6 DUP5 ADD MLOAD DUP1 MLOAD SWAP1 PUSH1 0x1 PUSH1 0x1 PUSH1 0x40 SHL SUB DUP3 GT PUSH2 0x14CB JUMPI PUSH2 0x1A37 PUSH1 0x1 DUP5 ADD SLOAD PUSH2 0x2A27 JUMP JUMPDEST PUSH1 0x1F DUP2 GT PUSH2 0x21D4 JUMPI JUMPDEST POP DUP8 SWAP1 PUSH1 0x1F DUP4 GT PUSH1 0x1 EQ PUSH2 0x2167 JUMPI PUSH2 0x1A6E SWAP3 SWAP2 PUSH0 SWAP2 DUP4 PUSH2 0x1F82 JUMPI POP POP DUP2 PUSH1 0x1 SHL SWAP2 PUSH0 NOT SWAP1 PUSH1 0x3 SHL SHR NOT AND OR SWAP1 JUMP JUMPDEST PUSH1 0x1 DUP3 ADD SSTORE JUMPDEST PUSH1 0x40 DUP5 ADD MLOAD PUSH1 0x2 DUP3 ADD SSTORE PUSH1 0x60 DUP5 ADD MLOAD DUP1 MLOAD SWAP1 PUSH1 0x1 PUSH1 0x1 PUSH1 0x40 SHL SUB DUP3 GT PUSH2 0x14CB JUMPI PUSH2 0x1AA1 PUSH1 0x3 DUP5 ADD SLOAD PUSH2 0x2A27 JUMP JUMPDEST PUSH1 0x1F DUP2 GT PUSH2 0x2136 JUMPI JUMPDEST POP DUP8 SWAP1 PUSH1 0x1F DUP4 GT PUSH1 0x1 EQ PUSH2 0x20C9 JUMPI PUSH2 0x1AD8 SWAP3 SWAP2 PUSH0 SWAP2 DUP4 PUSH2 0x1F82 JUMPI POP POP DUP2 PUSH1 0x1 SHL SWAP2 PUSH0 NOT SWAP1 PUSH1 0x3 SHL SHR NOT AND OR SWAP1 JUMP JUMPDEST PUSH1 0x3 DUP3 ADD SSTORE JUMPDEST PUSH1 0x80 DUP5 ADD MLOAD DUP1 MLOAD SWAP1 PUSH1 0x1 PUSH1 0x1 PUSH1 0x40 SHL SUB DUP3 GT PUSH2 0x14CB JUMPI PUSH2 0x1B01 PUSH1 0x4 DUP5 ADD SLOAD PUSH2 0x2A27 JUMP JUMPDEST PUSH1 0x1F DUP2 GT PUSH2 0x2098 JUMPI JUMPDEST POP DUP8 SWAP1 PUSH1 0x1F DUP4 GT PUSH1 0x1 EQ PUSH2 0x202B JUMPI PUSH2 0x1B38 SWAP3 SWAP2 PUSH0 SWAP2 DUP4 PUSH2 0x1F82 JUMPI POP POP DUP2 PUSH1 0x1 SHL SWAP2 PUSH0 NOT SWAP1 PUSH1 0x3 SHL SHR NOT AND OR SWAP1 JUMP JUMPDEST PUSH1 0x4 DUP3 ADD SSTORE JUMPDEST PUSH1 0xA0 DUP5 ADD MLOAD PUSH1 0x5 DUP3 ADD SSTORE PUSH1 0xC0 DUP5 ADD MLOAD DUP1 MLOAD SWAP1 PUSH1 0x1 PUSH1 0x1 PUSH1 0x40 SHL SUB DUP3 GT PUSH2 0x14CB JUMPI PUSH2 0x1B6B PUSH1 0x6 DUP5 ADD SLOAD PUSH2 0x2A27 JUMP JUMPDEST PUSH1 0x1F DUP2 GT PUSH2 0x1FFA JUMPI JUMPDEST POP DUP8 SWAP1 PUSH1 0x1F DUP4 GT PUSH1 0x1 EQ PUSH2 0x1F8D JUMPI PUSH2 0x1BA2 SWAP3 SWAP2 PUSH0 SWAP2 DUP4 PUSH2 0x1F82 JUMPI POP POP DUP2 PUSH1 0x1 SHL SWAP2 PUSH0 NOT SWAP1 PUSH1 0x3 SHL SHR NOT AND OR SWAP1 JUMP JUMPDEST PUSH1 0x6 DUP3 ADD SSTORE JUMPDEST PUSH1 0xE0 DUP5 ADD MLOAD PUSH1 0x7 DUP3 ADD SSTORE PUSH2 0x100 DUP5 ADD MLOAD PUSH1 0x8 DUP3 ADD SSTORE PUSH2 0x1BDD PUSH2 0x120 DUP6 ADD MLOAD ISZERO ISZERO PUSH1 0x9 DUP4 ADD SWAP1 PUSH1 0xFF DUP1 NOT DUP4 SLOAD AND SWAP2 ISZERO ISZERO AND OR SWAP1 SSTORE JUMP JUMPDEST PUSH1 0xA DUP2 ADD PUSH2 0x140 DUP6 ADD MLOAD DUP1 MLOAD SWAP1 PUSH1 0x1 PUSH1 0x40 SHL DUP3 GT PUSH2 0x14CB JUMPI DUP9 SWAP1 DUP4 SLOAD DUP4 DUP6 SSTORE DUP1 DUP5 LT PUSH2 0x1F06 JUMPI JUMPDEST POP ADD SWAP2 PUSH0 MSTORE DUP8 PUSH0 KECCAK256 PUSH0 SWAP3 JUMPDEST DUP3 DUP5 LT PUSH2 0x1DEA JUMPI POP POP POP POP PUSH2 0x160 DUP5 ADD MLOAD PUSH1 0xB SWAP2 SWAP1 SWAP2 ADD DUP1 SLOAD PUSH2 0x180 DUP7 ADD MLOAD PUSH1 0xFF PUSH1 0xA0 SHL PUSH1 0xA0 SWAP2 SWAP1 SWAP2 SHL AND PUSH1 0x1 PUSH1 0x1 PUSH1 0xA0 SHL SUB SWAP1 SWAP4 AND PUSH1 0x1 PUSH1 0x1 PUSH1 0xA8 SHL SUB NOT SWAP1 SWAP2 AND OR SWAP2 SWAP1 SWAP2 OR DUP2 SSTORE SWAP3 PUSH2 0x1C0 SWAP1 PUSH2 0x1A0 DUP2 ADD MLOAD DUP6 SLOAD PUSH1 0xFF PUSH1 0xA8 SHL NOT AND PUSH1 0xA8 SWAP2 SWAP1 SWAP2 SHL PUSH1 0xFF PUSH1 0xA8 SHL AND OR DUP6 SSTORE ADD MLOAD SWAP3 PUSH1 0x3 DUP5 LT ISZERO PUSH2 0x6D9 JUMPI PUSH32 0x6BECD955C918828F6E985541ACBF49CC842C9E9BD569FFFC7698E721EF13575 SWAP4 DUP2 SLOAD SWAP1 PUSH1 0xFF PUSH1 0xB0 SHL SWAP1 PUSH1 0xB0 SHL AND SWAP1 PUSH1 0xFF PUSH1 0xB0 SHL NOT AND OR SWAP1 SSTORE PUSH2 0x1CE2 PUSH1 0x40 MLOAD SWAP3 DUP4 SWAP3 DUP4 MSTORE CALLER DUP8 DUP5 ADD MSTORE PUSH1 0x60 PUSH1 0x40 DUP5 ADD MSTORE PUSH1 0x60 DUP4 ADD SWAP1 PUSH2 0x289F JUMP JUMPDEST SUB SWAP1 LOG1 DUP1 MLOAD DUP3 DUP3 ADD KECCAK256 PUSH2 0x1CF3 PUSH2 0x2DF0 JUMP JUMPDEST DUP1 MLOAD SWAP1 DUP5 ADD KECCAK256 SUB PUSH2 0x1D75 JUMPI POP PUSH4 0x1DA99A8 PUSH2 0x1D5C PUSH32 0xF9F00D0C5A2885ACBE30ED68E369E4DC8014646B6E65BA0A4498DA35E0D69C1C SWAP4 PUSH2 0x64B SWAP4 PUSH1 0xB DUP5 PUSH2 0x1D3C PUSH1 0xC SLOAD DUP6 PUSH2 0x2E4C JUMP JUMPDEST DIV SWAP2 CALLER PUSH0 MSTORE MSTORE PUSH2 0x1D51 PUSH1 0x40 PUSH0 KECCAK256 SWAP2 DUP3 SLOAD PUSH2 0x2E5F JUMP JUMPDEST SWAP1 SSTORE PUSH1 0xC SLOAD SWAP1 PUSH2 0x2E4C JUMP JUMPDEST PUSH1 0x40 DUP1 MLOAD CALLER DUP2 MSTORE SWAP3 SWAP1 SWAP2 DIV PUSH1 0x20 DUP4 ADD MSTORE SWAP1 SWAP2 DUP3 SWAP2 DUP3 ADD SWAP1 JUMP JUMPDEST DUP2 DUP2 MLOAD SWAP2 ADD KECCAK256 PUSH2 0x1D83 PUSH2 0x2E14 JUMP JUMPDEST DUP3 DUP2 MLOAD SWAP2 ADD KECCAK256 EQ PUSH2 0x1D90 JUMPI STOP JUMPDEST PUSH1 0x64 PUSH2 0x1D5C PUSH32 0xF9F00D0C5A2885ACBE30ED68E369E4DC8014646B6E65BA0A4498DA35E0D69C1C SWAP4 PUSH2 0x64B SWAP4 PUSH1 0xB DUP5 PUSH2 0x1DCA PUSH1 0xD SLOAD DUP6 PUSH2 0x2E4C JUMP JUMPDEST DIV SWAP2 CALLER PUSH0 MSTORE MSTORE PUSH2 0x1DDF PUSH1 0x40 PUSH0 KECCAK256 SWAP2 DUP3 SLOAD PUSH2 0x2E5F JUMP JUMPDEST SWAP1 SSTORE PUSH1 0xD SLOAD SWAP1 PUSH2 0x2E4C JUMP JUMPDEST DUP1 MLOAD SWAP1 DUP2 MLOAD PUSH1 0x1 PUSH1 0x1 PUSH1 0x40 SHL SUB DUP2 GT PUSH2 0x14CB JUMPI DUP12 SWAP3 PUSH2 0x1E09 DUP6 SLOAD PUSH2 0x2A27 JUMP JUMPDEST PUSH1 0x1F DUP2 GT PUSH2 0x1ECD JUMPI JUMPDEST POP DUP4 SWAP1 PUSH1 0x1F DUP4 GT PUSH1 0x1 EQ PUSH2 0x1E60 JUMPI DUP3 PUSH1 0x1 SWAP6 SWAP4 DUP7 SWAP6 SWAP4 PUSH2 0x1E46 SWAP4 PUSH0 SWAP3 PUSH2 0x1E55 JUMPI POP POP DUP2 PUSH1 0x1 SHL SWAP2 PUSH0 NOT SWAP1 PUSH1 0x3 SHL SHR NOT AND OR SWAP1 JUMP JUMPDEST DUP6 SSTORE JUMPDEST ADD SWAP3 ADD SWAP4 ADD SWAP3 SWAP1 PUSH2 0x1C0F JUMP JUMPDEST ADD MLOAD SWAP1 POP PUSH0 DUP1 PUSH2 0x19FE JUMP JUMPDEST SWAP1 DUP6 PUSH0 SWAP6 SWAP5 SWAP6 MSTORE DUP4 PUSH0 KECCAK256 SWAP2 PUSH0 JUMPDEST PUSH1 0x1F NOT DUP6 AND DUP2 LT PUSH2 0x1EB5 JUMPI POP SWAP3 PUSH1 0x1 SWAP6 SWAP3 DUP7 SWAP6 SWAP5 SWAP3 DUP7 SWAP4 DUP4 PUSH1 0x1F NOT DUP2 AND LT PUSH2 0x1E9D JUMPI JUMPDEST POP POP POP DUP2 SHL ADD DUP6 SSTORE PUSH2 0x1E49 JUMP JUMPDEST ADD MLOAD PUSH0 NOT PUSH1 0xF8 DUP5 PUSH1 0x3 SHL AND SHR NOT AND SWAP1 SSTORE PUSH0 DUP1 DUP1 PUSH2 0x1E90 JUMP JUMPDEST DUP2 DUP4 ADD MLOAD DUP5 SSTORE DUP16 SWAP6 PUSH1 0x1 SWAP1 SWAP5 ADD SWAP4 SWAP3 DUP4 ADD SWAP3 ADD PUSH2 0x1E6D JUMP JUMPDEST PUSH2 0x1EF6 SWAP1 DUP7 PUSH0 MSTORE DUP6 PUSH0 KECCAK256 PUSH1 0x1F DUP6 ADD PUSH1 0x5 SHR DUP2 ADD SWAP2 DUP8 DUP7 LT PUSH2 0x1EFC JUMPI JUMPDEST PUSH1 0x1F ADD PUSH1 0x5 SHR ADD SWAP1 PUSH2 0x2E36 JUMP JUMPDEST DUP15 PUSH2 0x1E12 JUMP JUMPDEST SWAP1 SWAP2 POP DUP2 SWAP1 PUSH2 0x1EE9 JUMP JUMPDEST DUP5 PUSH0 MSTORE DUP4 DUP4 PUSH0 KECCAK256 SWAP2 DUP3 ADD SWAP2 ADD JUMPDEST DUP2 DUP2 LT PUSH2 0x1F20 JUMPI POP PUSH2 0x1C04 JUMP JUMPDEST PUSH1 0x1 SWAP2 SWAP3 SWAP4 PUSH2 0x1F2F DUP3 SLOAD PUSH2 0x2A27 JUMP JUMPDEST DUP1 PUSH2 0x1F41 JUMPI JUMPDEST POP POP ADD SWAP1 DUP11 SWAP3 SWAP2 PUSH2 0x1F13 JUMP JUMPDEST PUSH1 0x1F DUP2 GT DUP5 EQ PUSH2 0x1F58 JUMPI POP POP PUSH0 DUP2 SSTORE JUMPDEST DUP12 DUP15 PUSH2 0x1F35 JUMP JUMPDEST DUP4 PUSH1 0x1F PUSH2 0x1F72 SWAP4 DUP6 PUSH0 MSTORE PUSH0 KECCAK256 SWAP3 ADD PUSH1 0x5 SHR DUP3 ADD SWAP2 ADD PUSH2 0x2E36 JUMP JUMPDEST DUP1 PUSH0 MSTORE PUSH0 DUP13 DUP2 KECCAK256 DUP2 DUP4 SSTORE SSTORE PUSH2 0x1F51 JUMP JUMPDEST ADD MLOAD SWAP1 POP DUP11 DUP1 PUSH2 0x19FE JUMP JUMPDEST SWAP2 SWAP1 PUSH1 0x6 DUP5 ADD PUSH0 MSTORE DUP9 PUSH0 KECCAK256 SWAP1 PUSH0 SWAP4 JUMPDEST DUP11 PUSH1 0x1F NOT DUP6 AND DUP7 LT PUSH2 0x1FE1 JUMPI POP PUSH1 0x1 SWAP5 POP DUP4 PUSH1 0x1F NOT DUP2 AND LT PUSH2 0x1FC9 JUMPI JUMPDEST POP POP POP DUP2 SHL ADD PUSH1 0x6 DUP3 ADD SSTORE PUSH2 0x1BA8 JUMP JUMPDEST ADD MLOAD PUSH0 NOT PUSH1 0xF8 DUP5 PUSH1 0x3 SHL AND SHR NOT AND SWAP1 SSTORE DUP10 DUP1 DUP1 PUSH2 0x1FB9 JUMP JUMPDEST DUP3 DUP3 ADD MLOAD DUP5 SSTORE SWAP5 DUP6 ADD SWAP5 PUSH1 0x1 SWAP1 SWAP4 ADD SWAP3 SWAP1 SWAP2 ADD SWAP1 PUSH2 0x1F9C JUMP JUMPDEST PUSH2 0x2025 SWAP1 PUSH1 0x6 DUP6 ADD PUSH0 MSTORE DUP10 PUSH0 KECCAK256 PUSH1 0x1F DUP6 ADD PUSH1 0x5 SHR DUP2 ADD SWAP2 DUP12 DUP7 LT PUSH2 0x1EFC JUMPI PUSH1 0x1F ADD PUSH1 0x5 SHR ADD SWAP1 PUSH2 0x2E36 JUMP JUMPDEST DUP10 PUSH2 0x1B74 JUMP JUMPDEST SWAP2 SWAP1 PUSH1 0x4 DUP5 ADD PUSH0 MSTORE DUP9 PUSH0 KECCAK256 SWAP1 PUSH0 SWAP4 JUMPDEST DUP11 PUSH1 0x1F NOT DUP6 AND DUP7 LT PUSH2 0x207F JUMPI POP PUSH1 0x1 SWAP5 POP DUP4 PUSH1 0x1F NOT DUP2 AND LT PUSH2 0x2067 JUMPI JUMPDEST POP POP POP DUP2 SHL ADD PUSH1 0x4 DUP3 ADD SSTORE PUSH2 0x1B3E JUMP JUMPDEST ADD MLOAD PUSH0 NOT PUSH1 0xF8 DUP5 PUSH1 0x3 SHL AND SHR NOT AND SWAP1 SSTORE DUP10 DUP1 DUP1 PUSH2 0x2057 JUMP JUMPDEST DUP3 DUP3 ADD MLOAD DUP5 SSTORE SWAP5 DUP6 ADD SWAP5 PUSH1 0x1 SWAP1 SWAP4 ADD SWAP3 SWAP1 SWAP2 ADD SWAP1 PUSH2 0x203A JUMP JUMPDEST PUSH2 0x20C3 SWAP1 PUSH1 0x4 DUP6 ADD PUSH0 MSTORE DUP10 PUSH0 KECCAK256 PUSH1 0x1F DUP6 ADD PUSH1 0x5 SHR DUP2 ADD SWAP2 DUP12 DUP7 LT PUSH2 0x1EFC JUMPI PUSH1 0x1F ADD PUSH1 0x5 SHR ADD SWAP1 PUSH2 0x2E36 JUMP JUMPDEST DUP10 PUSH2 0x1B0A JUMP JUMPDEST SWAP2 SWAP1 PUSH1 0x3 DUP5 ADD PUSH0 MSTORE DUP9 PUSH0 KECCAK256 SWAP1 PUSH0 SWAP4 JUMPDEST DUP11 PUSH1 0x1F NOT DUP6 AND DUP7 LT PUSH2 0x211D JUMPI POP PUSH1 0x1 SWAP5 POP DUP4 PUSH1 0x1F NOT DUP2 AND LT PUSH2 0x2105 JUMPI JUMPDEST POP POP POP DUP2 SHL ADD PUSH1 0x3 DUP3 ADD SSTORE PUSH2 0x1ADE JUMP JUMPDEST ADD MLOAD PUSH0 NOT PUSH1 0xF8 DUP5 PUSH1 0x3 SHL AND SHR NOT AND SWAP1 SSTORE DUP10 DUP1 DUP1 PUSH2 0x20F5 JUMP JUMPDEST DUP3 DUP3 ADD MLOAD DUP5 SSTORE SWAP5 DUP6 ADD SWAP5 PUSH1 0x1 SWAP1 SWAP4 ADD SWAP3 SWAP1 SWAP2 ADD SWAP1 PUSH2 0x20D8 JUMP JUMPDEST PUSH2 0x2161 SWAP1 PUSH1 0x3 DUP6 ADD PUSH0 MSTORE DUP10 PUSH0 KECCAK256 PUSH1 0x1F DUP6 ADD PUSH1 0x5 SHR DUP2 ADD SWAP2 DUP12 DUP7 LT PUSH2 0x1EFC JUMPI PUSH1 0x1F ADD PUSH1 0x5 SHR ADD SWAP1 PUSH2 0x2E36 JUMP JUMPDEST DUP10 PUSH2 0x1AAA JUMP JUMPDEST SWAP2 SWAP1 PUSH1 0x1 DUP5 ADD PUSH0 MSTORE DUP9 PUSH0 KECCAK256 SWAP1 PUSH0 SWAP4 JUMPDEST DUP11 PUSH1 0x1F NOT DUP6 AND DUP7 LT PUSH2 0x21BB JUMPI POP PUSH1 0x1 SWAP5 POP DUP4 PUSH1 0x1F NOT DUP2 AND LT PUSH2 0x21A3 JUMPI JUMPDEST POP POP POP DUP2 SHL ADD PUSH1 0x1 DUP3 ADD SSTORE PUSH2 0x1A74 JUMP JUMPDEST ADD MLOAD PUSH0 NOT PUSH1 0xF8 DUP5 PUSH1 0x3 SHL AND SHR NOT AND SWAP1 SSTORE DUP10 DUP1 DUP1 PUSH2 0x2193 JUMP JUMPDEST DUP3 DUP3 ADD MLOAD DUP5 SSTORE SWAP5 DUP6 ADD SWAP5 PUSH1 0x1 SWAP1 SWAP4 ADD SWAP3 SWAP1 SWAP2 ADD SWAP1 PUSH2 0x2176 JUMP JUMPDEST PUSH2 0x21FF SWAP1 PUSH1 0x1 DUP6 ADD PUSH0 MSTORE DUP10 PUSH0 KECCAK256 PUSH1 0x1F DUP6 ADD PUSH1 0x5 SHR DUP2 ADD SWAP2 DUP12 DUP7 LT PUSH2 0x1EFC JUMPI PUSH1 0x1F ADD PUSH1 0x5 SHR ADD SWAP1 PUSH2 0x2E36 JUMP JUMPDEST DUP10 PUSH2 0x1A40 JUMP JUMPDEST SWAP2 SWAP1 DUP4 PUSH0 MSTORE DUP9 PUSH0 KECCAK256 SWAP1 PUSH0 SWAP4 JUMPDEST DUP11 PUSH1 0x1F NOT DUP6 AND DUP7 LT PUSH2 0x2253 JUMPI POP PUSH1 0x1 SWAP5 POP DUP4 PUSH1 0x1F NOT DUP2 AND LT PUSH2 0x223B JUMPI JUMPDEST POP POP POP DUP2 SHL ADD DUP2 SSTORE PUSH2 0x1A15 JUMP JUMPDEST ADD MLOAD PUSH0 NOT PUSH1 0xF8 DUP5 PUSH1 0x3 SHL AND SHR NOT AND SWAP1 SSTORE DUP10 DUP1 DUP1 PUSH2 0x222E JUMP JUMPDEST DUP3 DUP3 ADD MLOAD DUP5 SSTORE SWAP5 DUP6 ADD SWAP5 PUSH1 0x1 SWAP1 SWAP4 ADD SWAP3 SWAP1 SWAP2 ADD SWAP1 PUSH2 0x2211 JUMP JUMPDEST PUSH2 0x2294 SWAP1 DUP5 PUSH0 MSTORE DUP10 PUSH0 KECCAK256 PUSH1 0x1F DUP6 ADD PUSH1 0x5 SHR DUP2 ADD SWAP2 DUP12 DUP7 LT PUSH2 0x1EFC JUMPI PUSH1 0x1F ADD PUSH1 0x5 SHR ADD SWAP1 PUSH2 0x2E36 JUMP JUMPDEST DUP10 PUSH2 0x19E3 JUMP JUMPDEST DUP9 MLOAD DUP11 DUP11 ADD KECCAK256 PUSH2 0x22A8 PUSH2 0x2E14 JUMP JUMPDEST DUP1 MLOAD SWAP1 DUP13 ADD KECCAK256 SUB PUSH2 0x22DB JUMPI PUSH1 0x40 MLOAD DUP11 DUP2 DUP2 DUP13 DUP1 MLOAD SWAP2 DUP3 SWAP2 ADD DUP4 MCOPY PUSH1 0xF SWAP1 DUP3 ADD SWAP1 DUP2 MSTORE SUB ADD SWAP1 KECCAK256 PUSH1 0x64 DUP13 DIV PUSH0 MSTORE DUP11 MSTORE PUSH2 0x1949 JUMP JUMPDEST PUSH1 0x40 MLOAD PUSH3 0x461BCD PUSH1 0xE5 SHL DUP2 MSTORE PUSH1 0x4 DUP2 ADD DUP12 SWAP1 MSTORE PUSH1 0x2A PUSH1 0x24 DUP3 ADD MSTORE PUSH32 0x556E737570706F72746564206173736574207479706520666F72206665652063 PUSH1 0x44 DUP3 ADD MSTORE PUSH10 0x30B631BAB630BA34B7B7 PUSH1 0xB1 SHL PUSH1 0x64 DUP3 ADD MSTORE PUSH1 0x84 SWAP1 REVERT JUMPDEST PUSH2 0x236B SWAP2 PUSH1 0x40 MLOAD DUP1 SWAP4 DUP2 SWAP3 PUSH4 0xA85BD01 PUSH1 0xE1 SHL DUP4 MSTORE CALLER PUSH1 0x4 DUP5 ADD MSTORE PUSH0 PUSH1 0x24 DUP5 ADD MSTORE DUP12 PUSH1 0x44 DUP5 ADD MSTORE PUSH1 0x80 PUSH1 0x64 DUP5 ADD MSTORE PUSH1 0x84 DUP4 ADD SWAP1 PUSH2 0x289F JUMP JUMPDEST SUB DUP2 PUSH0 CALLER GAS CALL PUSH0 SWAP2 DUP2 PUSH2 0x23FC JUMPI JUMPDEST POP PUSH2 0x23CB JUMPI DUP11 RETURNDATASIZE ISZERO PUSH2 0x23C4 JUMPI RETURNDATASIZE PUSH2 0x238F DUP2 PUSH2 0x2992 JUMP JUMPDEST SWAP1 PUSH2 0x239D PUSH1 0x40 MLOAD SWAP3 DUP4 PUSH2 0x2971 JUMP JUMPDEST DUP2 MSTORE RETURNDATASIZE PUSH0 DUP4 DUP4 ADD RETURNDATACOPY JUMPDEST DUP1 MLOAD SWAP2 DUP3 PUSH2 0x23C1 JUMPI PUSH4 0x32505749 PUSH1 0xE1 SHL PUSH0 MSTORE CALLER PUSH1 0x4 MSTORE PUSH1 0x24 PUSH0 REVERT JUMPDEST ADD REVERT JUMPDEST PUSH1 0x60 PUSH2 0x23A6 JUMP JUMPDEST PUSH1 0x1 PUSH1 0x1 PUSH1 0xE0 SHL SUB NOT AND PUSH4 0x757A42FF PUSH1 0xE1 SHL ADD PUSH2 0x23E9 JUMPI DUP12 DUP11 PUSH2 0x18ED JUMP JUMPDEST PUSH4 0x32505749 PUSH1 0xE1 SHL PUSH0 MSTORE CALLER PUSH1 0x4 MSTORE PUSH1 0x24 PUSH0 REVERT JUMPDEST SWAP1 SWAP2 POP DUP12 DUP2 DUP2 RETURNDATASIZE DUP4 GT PUSH2 0x2435 JUMPI JUMPDEST PUSH2 0x2414 DUP2 DUP4 PUSH2 0x2971 JUMP JUMPDEST DUP2 ADD SUB SLT PUSH2 0x25A JUMPI MLOAD PUSH1 0x1 PUSH1 0x1 PUSH1 0xE0 SHL SUB NOT DUP2 AND DUP2 SUB PUSH2 0x25A JUMPI SWAP1 DUP14 PUSH2 0x2379 JUMP JUMPDEST POP RETURNDATASIZE PUSH2 0x240A JUMP JUMPDEST PUSH4 0x39E35637 PUSH1 0xE1 SHL PUSH0 MSTORE PUSH0 PUSH1 0x4 MSTORE PUSH1 0x24 PUSH0 REVERT JUMPDEST PUSH0 DUP10 DUP2 MSTORE PUSH1 0x4 PUSH1 0x20 MSTORE PUSH1 0x40 DUP1 DUP3 KECCAK256 DUP1 SLOAD PUSH1 0x1 PUSH1 0x1 PUSH1 0xA0 SHL SUB NOT AND SWAP1 SSTORE DUP3 DUP3 MSTORE PUSH1 0x3 DUP16 MSTORE SWAP1 KECCAK256 DUP1 SLOAD PUSH0 NOT ADD SWAP1 SSTORE PUSH2 0x187D JUMP JUMPDEST PUSH4 0x32505749 PUSH1 0xE1 SHL PUSH0 MSTORE PUSH0 PUSH1 0x4 MSTORE PUSH1 0x24 PUSH0 REVERT JUMPDEST PUSH1 0x40 MLOAD PUSH3 0x461BCD PUSH1 0xE5 SHL DUP2 MSTORE PUSH1 0x20 PUSH1 0x4 DUP3 ADD MSTORE PUSH1 0x22 PUSH1 0x24 DUP3 ADD MSTORE PUSH32 0x5765696768742063616E6E6F7420657863656564203130302C30303020677261 PUSH1 0x44 DUP3 ADD MSTORE PUSH2 0x6D73 PUSH1 0xF0 SHL PUSH1 0x64 DUP3 ADD MSTORE PUSH1 0x84 SWAP1 REVERT JUMPDEST PUSH1 0x40 MLOAD PUSH3 0x461BCD PUSH1 0xE5 SHL DUP2 MSTORE PUSH1 0x20 PUSH1 0x4 DUP3 ADD MSTORE PUSH1 0x24 DUP1 DUP3 ADD MSTORE PUSH32 0x5075726974792070657263656E746167652063616E6E6F742065786365656420 PUSH1 0x44 DUP3 ADD MSTORE PUSH4 0x31303025 PUSH1 0xE0 SHL PUSH1 0x64 DUP3 ADD MSTORE PUSH1 0x84 SWAP1 REVERT JUMPDEST PUSH1 0x40 MLOAD PUSH3 0x461BCD PUSH1 0xE5 SHL DUP2 MSTORE PUSH1 0x20 PUSH1 0x4 DUP3 ADD MSTORE PUSH1 0x1E PUSH1 0x24 DUP3 ADD MSTORE PUSH32 0x4D7573742070726F76696465206174206C65617374203220696D616765730000 PUSH1 0x44 DUP3 ADD MSTORE PUSH1 0x64 SWAP1 REVERT JUMPDEST DUP4 CALLDATALOAD PUSH1 0x1 PUSH1 0x1 PUSH1 0x40 SHL SUB DUP2 GT PUSH2 0x25A JUMPI PUSH1 0x20 SWAP2 PUSH2 0x259D DUP4 SWAP3 PUSH1 0x24 CALLDATASIZE SWAP2 DUP8 ADD ADD PUSH2 0x29E3 JUMP JUMPDEST DUP2 MSTORE ADD SWAP4 ADD SWAP3 PUSH2 0x1811 JUMP JUMPDEST CALLVALUE PUSH2 0x25A JUMPI PUSH1 0x20 CALLDATASIZE PUSH1 0x3 NOT ADD SLT PUSH2 0x25A JUMPI PUSH2 0x663 PUSH2 0x25C4 PUSH2 0x28C3 JUMP JUMPDEST PUSH2 0x25CC PUSH2 0x2F08 JUMP JUMPDEST PUSH2 0x2CD5 JUMP JUMPDEST CALLVALUE PUSH2 0x25A JUMPI PUSH1 0x20 CALLDATASIZE PUSH1 0x3 NOT ADD SLT PUSH2 0x25A JUMPI PUSH2 0x25EA PUSH2 0x2F08 JUMP JUMPDEST PUSH1 0x4 CALLDATALOAD PUSH1 0xC SSTORE STOP JUMPDEST CALLVALUE PUSH2 0x25A JUMPI PUSH1 0x20 CALLDATASIZE PUSH1 0x3 NOT ADD SLT PUSH2 0x25A JUMPI PUSH1 0x4 CALLDATALOAD PUSH1 0x8 SLOAD DUP2 LT ISZERO PUSH2 0x25A JUMPI PUSH2 0x261B PUSH1 0x20 SWAP2 PUSH2 0x2929 JUMP JUMPDEST SWAP1 SLOAD PUSH1 0x40 MLOAD PUSH1 0x3 SWAP3 SWAP1 SWAP3 SHL SHR PUSH1 0x1 PUSH1 0x1 PUSH1 0xA0 SHL SUB AND DUP2 MSTORE RETURN JUMPDEST CALLVALUE PUSH2 0x25A JUMPI PUSH1 0x20 CALLDATASIZE PUSH1 0x3 NOT ADD SLT PUSH2 0x25A JUMPI PUSH2 0x264D PUSH2 0x2F08 JUMP JUMPDEST PUSH1 0x4 CALLDATALOAD PUSH1 0xE SSTORE STOP JUMPDEST CALLVALUE PUSH2 0x25A JUMPI PUSH2 0x663 PUSH2 0x2666 CALLDATASIZE PUSH2 0x28EF JUMP JUMPDEST SWAP2 PUSH2 0x2B48 JUMP JUMPDEST CALLVALUE PUSH2 0x25A JUMPI PUSH1 0x40 CALLDATASIZE PUSH1 0x3 NOT ADD SLT PUSH2 0x25A JUMPI PUSH2 0x2685 PUSH2 0x28C3 JUMP JUMPDEST PUSH1 0x24 CALLDATALOAD PUSH2 0x2691 DUP2 PUSH2 0x2ED4 JUMP JUMPDEST CALLER ISZERO ISZERO DUP1 PUSH2 0x2743 JUMPI JUMPDEST DUP1 PUSH2 0x2716 JUMPI JUMPDEST PUSH2 0x2703 JUMPI DUP2 SWAP1 PUSH1 0x1 PUSH1 0x1 PUSH1 0xA0 SHL SUB DUP5 DUP2 AND SWAP2 AND PUSH32 0x8C5BE1E5EBEC7D5BD14F71427D1E84F3DD0314C0F7B2291E5B200AC8C7C3B925 PUSH0 DUP1 LOG4 PUSH0 SWAP1 DUP2 MSTORE PUSH1 0x4 PUSH1 0x20 MSTORE PUSH1 0x40 SWAP1 KECCAK256 DUP1 SLOAD PUSH1 0x1 PUSH1 0x1 PUSH1 0xA0 SHL SUB NOT AND PUSH1 0x1 PUSH1 0x1 PUSH1 0xA0 SHL SUB SWAP1 SWAP3 AND SWAP2 SWAP1 SWAP2 OR SWAP1 SSTORE STOP JUMPDEST PUSH4 0xA9FBF51F PUSH1 0xE0 SHL PUSH0 MSTORE CALLER PUSH1 0x4 MSTORE PUSH1 0x24 PUSH0 REVERT JUMPDEST POP PUSH1 0x1 PUSH1 0x1 PUSH1 0xA0 SHL SUB DUP2 AND PUSH0 SWAP1 DUP2 MSTORE PUSH1 0x5 PUSH1 0x20 SWAP1 DUP2 MSTORE PUSH1 0x40 DUP1 DUP4 KECCAK256 CALLER DUP5 MSTORE SWAP1 SWAP2 MSTORE SWAP1 KECCAK256 SLOAD PUSH1 0xFF AND ISZERO PUSH2 0x26A0 JUMP JUMPDEST POP PUSH1 0x1 PUSH1 0x1 PUSH1 0xA0 SHL SUB DUP2 AND CALLER EQ ISZERO PUSH2 0x269A JUMP JUMPDEST CALLVALUE PUSH2 0x25A JUMPI PUSH1 0x20 CALLDATASIZE PUSH1 0x3 NOT ADD SLT PUSH2 0x25A JUMPI PUSH1 0x4 CALLDATALOAD PUSH2 0x2773 DUP2 PUSH2 0x2ED4 JUMP JUMPDEST POP PUSH0 MSTORE PUSH1 0x4 PUSH1 0x20 MSTORE PUSH1 0x20 PUSH1 0x1 DUP1 PUSH1 0xA0 SHL SUB PUSH1 0x40 PUSH0 KECCAK256 SLOAD AND PUSH1 0x40 MLOAD SWAP1 DUP2 MSTORE RETURN JUMPDEST CALLVALUE PUSH2 0x25A JUMPI PUSH0 CALLDATASIZE PUSH1 0x3 NOT ADD SLT PUSH2 0x25A JUMPI PUSH1 0x40 MLOAD PUSH0 DUP1 SLOAD PUSH2 0x27B1 DUP2 PUSH2 0x2A27 JUMP JUMPDEST DUP1 DUP5 MSTORE SWAP1 PUSH1 0x1 DUP2 AND SWAP1 DUP2 ISZERO PUSH2 0xEC1 JUMPI POP PUSH1 0x1 EQ PUSH2 0x27D8 JUMPI PUSH2 0xA7B DUP4 PUSH2 0xA67 DUP2 DUP6 SUB DUP3 PUSH2 0x2971 JUMP JUMPDEST PUSH0 DUP1 DUP1 MSTORE PUSH32 0x290DECD9548B62A8D60345A988386FC84BA6BC95484008F6362F93160EF3E563 SWAP4 SWAP3 POP SWAP1 JUMPDEST DUP1 DUP3 LT PUSH2 0x281A JUMPI POP SWAP1 SWAP2 POP DUP2 ADD PUSH1 0x20 ADD PUSH2 0xA67 PUSH2 0xE53 JUMP JUMPDEST SWAP2 SWAP3 PUSH1 0x1 DUP2 PUSH1 0x20 SWAP3 SLOAD DUP4 DUP6 DUP9 ADD ADD MSTORE ADD SWAP2 ADD SWAP1 SWAP3 SWAP2 PUSH2 0x2802 JUMP JUMPDEST CALLVALUE PUSH2 0x25A JUMPI PUSH1 0x20 CALLDATASIZE PUSH1 0x3 NOT ADD SLT PUSH2 0x25A JUMPI PUSH1 0x4 CALLDATALOAD SWAP1 PUSH4 0xFFFFFFFF PUSH1 0xE0 SHL DUP3 AND DUP1 SWAP3 SUB PUSH2 0x25A JUMPI PUSH1 0x20 SWAP2 PUSH4 0x80AC58CD PUSH1 0xE0 SHL DUP2 EQ SWAP1 DUP2 ISZERO PUSH2 0x288E JUMPI JUMPDEST DUP2 ISZERO PUSH2 0x287D JUMPI JUMPDEST POP ISZERO ISZERO DUP2 MSTORE RETURN JUMPDEST PUSH4 0x1FFC9A7 PUSH1 0xE0 SHL EQ SWAP1 POP DUP4 PUSH2 0x2876 JUMP JUMPDEST PUSH4 0x5B5E139F PUSH1 0xE0 SHL DUP2 EQ SWAP2 POP PUSH2 0x286F JUMP JUMPDEST DUP1 MLOAD DUP1 DUP4 MSTORE PUSH1 0x20 SWAP3 SWAP2 DUP2 SWAP1 DUP5 ADD DUP5 DUP5 ADD MCOPY PUSH0 DUP3 DUP3 ADD DUP5 ADD MSTORE PUSH1 0x1F ADD PUSH1 0x1F NOT AND ADD ADD SWAP1 JUMP JUMPDEST PUSH1 0x4 CALLDATALOAD SWAP1 PUSH1 0x1 PUSH1 0x1 PUSH1 0xA0 SHL SUB DUP3 AND DUP3 SUB PUSH2 0x25A JUMPI JUMP JUMPDEST PUSH1 0x24 CALLDATALOAD SWAP1 PUSH1 0x1 PUSH1 0x1 PUSH1 0xA0 SHL SUB DUP3 AND DUP3 SUB PUSH2 0x25A JUMPI JUMP JUMPDEST PUSH1 0x60 SWAP1 PUSH1 0x3 NOT ADD SLT PUSH2 0x25A JUMPI PUSH1 0x4 CALLDATALOAD PUSH1 0x1 PUSH1 0x1 PUSH1 0xA0 SHL SUB DUP2 AND DUP2 SUB PUSH2 0x25A JUMPI SWAP1 PUSH1 0x24 CALLDATALOAD PUSH1 0x1 PUSH1 0x1 PUSH1 0xA0 SHL SUB DUP2 AND DUP2 SUB PUSH2 0x25A JUMPI SWAP1 PUSH1 0x44 CALLDATALOAD SWAP1 JUMP JUMPDEST PUSH1 0x8 SLOAD DUP2 LT ISZERO PUSH2 0x2941 JUMPI PUSH1 0x8 PUSH0 MSTORE PUSH1 0x20 PUSH0 KECCAK256 ADD SWAP1 PUSH0 SWAP1 JUMP JUMPDEST PUSH4 0x4E487B71 PUSH1 0xE0 SHL PUSH0 MSTORE PUSH1 0x32 PUSH1 0x4 MSTORE PUSH1 0x24 PUSH0 REVERT JUMPDEST PUSH2 0x1E0 DUP2 ADD SWAP1 DUP2 LT PUSH1 0x1 PUSH1 0x1 PUSH1 0x40 SHL SUB DUP3 GT OR PUSH2 0x14CB JUMPI PUSH1 0x40 MSTORE JUMP JUMPDEST SWAP1 PUSH1 0x1F DUP1 NOT SWAP2 ADD AND DUP2 ADD SWAP1 DUP2 LT PUSH1 0x1 PUSH1 0x1 PUSH1 0x40 SHL SUB DUP3 GT OR PUSH2 0x14CB JUMPI PUSH1 0x40 MSTORE JUMP JUMPDEST PUSH1 0x1 PUSH1 0x1 PUSH1 0x40 SHL SUB DUP2 GT PUSH2 0x14CB JUMPI PUSH1 0x1F ADD PUSH1 0x1F NOT AND PUSH1 0x20 ADD SWAP1 JUMP JUMPDEST SWAP3 SWAP2 SWAP3 PUSH2 0x29B9 DUP3 PUSH2 0x2992 JUMP JUMPDEST SWAP2 PUSH2 0x29C7 PUSH1 0x40 MLOAD SWAP4 DUP5 PUSH2 0x2971 JUMP JUMPDEST DUP3 SWAP5 DUP2 DUP5 MSTORE DUP2 DUP4 ADD GT PUSH2 0x25A JUMPI DUP3 DUP2 PUSH1 0x20 SWAP4 DUP5 PUSH0 SWAP7 ADD CALLDATACOPY ADD ADD MSTORE JUMP JUMPDEST SWAP1 DUP1 PUSH1 0x1F DUP4 ADD SLT ISZERO PUSH2 0x25A JUMPI DUP2 PUSH1 0x20 PUSH2 0x29FE SWAP4 CALLDATALOAD SWAP2 ADD PUSH2 0x29AD JUMP JUMPDEST SWAP1 JUMP JUMPDEST PUSH1 0x24 CALLDATALOAD SWAP1 DUP2 ISZERO ISZERO DUP3 SUB PUSH2 0x25A JUMPI JUMP JUMPDEST PUSH1 0x1 PUSH1 0x1 PUSH1 0x40 SHL SUB DUP2 GT PUSH2 0x14CB JUMPI PUSH1 0x5 SHL PUSH1 0x20 ADD SWAP1 JUMP JUMPDEST SWAP1 PUSH1 0x1 DUP3 DUP2 SHR SWAP3 AND DUP1 ISZERO PUSH2 0x2A55 JUMPI JUMPDEST PUSH1 0x20 DUP4 LT EQ PUSH2 0x2A41 JUMPI JUMP JUMPDEST PUSH4 0x4E487B71 PUSH1 0xE0 SHL PUSH0 MSTORE PUSH1 0x22 PUSH1 0x4 MSTORE PUSH1 0x24 PUSH0 REVERT JUMPDEST SWAP2 PUSH1 0x7F AND SWAP2 PUSH2 0x2A36 JUMP JUMPDEST SWAP1 PUSH1 0x40 MLOAD SWAP2 DUP3 PUSH0 DUP3 SLOAD SWAP3 PUSH2 0x2A72 DUP5 PUSH2 0x2A27 JUMP JUMPDEST DUP1 DUP5 MSTORE SWAP4 PUSH1 0x1 DUP2 AND SWAP1 DUP2 ISZERO PUSH2 0x2ADD JUMPI POP PUSH1 0x1 EQ PUSH2 0x2A99 JUMPI JUMPDEST POP PUSH2 0x2A97 SWAP3 POP SUB DUP4 PUSH2 0x2971 JUMP JUMPDEST JUMP JUMPDEST SWAP1 POP PUSH0 SWAP3 SWAP2 SWAP3 MSTORE PUSH1 0x20 PUSH0 KECCAK256 SWAP1 PUSH0 SWAP2 JUMPDEST DUP2 DUP4 LT PUSH2 0x2AC1 JUMPI POP POP SWAP1 PUSH1 0x20 PUSH2 0x2A97 SWAP3 DUP3 ADD ADD PUSH0 PUSH2 0x2A8A JUMP JUMPDEST PUSH1 0x20 SWAP2 SWAP4 POP DUP1 PUSH1 0x1 SWAP2 SLOAD DUP4 DUP6 DUP10 ADD ADD MSTORE ADD SWAP2 ADD SWAP1 SWAP2 DUP5 SWAP3 PUSH2 0x2AA8 JUMP JUMPDEST SWAP1 POP PUSH1 0x20 SWAP3 POP PUSH2 0x2A97 SWAP5 SWAP2 POP PUSH1 0xFF NOT AND DUP3 DUP5 ADD MSTORE ISZERO ISZERO PUSH1 0x5 SHL DUP3 ADD ADD PUSH0 PUSH2 0x2A8A JUMP JUMPDEST SWAP1 PUSH1 0x3 DUP3 LT ISZERO PUSH2 0x6D9 JUMPI MSTORE JUMP JUMPDEST SWAP1 PUSH1 0x20 DUP1 DUP4 MLOAD SWAP3 DUP4 DUP2 MSTORE ADD SWAP3 ADD SWAP1 PUSH0 JUMPDEST DUP2 DUP2 LT PUSH2 0x2B29 JUMPI POP POP POP SWAP1 JUMP JUMPDEST DUP3 MLOAD PUSH1 0x1 PUSH1 0x1 PUSH1 0xA0 SHL SUB AND DUP5 MSTORE PUSH1 0x20 SWAP4 DUP5 ADD SWAP4 SWAP1 SWAP3 ADD SWAP2 PUSH1 0x1 ADD PUSH2 0x2B1C JUMP JUMPDEST PUSH1 0x1 PUSH1 0x1 PUSH1 0xA0 SHL SUB SWAP1 SWAP2 AND SWAP2 SWAP1 DUP3 ISZERO PUSH2 0x2480 JUMPI PUSH0 DUP3 DUP2 MSTORE PUSH1 0x2 PUSH1 0x20 MSTORE PUSH1 0x40 SWAP1 KECCAK256 SLOAD PUSH1 0x1 PUSH1 0x1 PUSH1 0xA0 SHL SUB AND SWAP3 DUP3 SWAP1 CALLER ISZERO ISZERO DUP1 PUSH2 0x2C40 JUMPI JUMPDEST POP DUP5 PUSH2 0x2C0D JUMPI JUMPDEST DUP1 PUSH0 MSTORE PUSH1 0x3 PUSH1 0x20 MSTORE PUSH1 0x40 PUSH0 KECCAK256 PUSH1 0x1 DUP2 SLOAD ADD SWAP1 SSTORE DUP2 PUSH0 MSTORE PUSH1 0x2 PUSH1 0x20 MSTORE PUSH1 0x40 PUSH0 KECCAK256 DUP2 PUSH12 0xFFFFFFFFFFFFFFFFFFFFFFFF PUSH1 0xA0 SHL DUP3 SLOAD AND OR SWAP1 SSTORE DUP5 PUSH32 0xDDF252AD1BE2C89B69C2B068FC378DAA952BA7F163C4A11628F55A4DF523B3EF PUSH0 DUP1 LOG4 PUSH1 0x1 PUSH1 0x1 PUSH1 0xA0 SHL SUB AND DUP1 DUP4 SUB PUSH2 0x2BF5 JUMPI POP POP POP JUMP JUMPDEST PUSH4 0x64283D7B PUSH1 0xE0 SHL PUSH0 MSTORE PUSH1 0x4 MSTORE PUSH1 0x24 MSTORE PUSH1 0x44 MSTORE PUSH1 0x64 PUSH0 REVERT JUMPDEST PUSH0 DUP3 DUP2 MSTORE PUSH1 0x4 PUSH1 0x20 MSTORE PUSH1 0x40 SWAP1 KECCAK256 DUP1 SLOAD PUSH1 0x1 PUSH1 0x1 PUSH1 0xA0 SHL SUB NOT AND SWAP1 SSTORE DUP5 PUSH0 MSTORE PUSH1 0x3 PUSH1 0x20 MSTORE PUSH1 0x40 PUSH0 KECCAK256 PUSH0 NOT DUP2 SLOAD ADD SWAP1 SSTORE PUSH2 0x2B85 JUMP JUMPDEST SWAP1 SWAP2 POP DUP1 PUSH2 0x2C84 JUMPI JUMPDEST ISZERO PUSH2 0x2C56 JUMPI DUP3 SWAP1 PUSH0 PUSH2 0x2B7E JUMP JUMPDEST DUP3 DUP5 PUSH2 0x2C6E JUMPI PUSH4 0x7E273289 PUSH1 0xE0 SHL PUSH0 MSTORE PUSH1 0x4 MSTORE PUSH1 0x24 PUSH0 REVERT JUMPDEST PUSH4 0x177E802F PUSH1 0xE0 SHL PUSH0 MSTORE CALLER PUSH1 0x4 MSTORE PUSH1 0x24 MSTORE PUSH1 0x44 PUSH0 REVERT JUMPDEST POP CALLER DUP5 EQ DUP1 ISZERO PUSH2 0x2CB3 JUMPI JUMPDEST DUP1 PUSH2 0x2C49 JUMPI POP PUSH0 DUP4 DUP2 MSTORE PUSH1 0x4 PUSH1 0x20 MSTORE PUSH1 0x40 SWAP1 KECCAK256 SLOAD PUSH1 0x1 PUSH1 0x1 PUSH1 0xA0 SHL SUB AND CALLER EQ PUSH2 0x2C49 JUMP JUMPDEST POP PUSH0 DUP5 DUP2 MSTORE PUSH1 0x5 PUSH1 0x20 SWAP1 DUP2 MSTORE PUSH1 0x40 DUP1 DUP4 KECCAK256 CALLER DUP5 MSTORE SWAP1 SWAP2 MSTORE SWAP1 KECCAK256 SLOAD PUSH1 0xFF AND PUSH2 0x2C8F JUMP JUMPDEST PUSH0 SWAP1 JUMPDEST PUSH1 0x8 SLOAD SWAP2 DUP3 DUP2 LT ISZERO PUSH2 0x2DB5 JUMPI PUSH2 0x2CED DUP2 PUSH2 0x2929 JUMP JUMPDEST SWAP1 SLOAD PUSH1 0x1 PUSH1 0x1 PUSH1 0xA0 SHL SUB DUP5 DUP2 AND SWAP6 SWAP3 PUSH1 0x3 SHL SWAP2 SWAP1 SWAP2 SHR AND DUP5 EQ PUSH2 0x2D15 JUMPI POP PUSH1 0x1 ADD SWAP2 POP PUSH2 0x2CD8 JUMP JUMPDEST PUSH0 NOT DUP2 ADD SWAP3 POP DUP3 GT PUSH2 0x70D JUMPI PUSH2 0x149E PUSH2 0x2D30 PUSH2 0x2D48 SWAP4 PUSH2 0x2929 JUMP JUMPDEST SWAP1 SLOAD PUSH1 0x3 SWAP2 SWAP1 SWAP2 SHL SHR PUSH1 0x1 PUSH1 0x1 PUSH1 0xA0 SHL SUB AND SWAP2 PUSH2 0x2929 JUMP JUMPDEST PUSH1 0x8 SLOAD DUP1 ISZERO PUSH2 0x2DA1 JUMPI PUSH32 0xE1434E25D6611E0DB941968FDC97811C982AC1602E951637D206F5FDDA9DD8F1 SWAP2 PUSH1 0x20 SWAP2 PUSH0 NOT ADD PUSH2 0x2D82 DUP2 PUSH2 0x2929 JUMP JUMPDEST DUP2 SLOAD SWAP1 PUSH1 0x1 DUP1 PUSH1 0xA0 SHL SUB SWAP1 PUSH1 0x3 SHL SHL NOT AND SWAP1 SSTORE PUSH1 0x8 SSTORE PUSH1 0x40 MLOAD SWAP1 DUP2 MSTORE LOG1 JUMP JUMPDEST PUSH4 0x4E487B71 PUSH1 0xE0 SHL PUSH0 MSTORE PUSH1 0x31 PUSH1 0x4 MSTORE PUSH1 0x24 PUSH0 REVERT JUMPDEST PUSH1 0x40 MLOAD PUSH3 0x461BCD PUSH1 0xE5 SHL DUP2 MSTORE PUSH1 0x20 PUSH1 0x4 DUP3 ADD MSTORE PUSH1 0x13 PUSH1 0x24 DUP3 ADD MSTORE PUSH19 0x15985B1A59185D1BDC881B9BDD08199BDD5B99 PUSH1 0x6A SHL PUSH1 0x44 DUP3 ADD MSTORE PUSH1 0x64 SWAP1 REVERT JUMPDEST PUSH1 0x40 MLOAD SWAP1 PUSH2 0x2DFF PUSH1 0x40 DUP4 PUSH2 0x2971 JUMP JUMPDEST PUSH1 0x6 DUP3 MSTORE PUSH6 0x29B4B63B32B9 PUSH1 0xD1 SHL PUSH1 0x20 DUP4 ADD MSTORE JUMP JUMPDEST PUSH1 0x40 MLOAD SWAP1 PUSH2 0x2E23 PUSH1 0x40 DUP4 PUSH2 0x2971 JUMP JUMPDEST PUSH1 0x4 DUP3 MSTORE PUSH4 0x11DBDB19 PUSH1 0xE2 SHL PUSH1 0x20 DUP4 ADD MSTORE JUMP JUMPDEST DUP2 DUP2 LT PUSH2 0x2E41 JUMPI POP POP JUMP JUMPDEST PUSH0 DUP2 SSTORE PUSH1 0x1 ADD PUSH2 0x2E36 JUMP JUMPDEST DUP2 DUP2 MUL SWAP3 SWAP2 DUP2 ISZERO SWAP2 DUP5 DIV EQ OR ISZERO PUSH2 0x70D JUMPI JUMP JUMPDEST SWAP2 SWAP1 DUP3 ADD DUP1 SWAP3 GT PUSH2 0x70D JUMPI JUMP JUMPDEST ISZERO PUSH2 0x2E73 JUMPI JUMP JUMPDEST PUSH1 0x40 MLOAD PUSH3 0x461BCD PUSH1 0xE5 SHL DUP2 MSTORE PUSH1 0x20 PUSH1 0x4 DUP3 ADD MSTORE PUSH1 0x14 PUSH1 0x24 DUP3 ADD MSTORE PUSH20 0x151BDAD95B88191BD95CC81B9BDD08195E1A5CDD PUSH1 0x62 SHL PUSH1 0x44 DUP3 ADD MSTORE PUSH1 0x64 SWAP1 REVERT JUMPDEST PUSH1 0xFF AND PUSH1 0xFF DUP2 EQ PUSH2 0x70D JUMPI PUSH1 0x1 ADD SWAP1 JUMP JUMPDEST DUP1 MLOAD DUP3 LT ISZERO PUSH2 0x2941 JUMPI PUSH1 0x20 SWAP2 PUSH1 0x5 SHL ADD ADD SWAP1 JUMP JUMPDEST PUSH0 DUP2 DUP2 MSTORE PUSH1 0x2 PUSH1 0x20 MSTORE PUSH1 0x40 SWAP1 KECCAK256 SLOAD PUSH1 0x1 PUSH1 0x1 PUSH1 0xA0 SHL SUB AND SWAP1 DUP2 ISZERO PUSH2 0x2EF6 JUMPI POP SWAP1 JUMP JUMPDEST PUSH4 0x7E273289 PUSH1 0xE0 SHL PUSH0 MSTORE PUSH1 0x4 MSTORE PUSH1 0x24 PUSH0 REVERT JUMPDEST PUSH1 0x6 SLOAD PUSH1 0x1 PUSH1 0x1 PUSH1 0xA0 SHL SUB AND CALLER SUB PUSH2 0x2F1C JUMPI JUMP JUMPDEST PUSH4 0x118CDAA7 PUSH1 0xE0 SHL PUSH0 MSTORE CALLER PUSH1 0x4 MSTORE PUSH1 0x24 PUSH0 REVERT JUMPDEST DUP3 EXTCODESIZE PUSH2 0x2F3D JUMPI JUMPDEST POP POP POP POP POP JUMP JUMPDEST PUSH1 0x40 MLOAD PUSH4 0xA85BD01 PUSH1 0xE1 SHL DUP2 MSTORE PUSH1 0x1 PUSH1 0x1 PUSH1 0xA0 SHL SUB SWAP2 DUP3 AND PUSH1 0x4 DUP3 ADD MSTORE SWAP2 DUP2 AND PUSH1 0x24 DUP4 ADD MSTORE PUSH1 0x44 DUP3 ADD SWAP4 SWAP1 SWAP4 MSTORE PUSH1 0x80 PUSH1 0x64 DUP3 ADD MSTORE SWAP2 AND SWAP2 PUSH1 0x20 SWAP1 DUP3 SWAP1 DUP2 SWAP1 PUSH2 0x2F89 SWAP1 PUSH1 0x84 DUP4 ADD SWAP1 PUSH2 0x289F JUMP JUMPDEST SUB DUP2 PUSH0 DUP7 GAS CALL PUSH0 SWAP2 DUP2 PUSH2 0x3020 JUMPI JUMPDEST POP PUSH2 0x2FEC JUMPI POP RETURNDATASIZE ISZERO PUSH2 0x2FE5 JUMPI RETURNDATASIZE PUSH2 0x2FAD DUP2 PUSH2 0x2992 JUMP JUMPDEST SWAP1 PUSH2 0x2FBB PUSH1 0x40 MLOAD SWAP3 DUP4 PUSH2 0x2971 JUMP JUMPDEST DUP2 MSTORE RETURNDATASIZE PUSH0 PUSH1 0x20 DUP4 ADD RETURNDATACOPY JUMPDEST DUP1 MLOAD SWAP1 DUP2 PUSH2 0x2FE0 JUMPI DUP3 PUSH4 0x32505749 PUSH1 0xE1 SHL PUSH0 MSTORE PUSH1 0x4 MSTORE PUSH1 0x24 PUSH0 REVERT JUMPDEST PUSH1 0x20 ADD REVERT JUMPDEST PUSH1 0x60 PUSH2 0x2FC5 JUMP JUMPDEST PUSH1 0x1 PUSH1 0x1 PUSH1 0xE0 SHL SUB NOT AND PUSH4 0x757A42FF PUSH1 0xE1 SHL ADD PUSH2 0x300E JUMPI POP PUSH0 DUP1 DUP1 DUP1 DUP1 PUSH2 0x2F36 JUMP JUMPDEST PUSH4 0x32505749 PUSH1 0xE1 SHL PUSH0 MSTORE PUSH1 0x4 MSTORE PUSH1 0x24 PUSH0 REVERT JUMPDEST SWAP1 SWAP2 POP PUSH1 0x20 DUP2 RETURNDATASIZE PUSH1 0x20 GT PUSH2 0x305D JUMPI JUMPDEST DUP2 PUSH2 0x303C PUSH1 0x20 SWAP4 DUP4 PUSH2 0x2971 JUMP JUMPDEST DUP2 ADD SUB SLT PUSH2 0x25A JUMPI MLOAD PUSH1 0x1 PUSH1 0x1 PUSH1 0xE0 SHL SUB NOT DUP2 AND DUP2 SUB PUSH2 0x25A JUMPI SWAP1 PUSH0 PUSH2 0x2F97 JUMP JUMPDEST RETURNDATASIZE SWAP2 POP PUSH2 0x302F JUMP INVALID LOG2 PUSH5 0x6970667358 0x22 SLT KECCAK256 SWAP6 0xF6 0xDD 0xF 0x21 XOR PUSH32 0x934F9B3F606D85AE1CB5FA8CA100C4BF13C9480AB7EB71C7C464736F6C634300 ADDMOD BYTE STOP CALLER "
		},
		"gasEstimates": {
			"creation": {
				"codeDepositCost": "2488600",
				"executionCost": "infinite",
				"totalCost": "infinite"
			},
			"external": {
				"NUM_VALIDATORS()": "747",
				"addValidator(address)": "54496",
				"approve(address,uint256)": "31146",
				"balanceOf(address)": "2843",
				"dpmsBalances(address)": "2692",
				"getApproved(uint256)": "4625",
				"getDpmsBalance(address)": "2956",
				"getNFTDetails(uint256)": "infinite",
				"getNFTStatus(uint256)": "5363",
				"getValidatorVotes(uint256)": "infinite",
				"getValidators()": "infinite",
				"goldDpmsRewardPerGram()": "3004",
				"isApprovedForAll(address,address)": "3387",
				"mintNFT(string,string,uint256,string,string,uint256,string,uint256,uint256,bool,string[])": "infinite",
				"mintingFees(string,uint256)": "infinite",
				"name()": "infinite",
				"nftMetadata(uint256)": "infinite",
				"owner()": "2764",
				"ownerOf(uint256)": "2814",
				"removeValidator(address)": "infinite",
				"renounceOwnership()": "28500",
				"requiredApprovals()": "2790",
				"safeTransferFrom(address,address,uint256)": "infinite",
				"safeTransferFrom(address,address,uint256,bytes)": "infinite",
				"setApprovalForAll(address,bool)": "27051",
				"setGoldDpmsRewardPerGram(uint256)": "24732",
				"setMintingFee(string,uint256,uint256)": "infinite",
				"setRequiredApprovals(uint8)": "28337",
				"setSilverDpmsRewardPerOz(uint256)": "24556",
				"setValidatorDpmsReward(uint256)": "24512",
				"silverDpmsRewardPerOz()": "2916",
				"supportsInterface(bytes4)": "322",
				"symbol()": "infinite",
				"tokenURI(uint256)": "infinite",
				"transferFrom(address,address,uint256)": "106345",
				"transferOwnership(address)": "29026",
				"validateNFT(uint256,bool)": "infinite",
				"validatorDpmsReward()": "2564",
				"validatorVotes(uint256,address)": "2859",
				"validators(uint256)": "6765"
			},
			"internal": {
				"_exists(uint256)": "infinite"
			}
		},
		"methodIdentifiers": {
			"NUM_VALIDATORS()": "b1ab7df8",
			"addValidator(address)": "4d238c8e",
			"approve(address,uint256)": "095ea7b3",
			"balanceOf(address)": "70a08231",
			"dpmsBalances(address)": "4ee3c5ec",
			"getApproved(uint256)": "081812fc",
			"getDpmsBalance(address)": "9f127365",
			"getNFTDetails(uint256)": "82260f35",
			"getNFTStatus(uint256)": "c88388e8",
			"getValidatorVotes(uint256)": "f235a7aa",
			"getValidators()": "b7ab4db5",
			"goldDpmsRewardPerGram()": "db129fe6",
			"isApprovedForAll(address,address)": "e985e9c5",
			"mintNFT(string,string,uint256,string,string,uint256,string,uint256,uint256,bool,string[])": "41b994c3",
			"mintingFees(string,uint256)": "e79442f7",
			"name()": "06fdde03",
			"nftMetadata(uint256)": "49541015",
			"owner()": "8da5cb5b",
			"ownerOf(uint256)": "6352211e",
			"removeValidator(address)": "40a141ff",
			"renounceOwnership()": "715018a6",
			"requiredApprovals()": "99c1aadc",
			"safeTransferFrom(address,address,uint256)": "42842e0e",
			"safeTransferFrom(address,address,uint256,bytes)": "b88d4fde",
			"setApprovalForAll(address,bool)": "a22cb465",
			"setGoldDpmsRewardPerGram(uint256)": "5c952782",
			"setMintingFee(string,uint256,uint256)": "5cf13ec3",
			"setRequiredApprovals(uint8)": "c4c2e1af",
			"setSilverDpmsRewardPerOz(uint256)": "38c6fe20",
			"setValidatorDpmsReward(uint256)": "2766bd81",
			"silverDpmsRewardPerOz()": "be4d2cf8",
			"supportsInterface(bytes4)": "01ffc9a7",
			"symbol()": "95d89b41",
			"tokenURI(uint256)": "c87b56dd",
			"transferFrom(address,address,uint256)": "23b872dd",
			"transferOwnership(address)": "f2fde38b",
			"validateNFT(uint256,bool)": "dfe9ac82",
			"validatorDpmsReward()": "57c8f5ba",
			"validatorVotes(uint256,address)": "632f9605",
			"validators(uint256)": "35aa2e44"
		}
	},
	"abi": [
		{
			"inputs": [],
			"stateMutability": "nonpayable",
			"type": "constructor"
		},
		{
			"inputs": [
				{
					"internalType": "address",
					"name": "sender",
					"type": "address"
				},
				{
					"internalType": "uint256",
					"name": "tokenId",
					"type": "uint256"
				},
				{
					"internalType": "address",
					"name": "owner",
					"type": "address"
				}
			],
			"name": "ERC721IncorrectOwner",
			"type": "error"
		},
		{
			"inputs": [
				{
					"internalType": "address",
					"name": "operator",
					"type": "address"
				},
				{
					"internalType": "uint256",
					"name": "tokenId",
					"type": "uint256"
				}
			],
			"name": "ERC721InsufficientApproval",
			"type": "error"
		},
		{
			"inputs": [
				{
					"internalType": "address",
					"name": "approver",
					"type": "address"
				}
			],
			"name": "ERC721InvalidApprover",
			"type": "error"
		},
		{
			"inputs": [
				{
					"internalType": "address",
					"name": "operator",
					"type": "address"
				}
			],
			"name": "ERC721InvalidOperator",
			"type": "error"
		},
		{
			"inputs": [
				{
					"internalType": "address",
					"name": "owner",
					"type": "address"
				}
			],
			"name": "ERC721InvalidOwner",
			"type": "error"
		},
		{
			"inputs": [
				{
					"internalType": "address",
					"name": "receiver",
					"type": "address"
				}
			],
			"name": "ERC721InvalidReceiver",
			"type": "error"
		},
		{
			"inputs": [
				{
					"internalType": "address",
					"name": "sender",
					"type": "address"
				}
			],
			"name": "ERC721InvalidSender",
			"type": "error"
		},
		{
			"inputs": [
				{
					"internalType": "uint256",
					"name": "tokenId",
					"type": "uint256"
				}
			],
			"name": "ERC721NonexistentToken",
			"type": "error"
		},
		{
			"inputs": [
				{
					"internalType": "address",
					"name": "owner",
					"type": "address"
				}
			],
			"name": "OwnableInvalidOwner",
			"type": "error"
		},
		{
			"inputs": [
				{
					"internalType": "address",
					"name": "account",
					"type": "address"
				}
			],
			"name": "OwnableUnauthorizedAccount",
			"type": "error"
		},
		{
			"anonymous": false,
			"inputs": [
				{
					"indexed": true,
					"internalType": "address",
					"name": "owner",
					"type": "address"
				},
				{
					"indexed": true,
					"internalType": "address",
					"name": "approved",
					"type": "address"
				},
				{
					"indexed": true,
					"internalType": "uint256",
					"name": "tokenId",
					"type": "uint256"
				}
			],
			"name": "Approval",
			"type": "event"
		},
		{
			"anonymous": false,
			"inputs": [
				{
					"indexed": true,
					"internalType": "address",
					"name": "owner",
					"type": "address"
				},
				{
					"indexed": true,
					"internalType": "address",
					"name": "operator",
					"type": "address"
				},
				{
					"indexed": false,
					"internalType": "bool",
					"name": "approved",
					"type": "bool"
				}
			],
			"name": "ApprovalForAll",
			"type": "event"
		},
		{
			"anonymous": false,
			"inputs": [
				{
					"indexed": false,
					"internalType": "address",
					"name": "user",
					"type": "address"
				},
				{
					"indexed": false,
					"internalType": "uint256",
					"name": "amount",
					"type": "uint256"
				}
			],
			"name": "DpmsRewarded",
			"type": "event"
		},
		{
			"anonymous": false,
			"inputs": [
				{
					"indexed": false,
					"internalType": "uint256",
					"name": "tokenId",
					"type": "uint256"
				},
				{
					"indexed": false,
					"internalType": "address",
					"name": "creator",
					"type": "address"
				},
				{
					"indexed": false,
					"internalType": "string",
					"name": "name",
					"type": "string"
				}
			],
			"name": "NFTMinted",
			"type": "event"
		},
		{
			"anonymous": false,
			"inputs": [
				{
					"indexed": false,
					"internalType": "uint256",
					"name": "tokenId",
					"type": "uint256"
				},
				{
					"indexed": false,
					"internalType": "enum DopulNFT.NFTStatus",
					"name": "newStatus",
					"type": "uint8"
				}
			],
			"name": "NFTStatusUpdated",
			"type": "event"
		},
		{
			"anonymous": false,
			"inputs": [
				{
					"indexed": false,
					"internalType": "uint256",
					"name": "tokenId",
					"type": "uint256"
				},
				{
					"indexed": false,
					"internalType": "address",
					"name": "validator",
					"type": "address"
				},
				{
					"indexed": false,
					"internalType": "bool",
					"name": "vote",
					"type": "bool"
				}
			],
			"name": "NFTValidated",
			"type": "event"
		},
		{
			"anonymous": false,
			"inputs": [
				{
					"indexed": true,
					"internalType": "address",
					"name": "previousOwner",
					"type": "address"
				},
				{
					"indexed": true,
					"internalType": "address",
					"name": "newOwner",
					"type": "address"
				}
			],
			"name": "OwnershipTransferred",
			"type": "event"
		},
		{
			"anonymous": false,
			"inputs": [
				{
					"indexed": false,
					"internalType": "uint8",
					"name": "newRequiredApprovals",
					"type": "uint8"
				}
			],
			"name": "RequiredApprovalsUpdated",
			"type": "event"
		},
		{
			"anonymous": false,
			"inputs": [
				{
					"indexed": true,
					"internalType": "address",
					"name": "from",
					"type": "address"
				},
				{
					"indexed": true,
					"internalType": "address",
					"name": "to",
					"type": "address"
				},
				{
					"indexed": true,
					"internalType": "uint256",
					"name": "tokenId",
					"type": "uint256"
				}
			],
			"name": "Transfer",
			"type": "event"
		},
		{
			"anonymous": false,
			"inputs": [
				{
					"indexed": false,
					"internalType": "address",
					"name": "validator",
					"type": "address"
				}
			],
			"name": "ValidatorAdded",
			"type": "event"
		},
		{
			"anonymous": false,
			"inputs": [
				{
					"indexed": false,
					"internalType": "address",
					"name": "validator",
					"type": "address"
				}
			],
			"name": "ValidatorRemoved",
			"type": "event"
		},
		{
			"inputs": [],
			"name": "NUM_VALIDATORS",
			"outputs": [
				{
					"internalType": "uint8",
					"name": "",
					"type": "uint8"
				}
			],
			"stateMutability": "view",
			"type": "function"
		},
		{
			"inputs": [
				{
					"internalType": "address",
					"name": "_validator",
					"type": "address"
				}
			],
			"name": "addValidator",
			"outputs": [],
			"stateMutability": "nonpayable",
			"type": "function"
		},
		{
			"inputs": [
				{
					"internalType": "address",
					"name": "to",
					"type": "address"
				},
				{
					"internalType": "uint256",
					"name": "tokenId",
					"type": "uint256"
				}
			],
			"name": "approve",
			"outputs": [],
			"stateMutability": "nonpayable",
			"type": "function"
		},
		{
			"inputs": [
				{
					"internalType": "address",
					"name": "owner",
					"type": "address"
				}
			],
			"name": "balanceOf",
			"outputs": [
				{
					"internalType": "uint256",
					"name": "",
					"type": "uint256"
				}
			],
			"stateMutability": "view",
			"type": "function"
		},
		{
			"inputs": [
				{
					"internalType": "address",
					"name": "",
					"type": "address"
				}
			],
			"name": "dpmsBalances",
			"outputs": [
				{
					"internalType": "uint256",
					"name": "",
					"type": "uint256"
				}
			],
			"stateMutability": "view",
			"type": "function"
		},
		{
			"inputs": [
				{
					"internalType": "uint256",
					"name": "tokenId",
					"type": "uint256"
				}
			],
			"name": "getApproved",
			"outputs": [
				{
					"internalType": "address",
					"name": "",
					"type": "address"
				}
			],
			"stateMutability": "view",
			"type": "function"
		},
		{
			"inputs": [
				{
					"internalType": "address",
					"name": "_user",
					"type": "address"
				}
			],
			"name": "getDpmsBalance",
			"outputs": [
				{
					"internalType": "uint256",
					"name": "",
					"type": "uint256"
				}
			],
			"stateMutability": "view",
			"type": "function"
		},
		{
			"inputs": [
				{
					"internalType": "uint256",
					"name": "_tokenId",
					"type": "uint256"
				}
			],
			"name": "getNFTDetails",
			"outputs": [
				{
					"components": [
						{
							"internalType": "string",
							"name": "name",
							"type": "string"
						},
						{
							"internalType": "string",
							"name": "assetType",
							"type": "string"
						},
						{
							"internalType": "uint256",
							"name": "assetYear",
							"type": "uint256"
						},
						{
							"internalType": "string",
							"name": "assetCountry",
							"type": "string"
						},
						{
							"internalType": "string",
							"name": "creatorCountry",
							"type": "string"
						},
						{
							"internalType": "uint256",
							"name": "weightGrams",
							"type": "uint256"
						},
						{
							"internalType": "string",
							"name": "assetName",
							"type": "string"
						},
						{
							"internalType": "uint256",
							"name": "purityPercentage",
							"type": "uint256"
						},
						{
							"internalType": "uint256",
							"name": "quantity",
							"type": "uint256"
						},
						{
							"internalType": "bool",
							"name": "isFungible",
							"type": "bool"
						},
						{
							"internalType": "string[]",
							"name": "imageURIs",
							"type": "string[]"
						},
						{
							"internalType": "address",
							"name": "creatorId",
							"type": "address"
						},
						{
							"internalType": "uint8",
							"name": "trueVotes",
							"type": "uint8"
						},
						{
							"internalType": "uint8",
							"name": "falseVotes",
							"type": "uint8"
						},
						{
							"internalType": "enum DopulNFT.NFTStatus",
							"name": "status",
							"type": "uint8"
						}
					],
					"internalType": "struct DopulNFT.NFTMetadata",
					"name": "",
					"type": "tuple"
				}
			],
			"stateMutability": "view",
			"type": "function"
		},
		{
			"inputs": [
				{
					"internalType": "uint256",
					"name": "_tokenId",
					"type": "uint256"
				}
			],
			"name": "getNFTStatus",
			"outputs": [
				{
					"internalType": "enum DopulNFT.NFTStatus",
					"name": "",
					"type": "uint8"
				}
			],
			"stateMutability": "view",
			"type": "function"
		},
		{
			"inputs": [
				{
					"internalType": "uint256",
					"name": "_tokenId",
					"type": "uint256"
				}
			],
			"name": "getValidatorVotes",
			"outputs": [
				{
					"internalType": "address[]",
					"name": "",
					"type": "address[]"
				},
				{
					"internalType": "bool[]",
					"name": "",
					"type": "bool[]"
				}
			],
			"stateMutability": "view",
			"type": "function"
		},
		{
			"inputs": [],
			"name": "getValidators",
			"outputs": [
				{
					"internalType": "address[]",
					"name": "",
					"type": "address[]"
				}
			],
			"stateMutability": "view",
			"type": "function"
		},
		{
			"inputs": [],
			"name": "goldDpmsRewardPerGram",
			"outputs": [
				{
					"internalType": "uint256",
					"name": "",
					"type": "uint256"
				}
			],
			"stateMutability": "view",
			"type": "function"
		},
		{
			"inputs": [
				{
					"internalType": "address",
					"name": "owner",
					"type": "address"
				},
				{
					"internalType": "address",
					"name": "operator",
					"type": "address"
				}
			],
			"name": "isApprovedForAll",
			"outputs": [
				{
					"internalType": "bool",
					"name": "",
					"type": "bool"
				}
			],
			"stateMutability": "view",
			"type": "function"
		},
		{
			"inputs": [
				{
					"internalType": "string",
					"name": "_name",
					"type": "string"
				},
				{
					"internalType": "string",
					"name": "_assetType",
					"type": "string"
				},
				{
					"internalType": "uint256",
					"name": "_assetYear",
					"type": "uint256"
				},
				{
					"internalType": "string",
					"name": "_assetCountry",
					"type": "string"
				},
				{
					"internalType": "string",
					"name": "_creatorCountry",
					"type": "string"
				},
				{
					"internalType": "uint256",
					"name": "_weightGrams",
					"type": "uint256"
				},
				{
					"internalType": "string",
					"name": "_assetName",
					"type": "string"
				},
				{
					"internalType": "uint256",
					"name": "_purityPercentage",
					"type": "uint256"
				},
				{
					"internalType": "uint256",
					"name": "_quantity",
					"type": "uint256"
				},
				{
					"internalType": "bool",
					"name": "_isFungible",
					"type": "bool"
				},
				{
					"internalType": "string[]",
					"name": "_imageURIs",
					"type": "string[]"
				}
			],
			"name": "mintNFT",
			"outputs": [],
			"stateMutability": "payable",
			"type": "function"
		},
		{
			"inputs": [
				{
					"internalType": "string",
					"name": "",
					"type": "string"
				},
				{
					"internalType": "uint256",
					"name": "",
					"type": "uint256"
				}
			],
			"name": "mintingFees",
			"outputs": [
				{
					"internalType": "uint256",
					"name": "",
					"type": "uint256"
				}
			],
			"stateMutability": "view",
			"type": "function"
		},
		{
			"inputs": [],
			"name": "name",
			"outputs": [
				{
					"internalType": "string",
					"name": "",
					"type": "string"
				}
			],
			"stateMutability": "view",
			"type": "function"
		},
		{
			"inputs": [
				{
					"internalType": "uint256",
					"name": "",
					"type": "uint256"
				}
			],
			"name": "nftMetadata",
			"outputs": [
				{
					"internalType": "string",
					"name": "name",
					"type": "string"
				},
				{
					"internalType": "string",
					"name": "assetType",
					"type": "string"
				},
				{
					"internalType": "uint256",
					"name": "assetYear",
					"type": "uint256"
				},
				{
					"internalType": "string",
					"name": "assetCountry",
					"type": "string"
				},
				{
					"internalType": "string",
					"name": "creatorCountry",
					"type": "string"
				},
				{
					"internalType": "uint256",
					"name": "weightGrams",
					"type": "uint256"
				},
				{
					"internalType": "string",
					"name": "assetName",
					"type": "string"
				},
				{
					"internalType": "uint256",
					"name": "purityPercentage",
					"type": "uint256"
				},
				{
					"internalType": "uint256",
					"name": "quantity",
					"type": "uint256"
				},
				{
					"internalType": "bool",
					"name": "isFungible",
					"type": "bool"
				},
				{
					"internalType": "address",
					"name": "creatorId",
					"type": "address"
				},
				{
					"internalType": "uint8",
					"name": "trueVotes",
					"type": "uint8"
				},
				{
					"internalType": "uint8",
					"name": "falseVotes",
					"type": "uint8"
				},
				{
					"internalType": "enum DopulNFT.NFTStatus",
					"name": "status",
					"type": "uint8"
				}
			],
			"stateMutability": "view",
			"type": "function"
		},
		{
			"inputs": [],
			"name": "owner",
			"outputs": [
				{
					"internalType": "address",
					"name": "",
					"type": "address"
				}
			],
			"stateMutability": "view",
			"type": "function"
		},
		{
			"inputs": [
				{
					"internalType": "uint256",
					"name": "tokenId",
					"type": "uint256"
				}
			],
			"name": "ownerOf",
			"outputs": [
				{
					"internalType": "address",
					"name": "",
					"type": "address"
				}
			],
			"stateMutability": "view",
			"type": "function"
		},
		{
			"inputs": [
				{
					"internalType": "address",
					"name": "_validator",
					"type": "address"
				}
			],
			"name": "removeValidator",
			"outputs": [],
			"stateMutability": "nonpayable",
			"type": "function"
		},
		{
			"inputs": [],
			"name": "renounceOwnership",
			"outputs": [],
			"stateMutability": "nonpayable",
			"type": "function"
		},
		{
			"inputs": [],
			"name": "requiredApprovals",
			"outputs": [
				{
					"internalType": "uint8",
					"name": "",
					"type": "uint8"
				}
			],
			"stateMutability": "view",
			"type": "function"
		},
		{
			"inputs": [
				{
					"internalType": "address",
					"name": "from",
					"type": "address"
				},
				{
					"internalType": "address",
					"name": "to",
					"type": "address"
				},
				{
					"internalType": "uint256",
					"name": "tokenId",
					"type": "uint256"
				}
			],
			"name": "safeTransferFrom",
			"outputs": [],
			"stateMutability": "nonpayable",
			"type": "function"
		},
		{
			"inputs": [
				{
					"internalType": "address",
					"name": "from",
					"type": "address"
				},
				{
					"internalType": "address",
					"name": "to",
					"type": "address"
				},
				{
					"internalType": "uint256",
					"name": "tokenId",
					"type": "uint256"
				},
				{
					"internalType": "bytes",
					"name": "data",
					"type": "bytes"
				}
			],
			"name": "safeTransferFrom",
			"outputs": [],
			"stateMutability": "nonpayable",
			"type": "function"
		},
		{
			"inputs": [
				{
					"internalType": "address",
					"name": "operator",
					"type": "address"
				},
				{
					"internalType": "bool",
					"name": "approved",
					"type": "bool"
				}
			],
			"name": "setApprovalForAll",
			"outputs": [],
			"stateMutability": "nonpayable",
			"type": "function"
		},
		{
			"inputs": [
				{
					"internalType": "uint256",
					"name": "_reward",
					"type": "uint256"
				}
			],
			"name": "setGoldDpmsRewardPerGram",
			"outputs": [],
			"stateMutability": "nonpayable",
			"type": "function"
		},
		{
			"inputs": [
				{
					"internalType": "string",
					"name": "_assetType",
					"type": "string"
				},
				{
					"internalType": "uint256",
					"name": "_quantity",
					"type": "uint256"
				},
				{
					"internalType": "uint256",
					"name": "_feeInUSD",
					"type": "uint256"
				}
			],
			"name": "setMintingFee",
			"outputs": [],
			"stateMutability": "nonpayable",
			"type": "function"
		},
		{
			"inputs": [
				{
					"internalType": "uint8",
					"name": "_requiredApprovals",
					"type": "uint8"
				}
			],
			"name": "setRequiredApprovals",
			"outputs": [],
			"stateMutability": "nonpayable",
			"type": "function"
		},
		{
			"inputs": [
				{
					"internalType": "uint256",
					"name": "_reward",
					"type": "uint256"
				}
			],
			"name": "setSilverDpmsRewardPerOz",
			"outputs": [],
			"stateMutability": "nonpayable",
			"type": "function"
		},
		{
			"inputs": [
				{
					"internalType": "uint256",
					"name": "_reward",
					"type": "uint256"
				}
			],
			"name": "setValidatorDpmsReward",
			"outputs": [],
			"stateMutability": "nonpayable",
			"type": "function"
		},
		{
			"inputs": [],
			"name": "silverDpmsRewardPerOz",
			"outputs": [
				{
					"internalType": "uint256",
					"name": "",
					"type": "uint256"
				}
			],
			"stateMutability": "view",
			"type": "function"
		},
		{
			"inputs": [
				{
					"internalType": "bytes4",
					"name": "interfaceId",
					"type": "bytes4"
				}
			],
			"name": "supportsInterface",
			"outputs": [
				{
					"internalType": "bool",
					"name": "",
					"type": "bool"
				}
			],
			"stateMutability": "view",
			"type": "function"
		},
		{
			"inputs": [],
			"name": "symbol",
			"outputs": [
				{
					"internalType": "string",
					"name": "",
					"type": "string"
				}
			],
			"stateMutability": "view",
			"type": "function"
		},
		{
			"inputs": [
				{
					"internalType": "uint256",
					"name": "tokenId",
					"type": "uint256"
				}
			],
			"name": "tokenURI",
			"outputs": [
				{
					"internalType": "string",
					"name": "",
					"type": "string"
				}
			],
			"stateMutability": "view",
			"type": "function"
		},
		{
			"inputs": [
				{
					"internalType": "address",
					"name": "from",
					"type": "address"
				},
				{
					"internalType": "address",
					"name": "to",
					"type": "address"
				},
				{
					"internalType": "uint256",
					"name": "tokenId",
					"type": "uint256"
				}
			],
			"name": "transferFrom",
			"outputs": [],
			"stateMutability": "nonpayable",
			"type": "function"
		},
		{
			"inputs": [
				{
					"internalType": "address",
					"name": "newOwner",
					"type": "address"
				}
			],
			"name": "transferOwnership",
			"outputs": [],
			"stateMutability": "nonpayable",
			"type": "function"
		},
		{
			"inputs": [
				{
					"internalType": "uint256",
					"name": "_tokenId",
					"type": "uint256"
				},
				{
					"internalType": "bool",
					"name": "_vote",
					"type": "bool"
				}
			],
			"name": "validateNFT",
			"outputs": [],
			"stateMutability": "nonpayable",
			"type": "function"
		},
		{
			"inputs": [],
			"name": "validatorDpmsReward",
			"outputs": [
				{
					"internalType": "uint256",
					"name": "",
					"type": "uint256"
				}
			],
			"stateMutability": "view",
			"type": "function"
		},
		{
			"inputs": [
				{
					"internalType": "uint256",
					"name": "",
					"type": "uint256"
				},
				{
					"internalType": "address",
					"name": "",
					"type": "address"
				}
			],
			"name": "validatorVotes",
			"outputs": [
				{
					"internalType": "bool",
					"name": "",
					"type": "bool"
				}
			],
			"stateMutability": "view",
			"type": "function"
		},
		{
			"inputs": [
				{
					"internalType": "uint256",
					"name": "",
					"type": "uint256"
				}
			],
			"name": "validators",
			"outputs": [
				{
					"internalType": "address",
					"name": "",
					"type": "address"
				}
			],
			"stateMutability": "view",
			"type": "function"
		}
	]
}